{
  "_format": "hh-sol-artifact-1",
  "contractName": "CommownSWPocket",
  "sourceName": "contracts/CommownSWPocket.sol",
  "abi": [
    {
      "inputs": [
        {
          "internalType": "address",
          "name": "_to",
          "type": "address"
        },
        {
          "internalType": "address",
          "name": "_item",
          "type": "address"
        },
        {
          "internalType": "bytes",
          "name": "_data",
          "type": "bytes"
        },
        {
          "internalType": "uint256",
          "name": "_totalAmount",
          "type": "uint256"
        },
        {
          "internalType": "uint256",
          "name": "_id",
          "type": "uint256"
        },
        {
          "internalType": "uint256",
          "name": "_qty",
          "type": "uint256"
        },
        {
          "internalType": "enum PocketType",
          "name": "_pType",
          "type": "uint8"
        }
      ],
      "stateMutability": "nonpayable",
      "type": "constructor"
    },
    {
      "inputs": [],
      "name": "data",
      "outputs": [
        {
          "internalType": "bytes",
          "name": "",
          "type": "bytes"
        }
      ],
      "stateMutability": "view",
      "type": "function"
    },
    {
      "inputs": [],
      "name": "id",
      "outputs": [
        {
          "internalType": "uint256",
          "name": "",
          "type": "uint256"
        }
      ],
      "stateMutability": "view",
      "type": "function"
    },
    {
      "inputs": [],
      "name": "item",
      "outputs": [
        {
          "internalType": "address",
          "name": "",
          "type": "address"
        }
      ],
      "stateMutability": "view",
      "type": "function"
    },
    {
      "inputs": [],
      "name": "owner",
      "outputs": [
        {
          "internalType": "address",
          "name": "",
          "type": "address"
        }
      ],
      "stateMutability": "view",
      "type": "function"
    },
    {
      "inputs": [],
      "name": "pStatus",
      "outputs": [
        {
          "internalType": "enum PocketStatus",
          "name": "",
          "type": "uint8"
        }
      ],
      "stateMutability": "view",
      "type": "function"
    },
    {
      "inputs": [],
      "name": "pType",
      "outputs": [
        {
          "internalType": "enum PocketType",
          "name": "",
          "type": "uint8"
        }
      ],
      "stateMutability": "view",
      "type": "function"
    },
    {
      "inputs": [],
      "name": "qty",
      "outputs": [
        {
          "internalType": "uint256",
          "name": "",
          "type": "uint256"
        }
      ],
      "stateMutability": "view",
      "type": "function"
    },
    {
      "inputs": [
        {
          "internalType": "enum PocketStatus",
          "name": "_status",
          "type": "uint8"
        }
      ],
      "name": "setStatus",
      "outputs": [],
      "stateMutability": "nonpayable",
      "type": "function"
    },
    {
      "inputs": [],
      "name": "to",
      "outputs": [
        {
          "internalType": "address",
          "name": "",
          "type": "address"
        }
      ],
      "stateMutability": "view",
      "type": "function"
    },
    {
      "inputs": [],
      "name": "totalAmount",
      "outputs": [
        {
          "internalType": "uint256",
          "name": "",
          "type": "uint256"
        }
      ],
      "stateMutability": "view",
      "type": "function"
    }
  ],
  "bytecode": "0x60806040523480156200001157600080fd5b5060405162000d8038038062000d808339818101604052810190620000379190620004a3565b336000806101000a81548173ffffffffffffffffffffffffffffffffffffffff021916908373ffffffffffffffffffffffffffffffffffffffff16021790555086600160006101000a81548173ffffffffffffffffffffffffffffffffffffffff021916908373ffffffffffffffffffffffffffffffffffffffff16021790555085600260006101000a81548173ffffffffffffffffffffffffffffffffffffffff021916908373ffffffffffffffffffffffffffffffffffffffff1602179055508460039080519060200190620001119291906200018e565b5083600581905550826006819055508160078190555080600460016101000a81548160ff021916908360028111156200014f576200014e62000575565b5b021790555080600460016101000a81548160ff021916908360028111156200017c576200017b62000575565b5b02179055505050505050505062000608565b8280546200019c90620005d3565b90600052602060002090601f016020900481019282620001c057600085556200020c565b82601f10620001db57805160ff19168380011785556200020c565b828001600101855582156200020c579182015b828111156200020b578251825591602001919060010190620001ee565b5b5090506200021b91906200021f565b5090565b5b808211156200023a57600081600090555060010162000220565b5090565b6000604051905090565b600080fd5b600080fd5b600073ffffffffffffffffffffffffffffffffffffffff82169050919050565b60006200027f8262000252565b9050919050565b620002918162000272565b81146200029d57600080fd5b50565b600081519050620002b18162000286565b92915050565b600080fd5b600080fd5b6000601f19601f8301169050919050565b7f4e487b7100000000000000000000000000000000000000000000000000000000600052604160045260246000fd5b6200030c82620002c1565b810181811067ffffffffffffffff821117156200032e576200032d620002d2565b5b80604052505050565b6000620003436200023e565b905062000351828262000301565b919050565b600067ffffffffffffffff821115620003745762000373620002d2565b5b6200037f82620002c1565b9050602081019050919050565b60005b83811015620003ac5780820151818401526020810190506200038f565b83811115620003bc576000848401525b50505050565b6000620003d9620003d38462000356565b62000337565b905082815260208101848484011115620003f857620003f7620002bc565b5b620004058482856200038c565b509392505050565b600082601f830112620004255762000424620002b7565b5b815162000437848260208601620003c2565b91505092915050565b6000819050919050565b620004558162000440565b81146200046157600080fd5b50565b60008151905062000475816200044a565b92915050565b600381106200048957600080fd5b50565b6000815190506200049d816200047b565b92915050565b600080600080600080600060e0888a031215620004c557620004c462000248565b5b6000620004d58a828b01620002a0565b9750506020620004e88a828b01620002a0565b965050604088015167ffffffffffffffff8111156200050c576200050b6200024d565b5b6200051a8a828b016200040d565b95505060606200052d8a828b0162000464565b9450506080620005408a828b0162000464565b93505060a0620005538a828b0162000464565b92505060c0620005668a828b016200048c565b91505092959891949750929550565b7f4e487b7100000000000000000000000000000000000000000000000000000000600052602160045260246000fd5b7f4e487b7100000000000000000000000000000000000000000000000000000000600052602260045260246000fd5b60006002820490506001821680620005ec57607f821691505b602082108103620006025762000601620005a4565b5b50919050565b61076880620006186000396000f3fe608060405234801561001057600080fd5b506004361061009e5760003560e01c80637ee53526116100665780637ee53526146101375780638285a302146101555780638da5cb5b14610173578063af640d0f14610191578063f2a4a82e146101af5761009e565b806313151981146100a35780631a39d8ef146100c1578063216b9116146100df5780632e49d78b146100fd57806373d4a13a14610119575b600080fd5b6100ab6101cd565b6040516100b891906103ff565b60405180910390f35b6100c96101f3565b6040516100d69190610433565b60405180910390f35b6100e76101f9565b6040516100f491906104c5565b60405180910390f35b6101176004803603810190610112919061050a565b61020c565b005b6101216102c7565b60405161012e91906105d0565b60405180910390f35b61013f610355565b60405161014c919061063a565b60405180910390f35b61015d610368565b60405161016a9190610433565b60405180910390f35b61017b61036e565b60405161018891906103ff565b60405180910390f35b610199610392565b6040516101a69190610433565b60405180910390f35b6101b7610398565b6040516101c491906103ff565b60405180910390f35b600160009054906101000a900473ffffffffffffffffffffffffffffffffffffffff1681565b60055481565b600460019054906101000a900460ff1681565b60008054906101000a900473ffffffffffffffffffffffffffffffffffffffff1673ffffffffffffffffffffffffffffffffffffffff163373ffffffffffffffffffffffffffffffffffffffff161461029a576040517f08c379a0000000000000000000000000000000000000000000000000000000008152600401610291906106b2565b60405180910390fd5b80600460006101000a81548160ff021916908360028111156102bf576102be61044e565b5b021790555050565b600380546102d490610701565b80601f016020809104026020016040519081016040528092919081815260200182805461030090610701565b801561034d5780601f106103225761010080835404028352916020019161034d565b820191906000526020600020905b81548152906001019060200180831161033057829003601f168201915b505050505081565b600460009054906101000a900460ff1681565b60075481565b60008054906101000a900473ffffffffffffffffffffffffffffffffffffffff1681565b60065481565b600260009054906101000a900473ffffffffffffffffffffffffffffffffffffffff1681565b600073ffffffffffffffffffffffffffffffffffffffff82169050919050565b60006103e9826103be565b9050919050565b6103f9816103de565b82525050565b600060208201905061041460008301846103f0565b92915050565b6000819050919050565b61042d8161041a565b82525050565b60006020820190506104486000830184610424565b92915050565b7f4e487b7100000000000000000000000000000000000000000000000000000000600052602160045260246000fd5b6003811061048e5761048d61044e565b5b50565b600081905061049f8261047d565b919050565b60006104af82610491565b9050919050565b6104bf816104a4565b82525050565b60006020820190506104da60008301846104b6565b92915050565b600080fd5b600381106104f257600080fd5b50565b600081359050610504816104e5565b92915050565b6000602082840312156105205761051f6104e0565b5b600061052e848285016104f5565b91505092915050565b600081519050919050565b600082825260208201905092915050565b60005b83811015610571578082015181840152602081019050610556565b83811115610580576000848401525b50505050565b6000601f19601f8301169050919050565b60006105a282610537565b6105ac8185610542565b93506105bc818560208601610553565b6105c581610586565b840191505092915050565b600060208201905081810360008301526105ea8184610597565b905092915050565b600381106106035761060261044e565b5b50565b6000819050610614826105f2565b919050565b600061062482610606565b9050919050565b61063481610619565b82525050565b600060208201905061064f600083018461062b565b92915050565b600082825260208201905092915050565b7f6e6f742061626c6520746f2063616c6c00000000000000000000000000000000600082015250565b600061069c601083610655565b91506106a782610666565b602082019050919050565b600060208201905081810360008301526106cb8161068f565b9050919050565b7f4e487b7100000000000000000000000000000000000000000000000000000000600052602260045260246000fd5b6000600282049050600182168061071957607f821691505b60208210810361072c5761072b6106d2565b5b5091905056fea264697066735822122061e3d454b56ea8f04a573f90947edf2711fd4792e1b657cdc02c8bb48d713e3d64736f6c634300080d0033",
  "linkReferences": {},
  "deployedLinkReferences": {}
}