{
  "_format": "hh-sol-artifact-1",
  "contractName": "CommownSWProxyFactory",
  "sourceName": "contracts/CommownSWProxyFactory.sol",
  "abi": [
    {
      "inputs": [],
      "stateMutability": "nonpayable",
      "type": "constructor"
    },
    {
      "anonymous": false,
      "inputs": [
        {
          "indexed": true,
          "internalType": "address",
          "name": "previousOwner",
          "type": "address"
        },
        {
          "indexed": true,
          "internalType": "address",
          "name": "newOwner",
          "type": "address"
        }
      ],
      "name": "OwnershipTransferred",
      "type": "event"
    },
    {
      "anonymous": false,
      "inputs": [
        {
          "indexed": true,
          "internalType": "address",
          "name": "adrs",
          "type": "address"
        },
        {
          "indexed": false,
          "internalType": "address[]",
          "name": "owners",
          "type": "address[]"
        }
      ],
      "name": "ProxyCreated",
      "type": "event"
    },
    {
      "inputs": [
        {
          "internalType": "address",
          "name": "",
          "type": "address"
        },
        {
          "internalType": "uint256",
          "name": "",
          "type": "uint256"
        }
      ],
      "name": "commownProxiesPerUser",
      "outputs": [
        {
          "internalType": "address",
          "name": "",
          "type": "address"
        }
      ],
      "stateMutability": "view",
      "type": "function"
    },
    {
      "inputs": [
        {
          "internalType": "address[]",
          "name": "_owners",
          "type": "address[]"
        },
        {
          "internalType": "uint8",
          "name": "_confirmationNeeded",
          "type": "uint8"
        }
      ],
      "name": "createProxy",
      "outputs": [
        {
          "internalType": "address",
          "name": "",
          "type": "address"
        }
      ],
      "stateMutability": "nonpayable",
      "type": "function"
    },
    {
      "inputs": [],
      "name": "logic",
      "outputs": [
        {
          "internalType": "address",
          "name": "",
          "type": "address"
        }
      ],
      "stateMutability": "view",
      "type": "function"
    },
    {
      "inputs": [
        {
          "internalType": "address",
          "name": "",
          "type": "address"
        }
      ],
      "name": "nbProxiesPerUser",
      "outputs": [
        {
          "internalType": "uint256",
          "name": "",
          "type": "uint256"
        }
      ],
      "stateMutability": "view",
      "type": "function"
    },
    {
      "inputs": [],
      "name": "owner",
      "outputs": [
        {
          "internalType": "address",
          "name": "",
          "type": "address"
        }
      ],
      "stateMutability": "view",
      "type": "function"
    },
    {
      "inputs": [
        {
          "internalType": "uint256",
          "name": "",
          "type": "uint256"
        }
      ],
      "name": "proxiesList",
      "outputs": [
        {
          "internalType": "address",
          "name": "",
          "type": "address"
        }
      ],
      "stateMutability": "view",
      "type": "function"
    },
    {
      "inputs": [],
      "name": "renounceOwnership",
      "outputs": [],
      "stateMutability": "nonpayable",
      "type": "function"
    },
    {
      "inputs": [
        {
          "internalType": "address",
          "name": "newOwner",
          "type": "address"
        }
      ],
      "name": "transferOwnership",
      "outputs": [],
      "stateMutability": "nonpayable",
      "type": "function"
    }
  ],
  "bytecode": "0x60a060405234801561001057600080fd5b5061002d61002261008e60201b60201c565b61009660201b60201c565b6040516100399061015a565b604051809103906000f080158015610055573d6000803e3d6000fd5b5073ffffffffffffffffffffffffffffffffffffffff1660808173ffffffffffffffffffffffffffffffffffffffff1681525050610168565b600033905090565b60008060009054906101000a900473ffffffffffffffffffffffffffffffffffffffff169050816000806101000a81548173ffffffffffffffffffffffffffffffffffffffff021916908373ffffffffffffffffffffffffffffffffffffffff1602179055508173ffffffffffffffffffffffffffffffffffffffff168173ffffffffffffffffffffffffffffffffffffffff167f8be0079c531659141344cd1fd0a4f28419497f9722a3daafe3b4186f6b6457e060405160405180910390a35050565b61415c806200211f83390190565b608051611f946200018b600039600081816103fa01526106f00152611f946000f3fe60806040523480156200001157600080fd5b5060043610620000945760003560e01c8063adec742d1162000063578063adec742d1462000133578063c55e8db11462000169578063d7dfa0dd146200019f578063f2fde38b14620001c15762000094565b8063404addee1462000099578063715018a614620000cf578063878dd62b14620000db5780638da5cb5b1462000111575b600080fd5b620000b76004803603810190620000b19190620009a3565b620001e1565b604051620000c69190620009fb565b60405180910390f35b620000d962000230565b005b620000f96004803603810190620000f3919062000a18565b620002c1565b60405162000108919062000a5b565b60405180910390f35b6200011b620002d9565b6040516200012a9190620009fb565b60405180910390f35b6200015160048036038101906200014b919062000a78565b62000302565b604051620001609190620009fb565b60405180910390f35b62000187600480360381019062000181919062000c5d565b62000342565b604051620001969190620009fb565b60405180910390f35b620001a9620006ee565b604051620001b89190620009fb565b60405180910390f35b620001df6004803603810190620001d9919062000a18565b62000712565b005b60016020528160005260406000208181548110620001fe57600080fd5b906000526020600020016000915091509054906101000a900473ffffffffffffffffffffffffffffffffffffffff1681565b6200023a62000815565b73ffffffffffffffffffffffffffffffffffffffff166200025a620002d9565b73ffffffffffffffffffffffffffffffffffffffff1614620002b3576040517f08c379a0000000000000000000000000000000000000000000000000000000008152600401620002aa9062000d24565b60405180910390fd5b620002bf60006200081d565b565b60026020528060005260406000206000915090505481565b60008060009054906101000a900473ffffffffffffffffffffffffffffffffffffffff16905090565b600381815481106200031357600080fd5b906000526020600020016000915054906101000a900473ffffffffffffffffffffffffffffffffffffffff1681565b6000808351905060ff81111580156200035b5750600081115b6200039d576040517f08c379a0000000000000000000000000000000000000000000000000000000008152600401620003949062000d96565b60405180910390fd5b60008360ff16118015620003b45750808360ff1611155b620003f6576040517f08c379a0000000000000000000000000000000000000000000000000000000008152600401620003ed9062000e08565b60405180910390fd5b60007f000000000000000000000000000000000000000000000000000000000000000063eb53a05760e01b86866200042d620002d9565b604051602401620004419392919062000f09565b604051602081830303815290604052907bffffffffffffffffffffffffffffffffffffffffffffffffffffffff19166020820180517bffffffffffffffffffffffffffffffffffffffffffffffffffffffff8381831617835250505050604051620004ac90620008e1565b620004b992919062000fe0565b604051809103906000f080158015620004d6573d6000803e3d6000fd5b5090506003819080600181540180825580915050600190039060005260206000200160009091909190916101000a81548173ffffffffffffffffffffffffffffffffffffffff021916908373ffffffffffffffffffffffffffffffffffffffff16021790555060005b855181101562000692576001600087838151811062000563576200056262001014565b5b602002602001015173ffffffffffffffffffffffffffffffffffffffff1673ffffffffffffffffffffffffffffffffffffffff168152602001908152602001600020829080600181540180825580915050600190039060005260206000200160009091909190916101000a81548173ffffffffffffffffffffffffffffffffffffffff021916908373ffffffffffffffffffffffffffffffffffffffff16021790555060016002600088848151811062000622576200062162001014565b5b602002602001015173ffffffffffffffffffffffffffffffffffffffff1673ffffffffffffffffffffffffffffffffffffffff168152602001908152602001600020600082825462000675919062001072565b9250508190555080806200068990620010cf565b9150506200053f565b508073ffffffffffffffffffffffffffffffffffffffff167ffde274332a06d15775f8305f98b1665142facc59b7aa826609980b4e2a0c9aff86604051620006db91906200111c565b60405180910390a2809250505092915050565b7f000000000000000000000000000000000000000000000000000000000000000081565b6200071c62000815565b73ffffffffffffffffffffffffffffffffffffffff166200073c620002d9565b73ffffffffffffffffffffffffffffffffffffffff161462000795576040517f08c379a00000000000000000000000000000000000000000000000000000000081526004016200078c9062000d24565b60405180910390fd5b600073ffffffffffffffffffffffffffffffffffffffff168173ffffffffffffffffffffffffffffffffffffffff160362000807576040517f08c379a0000000000000000000000000000000000000000000000000000000008152600401620007fe90620011b6565b60405180910390fd5b62000812816200081d565b50565b600033905090565b60008060009054906101000a900473ffffffffffffffffffffffffffffffffffffffff169050816000806101000a81548173ffffffffffffffffffffffffffffffffffffffff021916908373ffffffffffffffffffffffffffffffffffffffff1602179055508173ffffffffffffffffffffffffffffffffffffffff168173ffffffffffffffffffffffffffffffffffffffff167f8be0079c531659141344cd1fd0a4f28419497f9722a3daafe3b4186f6b6457e060405160405180910390a35050565b610d8680620011d983390190565b6000604051905090565b600080fd5b600080fd5b600073ffffffffffffffffffffffffffffffffffffffff82169050919050565b6000620009308262000903565b9050919050565b620009428162000923565b81146200094e57600080fd5b50565b600081359050620009628162000937565b92915050565b6000819050919050565b6200097d8162000968565b81146200098957600080fd5b50565b6000813590506200099d8162000972565b92915050565b60008060408385031215620009bd57620009bc620008f9565b5b6000620009cd8582860162000951565b9250506020620009e0858286016200098c565b9150509250929050565b620009f58162000923565b82525050565b600060208201905062000a126000830184620009ea565b92915050565b60006020828403121562000a315762000a30620008f9565b5b600062000a418482850162000951565b91505092915050565b62000a558162000968565b82525050565b600060208201905062000a72600083018462000a4a565b92915050565b60006020828403121562000a915762000a90620008f9565b5b600062000aa1848285016200098c565b91505092915050565b600080fd5b6000601f19601f8301169050919050565b7f4e487b7100000000000000000000000000000000000000000000000000000000600052604160045260246000fd5b62000afa8262000aaf565b810181811067ffffffffffffffff8211171562000b1c5762000b1b62000ac0565b5b80604052505050565b600062000b31620008ef565b905062000b3f828262000aef565b919050565b600067ffffffffffffffff82111562000b625762000b6162000ac0565b5b602082029050602081019050919050565b600080fd5b600062000b8f62000b898462000b44565b62000b25565b9050808382526020820190506020840283018581111562000bb55762000bb462000b73565b5b835b8181101562000be2578062000bcd888262000951565b84526020840193505060208101905062000bb7565b5050509392505050565b600082601f83011262000c045762000c0362000aaa565b5b813562000c1684826020860162000b78565b91505092915050565b600060ff82169050919050565b62000c378162000c1f565b811462000c4357600080fd5b50565b60008135905062000c578162000c2c565b92915050565b6000806040838503121562000c775762000c76620008f9565b5b600083013567ffffffffffffffff81111562000c985762000c97620008fe565b5b62000ca68582860162000bec565b925050602062000cb98582860162000c46565b9150509250929050565b600082825260208201905092915050565b7f4f776e61626c653a2063616c6c6572206973206e6f7420746865206f776e6572600082015250565b600062000d0c60208362000cc3565b915062000d198262000cd4565b602082019050919050565b6000602082019050818103600083015262000d3f8162000cfd565b9050919050565b7f5f6f776e6572732e6c656e6774682077726f6e67000000000000000000000000600082015250565b600062000d7e60148362000cc3565b915062000d8b8262000d46565b602082019050919050565b6000602082019050818103600083015262000db18162000d6f565b9050919050565b7f696e76616c696420636f6e6669726d6174696f6e206e756d6265720000000000600082015250565b600062000df0601b8362000cc3565b915062000dfd8262000db8565b602082019050919050565b6000602082019050818103600083015262000e238162000de1565b9050919050565b600081519050919050565b600082825260208201905092915050565b6000819050602082019050919050565b62000e618162000923565b82525050565b600062000e75838362000e56565b60208301905092915050565b6000602082019050919050565b600062000e9b8262000e2a565b62000ea7818562000e35565b935062000eb48362000e46565b8060005b8381101562000eeb57815162000ecf888262000e67565b975062000edc8362000e81565b92505060018101905062000eb8565b5085935050505092915050565b62000f038162000c1f565b82525050565b6000606082019050818103600083015262000f25818662000e8e565b905062000f36602083018562000ef8565b62000f456040830184620009ea565b949350505050565b600081519050919050565b600082825260208201905092915050565b60005b8381101562000f8957808201518184015260208101905062000f6c565b8381111562000f99576000848401525b50505050565b600062000fac8262000f4d565b62000fb8818562000f58565b935062000fca81856020860162000f69565b62000fd58162000aaf565b840191505092915050565b600060408201905062000ff76000830185620009ea565b81810360208301526200100b818462000f9f565b90509392505050565b7f4e487b7100000000000000000000000000000000000000000000000000000000600052603260045260246000fd5b7f4e487b7100000000000000000000000000000000000000000000000000000000600052601160045260246000fd5b60006200107f8262000968565b91506200108c8362000968565b9250827fffffffffffffffffffffffffffffffffffffffffffffffffffffffffffffffff03821115620010c457620010c362001043565b5b828201905092915050565b6000620010dc8262000968565b91507fffffffffffffffffffffffffffffffffffffffffffffffffffffffffffffffff820362001111576200111062001043565b5b600182019050919050565b6000602082019050818103600083015262001138818462000e8e565b905092915050565b7f4f776e61626c653a206e6577206f776e657220697320746865207a65726f206160008201527f6464726573730000000000000000000000000000000000000000000000000000602082015250565b60006200119e60268362000cc3565b9150620011ab8262001140565b604082019050919050565b60006020820190508181036000830152620011d1816200118f565b905091905056fe608060405260405162000d8638038062000d868339818101604052810190620000299190620005d4565b60017f360894a13ba1a3210667c828492db98dca3e2076cc3735a920a3ca505d382bbd60001c6200005b919062000673565b60001b7f360894a13ba1a3210667c828492db98dca3e2076cc3735a920a3ca505d382bbc60001b14620000935762000092620006ae565b5b620000a782826000620000af60201b60201c565b5050620008f4565b620000c083620000f260201b60201c565b600082511180620000ce5750805b15620000ed57620000eb83836200014960201b620000371760201c565b505b505050565b62000103816200017f60201b60201c565b8073ffffffffffffffffffffffffffffffffffffffff167fbc7cd75a20ee27fd9adebab32041f755214dbc6bffa90cc0225b39da2e5c2d3b60405160405180910390a250565b606062000177838360405180606001604052806027815260200162000d5f602791396200025560201b60201c565b905092915050565b62000195816200033960201b620000641760201c565b620001d7576040517f08c379a0000000000000000000000000000000000000000000000000000000008152600401620001ce9062000764565b60405180910390fd5b80620002117f360894a13ba1a3210667c828492db98dca3e2076cc3735a920a3ca505d382bbc60001b6200035c60201b620000871760201c565b60000160006101000a81548173ffffffffffffffffffffffffffffffffffffffff021916908373ffffffffffffffffffffffffffffffffffffffff16021790555050565b606062000268846200033960201b60201c565b620002aa576040517f08c379a0000000000000000000000000000000000000000000000000000000008152600401620002a190620007fc565b60405180910390fd5b6000808573ffffffffffffffffffffffffffffffffffffffff1685604051620002d491906200086b565b600060405180830381855af49150503d806000811462000311576040519150601f19603f3d011682016040523d82523d6000602084013e62000316565b606091505b50915091506200032e8282866200036660201b60201c565b925050509392505050565b6000808273ffffffffffffffffffffffffffffffffffffffff163b119050919050565b6000819050919050565b606083156200037857829050620003cb565b6000835111156200038c5782518084602001fd5b816040517f08c379a0000000000000000000000000000000000000000000000000000000008152600401620003c29190620008d0565b60405180910390fd5b9392505050565b6000604051905090565b600080fd5b600080fd5b600073ffffffffffffffffffffffffffffffffffffffff82169050919050565b60006200041382620003e6565b9050919050565b620004258162000406565b81146200043157600080fd5b50565b60008151905062000445816200041a565b92915050565b600080fd5b600080fd5b6000601f19601f8301169050919050565b7f4e487b7100000000000000000000000000000000000000000000000000000000600052604160045260246000fd5b620004a08262000455565b810181811067ffffffffffffffff82111715620004c257620004c162000466565b5b80604052505050565b6000620004d7620003d2565b9050620004e5828262000495565b919050565b600067ffffffffffffffff82111562000508576200050762000466565b5b620005138262000455565b9050602081019050919050565b60005b838110156200054057808201518184015260208101905062000523565b8381111562000550576000848401525b50505050565b60006200056d6200056784620004ea565b620004cb565b9050828152602081018484840111156200058c576200058b62000450565b5b6200059984828562000520565b509392505050565b600082601f830112620005b957620005b86200044b565b5b8151620005cb84826020860162000556565b91505092915050565b60008060408385031215620005ee57620005ed620003dc565b5b6000620005fe8582860162000434565b925050602083015167ffffffffffffffff811115620006225762000621620003e1565b5b6200063085828601620005a1565b9150509250929050565b6000819050919050565b7f4e487b7100000000000000000000000000000000000000000000000000000000600052601160045260246000fd5b600062000680826200063a565b91506200068d836200063a565b925082821015620006a357620006a262000644565b5b828203905092915050565b7f4e487b7100000000000000000000000000000000000000000000000000000000600052600160045260246000fd5b600082825260208201905092915050565b7f455243313936373a206e657720696d706c656d656e746174696f6e206973206e60008201527f6f74206120636f6e747261637400000000000000000000000000000000000000602082015250565b60006200074c602d83620006dd565b91506200075982620006ee565b604082019050919050565b600060208201905081810360008301526200077f816200073d565b9050919050565b7f416464726573733a2064656c65676174652063616c6c20746f206e6f6e2d636f60008201527f6e74726163740000000000000000000000000000000000000000000000000000602082015250565b6000620007e4602683620006dd565b9150620007f18262000786565b604082019050919050565b600060208201905081810360008301526200081781620007d5565b9050919050565b600081519050919050565b600081905092915050565b600062000841826200081e565b6200084d818562000829565b93506200085f81856020860162000520565b80840191505092915050565b600062000879828462000834565b915081905092915050565b600081519050919050565b60006200089c8262000884565b620008a88185620006dd565b9350620008ba81856020860162000520565b620008c58162000455565b840191505092915050565b60006020820190508181036000830152620008ec81846200088f565b905092915050565b61045b80620009046000396000f3fe6080604052366100135761001161001d565b005b61001b61001d565b005b610025610091565b610035610030610093565b6100a2565b565b606061005c83836040518060600160405280602781526020016103ff602791396100c8565b905092915050565b6000808273ffffffffffffffffffffffffffffffffffffffff163b119050919050565b6000819050919050565b565b600061009d610195565b905090565b3660008037600080366000845af43d6000803e80600081146100c3573d6000f35b3d6000fd5b60606100d384610064565b610112576040517f08c379a0000000000000000000000000000000000000000000000000000000008152600401610109906102d6565b60405180910390fd5b6000808573ffffffffffffffffffffffffffffffffffffffff168560405161013a9190610370565b600060405180830381855af49150503d8060008114610175576040519150601f19603f3d011682016040523d82523d6000602084013e61017a565b606091505b509150915061018a8282866101ec565b925050509392505050565b60006101c37f360894a13ba1a3210667c828492db98dca3e2076cc3735a920a3ca505d382bbc60001b610087565b60000160009054906101000a900473ffffffffffffffffffffffffffffffffffffffff16905090565b606083156101fc5782905061024c565b60008351111561020f5782518084602001fd5b816040517f08c379a000000000000000000000000000000000000000000000000000000000815260040161024391906103dc565b60405180910390fd5b9392505050565b600082825260208201905092915050565b7f416464726573733a2064656c65676174652063616c6c20746f206e6f6e2d636f60008201527f6e74726163740000000000000000000000000000000000000000000000000000602082015250565b60006102c0602683610253565b91506102cb82610264565b604082019050919050565b600060208201905081810360008301526102ef816102b3565b9050919050565b600081519050919050565b600081905092915050565b60005b8381101561032a57808201518184015260208101905061030f565b83811115610339576000848401525b50505050565b600061034a826102f6565b6103548185610301565b935061036481856020860161030c565b80840191505092915050565b600061037c828461033f565b915081905092915050565b600081519050919050565b6000601f19601f8301169050919050565b60006103ae82610387565b6103b88185610253565b93506103c881856020860161030c565b6103d181610392565b840191505092915050565b600060208201905081810360008301526103f681846103a3565b90509291505056fe416464726573733a206c6f772d6c6576656c2064656c65676174652063616c6c206661696c6564a2646970667358221220e7ad0133b9d7b8ba046931d6e493290054d3bb31bdb06986a7c5cff55b817b7c64736f6c634300080d0033416464726573733a206c6f772d6c6576656c2064656c65676174652063616c6c206661696c6564a2646970667358221220650558ae84732b002dc7c93b64d358cadb1566400eeed387c064db8f63151d5e64736f6c634300080d003360a06040523073ffffffffffffffffffffffffffffffffffffffff1660809073ffffffffffffffffffffffffffffffffffffffff168152503480156200004457600080fd5b506000620000596001620000e160201b60201c565b905080156200007e576001600060016101000a81548160ff0219169083151502179055505b8015620000da5760008060016101000a81548160ff0219169083151502179055507f7f26b83ff96e1f2b6a682f133852f6798a09c465da95921460cefb38474024986001604051620000d1919062000264565b60405180910390a15b506200032a565b60008060019054906101000a900460ff16156200016b5760018260ff161480156200011f57506200011d30620001e760201b62001a8d1760201c565b155b62000161576040517f08c379a0000000000000000000000000000000000000000000000000000000008152600401620001589062000308565b60405180910390fd5b60009050620001e2565b8160ff1660008054906101000a900460ff1660ff1610620001c3576040517f08c379a0000000000000000000000000000000000000000000000000000000008152600401620001ba9062000308565b60405180910390fd5b816000806101000a81548160ff021916908360ff160217905550600190505b919050565b6000808273ffffffffffffffffffffffffffffffffffffffff163b119050919050565b6000819050919050565b600060ff82169050919050565b6000819050919050565b60006200024c6200024662000240846200020a565b62000221565b62000214565b9050919050565b6200025e816200022b565b82525050565b60006020820190506200027b600083018462000253565b92915050565b600082825260208201905092915050565b7f496e697469616c697a61626c653a20636f6e747261637420697320616c72656160008201527f647920696e697469616c697a6564000000000000000000000000000000000000602082015250565b6000620002f0602e8362000281565b9150620002fd8262000292565b604082019050919050565b600060208201905081810360008301526200032381620002e1565b9050919050565b608051613dfa6200036260003960008181610b4501528181610bd301528181610d0201528181610d900152610e400152613dfa6000f3fe6080604052600436106101395760003560e01c806352d1902d116100ab578063a404e0311161006f578063a404e03114610606578063ea9ce58a1461062f578063eb53a0571461066c578063ee98fc7214610695578063f2fde38b146106d2578063ffa1ad74146106fb576102f7565b806352d1902d1461051c578063715018a6146105475780638da5cb5b1461055e5780638fe371d2146105895780639f6375d7146105c9576102f7565b80632e1a7d4d116100fd5780632e1a7d4d146104095780632f54bf6e146104325780633659cfe61461046f5780633e6d21fa146104985780634cf0a479146104d55780634f1ef28614610500576102f7565b8063025e7c27146102fc5780630be6aa5d146103395780630d2e47c114610376578063150b7a02146103a15780632b9a9f50146103de576102f7565b366102f7573360ca60008273ffffffffffffffffffffffffffffffffffffffff1673ffffffffffffffffffffffffffffffffffffffff16815260200190815260200160002060009054906101000a900460ff166101cb576040517f08c379a00000000000000000000000000000000000000000000000000000000081526004016101c290612350565b60405180910390fd5b6000341161020e576040517f08c379a0000000000000000000000000000000000000000000000000000000008152600401610205906123bc565b60405180910390fd5b3460cd60003373ffffffffffffffffffffffffffffffffffffffff1673ffffffffffffffffffffffffffffffffffffffff168152602001908152602001600020600082825461025d9190612415565b925050819055503373ffffffffffffffffffffffffffffffffffffffff167f36af321ec8d3c75236829c5317affd40ddb308863a1236d2d277a4025cccee1e3460cd60003373ffffffffffffffffffffffffffffffffffffffff1673ffffffffffffffffffffffffffffffffffffffff16815260200190815260200160002054476040516102ed9392919061247a565b60405180910390a2005b600080fd5b34801561030857600080fd5b50610323600480360381019061031e91906124f1565b610726565b604051610330919061255f565b60405180910390f35b34801561034557600080fd5b50610360600480360381019061035b91906125a6565b610765565b60405161036d91906125e6565b60405180910390f35b34801561038257600080fd5b5061038b61078a565b60405161039891906125e6565b60405180910390f35b3480156103ad57600080fd5b506103c860048036038101906103c39190612747565b610790565b6040516103d59190612805565b60405180910390f35b3480156103ea57600080fd5b506103f36107a4565b604051610400919061283c565b60405180910390f35b34801561041557600080fd5b50610430600480360381019061042b91906124f1565b6107b7565b005b34801561043e57600080fd5b5061045960048036038101906104549190612857565b610b23565b604051610466919061289f565b60405180910390f35b34801561047b57600080fd5b5061049660048036038101906104919190612857565b610b43565b005b3480156104a457600080fd5b506104bf60048036038101906104ba91906125a6565b610ccb565b6040516104cc919061289f565b60405180910390f35b3480156104e157600080fd5b506104ea610cfa565b6040516104f791906125e6565b60405180910390f35b61051a600480360381019061051591906128ba565b610d00565b005b34801561052857600080fd5b50610531610e3c565b60405161053e919061292f565b60405180910390f35b34801561055357600080fd5b5061055c610ef5565b005b34801561056a57600080fd5b50610573610f7d565b604051610580919061255f565b60405180910390f35b34801561059557600080fd5b506105b060048036038101906105ab91906124f1565b610fa7565b6040516105c09493929190612a49565b60405180910390f35b3480156105d557600080fd5b506105f060048036038101906105eb9190612857565b61109c565b6040516105fd91906125e6565b60405180910390f35b34801561061257600080fd5b5061062d60048036038101906106289190612c20565b6110b4565b005b34801561063b57600080fd5b5061065660048036038101906106519190612d2a565b611515565b60405161066391906125e6565b60405180910390f35b34801561067857600080fd5b50610693600480360381019061068e9190612da9565b611547565b005b3480156106a157600080fd5b506106bc60048036038101906106b79190612857565b611945565b6040516106c991906125e6565b60405180910390f35b3480156106de57600080fd5b506106f960048036038101906106f49190612857565b61195d565b005b34801561070757600080fd5b50610710611a54565b60405161071d9190612e5c565b60405180910390f35b60c9818154811061073657600080fd5b906000526020600020016000915054906101000a900473ffffffffffffffffffffffffffffffffffffffff1681565b60d2602052816000526040600020602052806000526040600020600091509150505481565b60d05481565b600063150b7a0260e01b9050949350505050565b60cb60009054906101000a900460ff1681565b3360ca60008273ffffffffffffffffffffffffffffffffffffffff1673ffffffffffffffffffffffffffffffffffffffff16815260200190815260200160002060009054906101000a900460ff16610844576040517f08c379a000000000000000000000000000000000000000000000000000000000815260040161083b90612350565b60405180910390fd5b600060cd60003373ffffffffffffffffffffffffffffffffffffffff1673ffffffffffffffffffffffffffffffffffffffff16815260200190815260200160002054116108c6576040517f08c379a00000000000000000000000000000000000000000000000000000000081526004016108bd90612eca565b60405180910390fd5b60008211610909576040517f08c379a000000000000000000000000000000000000000000000000000000000815260040161090090612f36565b60405180910390fd5b60cd60003373ffffffffffffffffffffffffffffffffffffffff1673ffffffffffffffffffffffffffffffffffffffff1681526020019081526020016000205482111561098b576040517f08c379a000000000000000000000000000000000000000000000000000000000815260040161098290612fa2565b60405180910390fd5b8160cd60003373ffffffffffffffffffffffffffffffffffffffff1673ffffffffffffffffffffffffffffffffffffffff16815260200190815260200160002060008282546109da9190612fc2565b9250508190555060003373ffffffffffffffffffffffffffffffffffffffff1683604051610a0790613027565b60006040518083038185875af1925050503d8060008114610a44576040519150601f19603f3d011682016040523d82523d6000602084013e610a49565b606091505b5050905080610a8d576040517f08c379a0000000000000000000000000000000000000000000000000000000008152600401610a8490613088565b60405180910390fd5b3373ffffffffffffffffffffffffffffffffffffffff167f02f25270a4d87bea75db541cdfe559334a275b4a233520ed6c0a2429667cca948460cd60003373ffffffffffffffffffffffffffffffffffffffff1673ffffffffffffffffffffffffffffffffffffffff1681526020019081526020016000205447604051610b169392919061247a565b60405180910390a2505050565b60ca6020528060005260406000206000915054906101000a900460ff1681565b7f000000000000000000000000000000000000000000000000000000000000000073ffffffffffffffffffffffffffffffffffffffff163073ffffffffffffffffffffffffffffffffffffffff1603610bd1576040517f08c379a0000000000000000000000000000000000000000000000000000000008152600401610bc89061311a565b60405180910390fd5b7f000000000000000000000000000000000000000000000000000000000000000073ffffffffffffffffffffffffffffffffffffffff16610c10611ab0565b73ffffffffffffffffffffffffffffffffffffffff1614610c66576040517f08c379a0000000000000000000000000000000000000000000000000000000008152600401610c5d906131ac565b60405180910390fd5b610c6f81611b07565b610cc881600067ffffffffffffffff811115610c8e57610c8d61261c565b5b6040519080825280601f01601f191660200182016040528015610cc05781602001600182028036833780820191505090505b506000611b86565b50565b60d16020528160005260406000206020528060005260406000206000915091509054906101000a900460ff1681565b60cc5481565b7f000000000000000000000000000000000000000000000000000000000000000073ffffffffffffffffffffffffffffffffffffffff163073ffffffffffffffffffffffffffffffffffffffff1603610d8e576040517f08c379a0000000000000000000000000000000000000000000000000000000008152600401610d859061311a565b60405180910390fd5b7f000000000000000000000000000000000000000000000000000000000000000073ffffffffffffffffffffffffffffffffffffffff16610dcd611ab0565b73ffffffffffffffffffffffffffffffffffffffff1614610e23576040517f08c379a0000000000000000000000000000000000000000000000000000000008152600401610e1a906131ac565b60405180910390fd5b610e2c82611b07565b610e3882826001611b86565b5050565b60007f000000000000000000000000000000000000000000000000000000000000000073ffffffffffffffffffffffffffffffffffffffff163073ffffffffffffffffffffffffffffffffffffffff1614610ecc576040517f08c379a0000000000000000000000000000000000000000000000000000000008152600401610ec39061323e565b60405180910390fd5b7f360894a13ba1a3210667c828492db98dca3e2076cc3735a920a3ca505d382bbc60001b905090565b610efd611cf4565b73ffffffffffffffffffffffffffffffffffffffff16610f1b610f7d565b73ffffffffffffffffffffffffffffffffffffffff1614610f71576040517f08c379a0000000000000000000000000000000000000000000000000000000008152600401610f68906132aa565b60405180910390fd5b610f7b6000611cfc565b565b6000609760009054906101000a900473ffffffffffffffffffffffffffffffffffffffff16905090565b60cf8181548110610fb757600080fd5b90600052602060002090600402016000915090508060000160009054906101000a900473ffffffffffffffffffffffffffffffffffffffff1690806001018054611000906132f9565b80601f016020809104026020016040519081016040528092919081815260200182805461102c906132f9565b80156110795780601f1061104e57610100808354040283529160200191611079565b820191906000526020600020905b81548152906001019060200180831161105c57829003601f168201915b5050505050908060020160009054906101000a900460ff16908060030154905084565b60ce6020528060005260406000206000915090505481565b3360ca60008273ffffffffffffffffffffffffffffffffffffffff1673ffffffffffffffffffffffffffffffffffffffff16815260200190815260200160002060009054906101000a900460ff16611141576040517f08c379a000000000000000000000000000000000000000000000000000000000815260040161113890612350565b60405180910390fd5b6000865111611185576040517f08c379a000000000000000000000000000000000000000000000000000000000815260040161117c90613376565b60405180910390fd5b84518651146111c9576040517f08c379a00000000000000000000000000000000000000000000000000000000081526004016111c0906133e2565b60405180910390fd5b60cf8054905060d08190555060cf60405180608001604052808b73ffffffffffffffffffffffffffffffffffffffff1681526020018a815260200160006003811115611218576112176129d2565b5b815260200189815250908060018154018082558091505060019003906000526020600020906004020160009091909190915060008201518160000160006101000a81548173ffffffffffffffffffffffffffffffffffffffff021916908373ffffffffffffffffffffffffffffffffffffffff16021790555060208201518160010190805190602001906112ad929190612250565b5060408201518160020160006101000a81548160ff021916908360038111156112d9576112d86129d2565b5b021790555060608201518160030155505060005b86518160ff1610156114465760ca6000888360ff168151811061131357611312613402565b5b602002602001015173ffffffffffffffffffffffffffffffffffffffff1673ffffffffffffffffffffffffffffffffffffffff16815260200190815260200160002060009054906101000a900460ff166113a2576040517f08c379a000000000000000000000000000000000000000000000000000000000815260040161139990612350565b60405180910390fd5b858160ff16815181106113b8576113b7613402565b5b602002602001015160d2600060d05481526020019081526020016000206000898460ff16815181106113ed576113ec613402565b5b602002602001015173ffffffffffffffffffffffffffffffffffffffff1673ffffffffffffffffffffffffffffffffffffffff16815260200190815260200160002081905550808061143e90613431565b9150506112ed565b508160d3600060d054815260200190815260200160002060008673ffffffffffffffffffffffffffffffffffffffff1673ffffffffffffffffffffffffffffffffffffffff1681526020019081526020016000206000858152602001908152602001600020819055503373ffffffffffffffffffffffffffffffffffffffff167f9c6294f7447d0868630b06cd1a02ec565f3789ee9d9a678adb336842bc4e448360d0548b8b60008c8b60405161150296959493929190613518565b60405180910390a2505050505050505050565b60d360205282600052604060002060205281600052604060002060205280600052604060002060009250925050505481565b60006115536001611dc2565b90508015611577576001600060016101000a81548160ff0219169083151502179055505b60008451905060ff811115801561158e5750600081115b6115cd576040517f08c379a00000000000000000000000000000000000000000000000000000000081526004016115c4906135d3565b60405180910390fd5b60008460ff161180156115e35750808460ff1611155b611622576040517f08c379a00000000000000000000000000000000000000000000000000000000081526004016116199061363f565b60405180910390fd5b61162a611eb2565b611632611f0b565b61163b8361195d565b60005b855181101561187957600073ffffffffffffffffffffffffffffffffffffffff1686828151811061167257611671613402565b5b602002602001015173ffffffffffffffffffffffffffffffffffffffff16036116d0576040517f08c379a00000000000000000000000000000000000000000000000000000000081526004016116c7906136ab565b60405180910390fd5b60ca60008783815181106116e7576116e6613402565b5b602002602001015173ffffffffffffffffffffffffffffffffffffffff1673ffffffffffffffffffffffffffffffffffffffff16815260200190815260200160002060009054906101000a900460ff1615611777576040517f08c379a000000000000000000000000000000000000000000000000000000000815260040161176e90613717565b60405180910390fd5b60c986828151811061178c5761178b613402565b5b60200260200101519080600181540180825580915050600190039060005260206000200160009091909190916101000a81548173ffffffffffffffffffffffffffffffffffffffff021916908373ffffffffffffffffffffffffffffffffffffffff160217905550600160ca600088848151811061180d5761180c613402565b5b602002602001015173ffffffffffffffffffffffffffffffffffffffff1673ffffffffffffffffffffffffffffffffffffffff16815260200190815260200160002060006101000a81548160ff021916908315150217905550808061187190613737565b91505061163e565b508360cb60006101000a81548160ff021916908360ff1602179055503373ffffffffffffffffffffffffffffffffffffffff167fe981d41cfcc707f2fa59586347099614ffa99754751f6000ade1fbd3514ebd4d86866040516118dd929190613878565b60405180910390a250801561193f5760008060016101000a81548160ff0219169083151502179055507f7f26b83ff96e1f2b6a682f133852f6798a09c465da95921460cefb3847402498600160405161193691906138e3565b60405180910390a15b50505050565b60cd6020528060005260406000206000915090505481565b611965611cf4565b73ffffffffffffffffffffffffffffffffffffffff16611983610f7d565b73ffffffffffffffffffffffffffffffffffffffff16146119d9576040517f08c379a00000000000000000000000000000000000000000000000000000000081526004016119d0906132aa565b60405180910390fd5b600073ffffffffffffffffffffffffffffffffffffffff168173ffffffffffffffffffffffffffffffffffffffff1603611a48576040517f08c379a0000000000000000000000000000000000000000000000000000000008152600401611a3f90613970565b60405180910390fd5b611a5181611cfc565b50565b6040518060400160405280600581526020017f302e302e3100000000000000000000000000000000000000000000000000000081525081565b6000808273ffffffffffffffffffffffffffffffffffffffff163b119050919050565b6000611ade7f360894a13ba1a3210667c828492db98dca3e2076cc3735a920a3ca505d382bbc60001b611f5c565b60000160009054906101000a900473ffffffffffffffffffffffffffffffffffffffff16905090565b611b0f611cf4565b73ffffffffffffffffffffffffffffffffffffffff16611b2d610f7d565b73ffffffffffffffffffffffffffffffffffffffff1614611b83576040517f08c379a0000000000000000000000000000000000000000000000000000000008152600401611b7a906132aa565b60405180910390fd5b50565b611bb27f4910fdfa16fed3260ed0e7147f7cc6da11a60208b5b9406d12a635614ffd914360001b611f66565b60000160009054906101000a900460ff1615611bd657611bd183611f70565b611cef565b8273ffffffffffffffffffffffffffffffffffffffff166352d1902d6040518163ffffffff1660e01b8152600401602060405180830381865afa925050508015611c3e57506040513d601f19601f82011682018060405250810190611c3b91906139bc565b60015b611c7d576040517f08c379a0000000000000000000000000000000000000000000000000000000008152600401611c7490613a5b565b60405180910390fd5b7f360894a13ba1a3210667c828492db98dca3e2076cc3735a920a3ca505d382bbc60001b8114611ce2576040517f08c379a0000000000000000000000000000000000000000000000000000000008152600401611cd990613aed565b60405180910390fd5b50611cee838383612029565b5b505050565b600033905090565b6000609760009054906101000a900473ffffffffffffffffffffffffffffffffffffffff16905081609760006101000a81548173ffffffffffffffffffffffffffffffffffffffff021916908373ffffffffffffffffffffffffffffffffffffffff1602179055508173ffffffffffffffffffffffffffffffffffffffff168173ffffffffffffffffffffffffffffffffffffffff167f8be0079c531659141344cd1fd0a4f28419497f9722a3daafe3b4186f6b6457e060405160405180910390a35050565b60008060019054906101000a900460ff1615611e395760018260ff16148015611df15750611def30611a8d565b155b611e30576040517f08c379a0000000000000000000000000000000000000000000000000000000008152600401611e2790613b7f565b60405180910390fd5b60009050611ead565b8160ff1660008054906101000a900460ff1660ff1610611e8e576040517f08c379a0000000000000000000000000000000000000000000000000000000008152600401611e8590613b7f565b60405180910390fd5b816000806101000a81548160ff021916908360ff160217905550600190505b919050565b600060019054906101000a900460ff16611f01576040517f08c379a0000000000000000000000000000000000000000000000000000000008152600401611ef890613c11565b60405180910390fd5b611f09612055565b565b600060019054906101000a900460ff16611f5a576040517f08c379a0000000000000000000000000000000000000000000000000000000008152600401611f5190613c11565b60405180910390fd5b565b6000819050919050565b6000819050919050565b611f7981611a8d565b611fb8576040517f08c379a0000000000000000000000000000000000000000000000000000000008152600401611faf90613ca3565b60405180910390fd5b80611fe57f360894a13ba1a3210667c828492db98dca3e2076cc3735a920a3ca505d382bbc60001b611f5c565b60000160006101000a81548173ffffffffffffffffffffffffffffffffffffffff021916908373ffffffffffffffffffffffffffffffffffffffff16021790555050565b612032836120b6565b60008251118061203f5750805b156120505761204e8383612105565b505b505050565b600060019054906101000a900460ff166120a4576040517f08c379a000000000000000000000000000000000000000000000000000000000815260040161209b90613c11565b60405180910390fd5b6120b46120af611cf4565b611cfc565b565b6120bf81611f70565b8073ffffffffffffffffffffffffffffffffffffffff167fbc7cd75a20ee27fd9adebab32041f755214dbc6bffa90cc0225b39da2e5c2d3b60405160405180910390a250565b606061211083611a8d565b61214f576040517f08c379a000000000000000000000000000000000000000000000000000000000815260040161214690613d35565b60405180910390fd5b6000808473ffffffffffffffffffffffffffffffffffffffff16846040516121779190613d86565b600060405180830381855af49150503d80600081146121b2576040519150601f19603f3d011682016040523d82523d6000602084013e6121b7565b606091505b50915091506121df8282604051806060016040528060278152602001613d9e602791396121e9565b9250505092915050565b606083156121f957829050612249565b60008351111561220c5782518084602001fd5b816040517f08c379a00000000000000000000000000000000000000000000000000000000081526004016122409190612e5c565b60405180910390fd5b9392505050565b82805461225c906132f9565b90600052602060002090601f01602090048101928261227e57600085556122c5565b82601f1061229757805160ff19168380011785556122c5565b828001600101855582156122c5579182015b828111156122c45782518255916020019190600101906122a9565b5b5090506122d291906122d6565b5090565b5b808211156122ef5760008160009055506001016122d7565b5090565b600082825260208201905092915050565b7f6e6f7420616e206f776e65720000000000000000000000000000000000000000600082015250565b600061233a600c836122f3565b915061234582612304565b602082019050919050565b600060208201905081810360008301526123698161232d565b9050919050565b7f76616c7565206571203000000000000000000000000000000000000000000000600082015250565b60006123a6600a836122f3565b91506123b182612370565b602082019050919050565b600060208201905081810360008301526123d581612399565b9050919050565b6000819050919050565b7f4e487b7100000000000000000000000000000000000000000000000000000000600052601160045260246000fd5b6000612420826123dc565b915061242b836123dc565b9250827fffffffffffffffffffffffffffffffffffffffffffffffffffffffffffffffff038211156124605761245f6123e6565b5b828201905092915050565b612474816123dc565b82525050565b600060608201905061248f600083018661246b565b61249c602083018561246b565b6124a9604083018461246b565b949350505050565b6000604051905090565b600080fd5b600080fd5b6124ce816123dc565b81146124d957600080fd5b50565b6000813590506124eb816124c5565b92915050565b600060208284031215612507576125066124bb565b5b6000612515848285016124dc565b91505092915050565b600073ffffffffffffffffffffffffffffffffffffffff82169050919050565b60006125498261251e565b9050919050565b6125598161253e565b82525050565b60006020820190506125746000830184612550565b92915050565b6125838161253e565b811461258e57600080fd5b50565b6000813590506125a08161257a565b92915050565b600080604083850312156125bd576125bc6124bb565b5b60006125cb858286016124dc565b92505060206125dc85828601612591565b9150509250929050565b60006020820190506125fb600083018461246b565b92915050565b600080fd5b600080fd5b6000601f19601f8301169050919050565b7f4e487b7100000000000000000000000000000000000000000000000000000000600052604160045260246000fd5b6126548261260b565b810181811067ffffffffffffffff821117156126735761267261261c565b5b80604052505050565b60006126866124b1565b9050612692828261264b565b919050565b600067ffffffffffffffff8211156126b2576126b161261c565b5b6126bb8261260b565b9050602081019050919050565b82818337600083830152505050565b60006126ea6126e584612697565b61267c565b90508281526020810184848401111561270657612705612606565b5b6127118482856126c8565b509392505050565b600082601f83011261272e5761272d612601565b5b813561273e8482602086016126d7565b91505092915050565b60008060008060808587031215612761576127606124bb565b5b600061276f87828801612591565b945050602061278087828801612591565b9350506040612791878288016124dc565b925050606085013567ffffffffffffffff8111156127b2576127b16124c0565b5b6127be87828801612719565b91505092959194509250565b60007fffffffff0000000000000000000000000000000000000000000000000000000082169050919050565b6127ff816127ca565b82525050565b600060208201905061281a60008301846127f6565b92915050565b600060ff82169050919050565b61283681612820565b82525050565b6000602082019050612851600083018461282d565b92915050565b60006020828403121561286d5761286c6124bb565b5b600061287b84828501612591565b91505092915050565b60008115159050919050565b61289981612884565b82525050565b60006020820190506128b46000830184612890565b92915050565b600080604083850312156128d1576128d06124bb565b5b60006128df85828601612591565b925050602083013567ffffffffffffffff811115612900576128ff6124c0565b5b61290c85828601612719565b9150509250929050565b6000819050919050565b61292981612916565b82525050565b60006020820190506129446000830184612920565b92915050565b600081519050919050565b600082825260208201905092915050565b60005b83811015612984578082015181840152602081019050612969565b83811115612993576000848401525b50505050565b60006129a48261294a565b6129ae8185612955565b93506129be818560208601612966565b6129c78161260b565b840191505092915050565b7f4e487b7100000000000000000000000000000000000000000000000000000000600052602160045260246000fd5b60048110612a1257612a116129d2565b5b50565b6000819050612a2382612a01565b919050565b6000612a3382612a15565b9050919050565b612a4381612a28565b82525050565b6000608082019050612a5e6000830187612550565b8181036020830152612a708186612999565b9050612a7f6040830185612a3a565b612a8c606083018461246b565b95945050505050565b600067ffffffffffffffff821115612ab057612aaf61261c565b5b602082029050602081019050919050565b600080fd5b6000612ad9612ad484612a95565b61267c565b90508083825260208201905060208402830185811115612afc57612afb612ac1565b5b835b81811015612b255780612b118882612591565b845260208401935050602081019050612afe565b5050509392505050565b600082601f830112612b4457612b43612601565b5b8135612b54848260208601612ac6565b91505092915050565b600067ffffffffffffffff821115612b7857612b7761261c565b5b602082029050602081019050919050565b6000612b9c612b9784612b5d565b61267c565b90508083825260208201905060208402830185811115612bbf57612bbe612ac1565b5b835b81811015612be85780612bd488826124dc565b845260208401935050602081019050612bc1565b5050509392505050565b600082601f830112612c0757612c06612601565b5b8135612c17848260208601612b89565b91505092915050565b600080600080600080600080610100898b031215612c4157612c406124bb565b5b6000612c4f8b828c01612591565b985050602089013567ffffffffffffffff811115612c7057612c6f6124c0565b5b612c7c8b828c01612719565b9750506040612c8d8b828c016124dc565b965050606089013567ffffffffffffffff811115612cae57612cad6124c0565b5b612cba8b828c01612b2f565b955050608089013567ffffffffffffffff811115612cdb57612cda6124c0565b5b612ce78b828c01612bf2565b94505060a0612cf88b828c01612591565b93505060c0612d098b828c016124dc565b92505060e0612d1a8b828c016124dc565b9150509295985092959890939650565b600080600060608486031215612d4357612d426124bb565b5b6000612d51868287016124dc565b9350506020612d6286828701612591565b9250506040612d73868287016124dc565b9150509250925092565b612d8681612820565b8114612d9157600080fd5b50565b600081359050612da381612d7d565b92915050565b600080600060608486031215612dc257612dc16124bb565b5b600084013567ffffffffffffffff811115612de057612ddf6124c0565b5b612dec86828701612b2f565b9350506020612dfd86828701612d94565b9250506040612e0e86828701612591565b9150509250925092565b600081519050919050565b6000612e2e82612e18565b612e3881856122f3565b9350612e48818560208601612966565b612e518161260b565b840191505092915050565b60006020820190508181036000830152612e768184612e23565b905092915050565b7f62616c616e636520657120300000000000000000000000000000000000000000600082015250565b6000612eb4600c836122f3565b9150612ebf82612e7e565b602082019050919050565b60006020820190508181036000830152612ee381612ea7565b9050919050565b7f616d6f756e742065712030000000000000000000000000000000000000000000600082015250565b6000612f20600b836122f3565b9150612f2b82612eea565b602082019050919050565b60006020820190508181036000830152612f4f81612f13565b9050919050565b7f746f6f2062696720616d6f756e74000000000000000000000000000000000000600082015250565b6000612f8c600e836122f3565b9150612f9782612f56565b602082019050919050565b60006020820190508181036000830152612fbb81612f7f565b9050919050565b6000612fcd826123dc565b9150612fd8836123dc565b925082821015612feb57612fea6123e6565b5b828203905092915050565b600081905092915050565b50565b6000613011600083612ff6565b915061301c82613001565b600082019050919050565b600061303282613004565b9150819050919050565b7f7472616e73616374696f6e206661696c65640000000000000000000000000000600082015250565b60006130726012836122f3565b915061307d8261303c565b602082019050919050565b600060208201905081810360008301526130a181613065565b9050919050565b7f46756e6374696f6e206d7573742062652063616c6c6564207468726f7567682060008201527f64656c656761746563616c6c0000000000000000000000000000000000000000602082015250565b6000613104602c836122f3565b915061310f826130a8565b604082019050919050565b60006020820190508181036000830152613133816130f7565b9050919050565b7f46756e6374696f6e206d7573742062652063616c6c6564207468726f7567682060008201527f6163746976652070726f78790000000000000000000000000000000000000000602082015250565b6000613196602c836122f3565b91506131a18261313a565b604082019050919050565b600060208201905081810360008301526131c581613189565b9050919050565b7f555550535570677261646561626c653a206d757374206e6f742062652063616c60008201527f6c6564207468726f7567682064656c656761746563616c6c0000000000000000602082015250565b60006132286038836122f3565b9150613233826131cc565b604082019050919050565b600060208201905081810360008301526132578161321b565b9050919050565b7f4f776e61626c653a2063616c6c6572206973206e6f7420746865206f776e6572600082015250565b60006132946020836122f3565b915061329f8261325e565b602082019050919050565b600060208201905081810360008301526132c381613287565b9050919050565b7f4e487b7100000000000000000000000000000000000000000000000000000000600052602260045260246000fd5b6000600282049050600182168061331157607f821691505b602082108103613324576133236132ca565b5b50919050565b7f6f776e6572732072657175697265640000000000000000000000000000000000600082015250565b6000613360600f836122f3565b915061336b8261332a565b602082019050919050565b6000602082019050818103600083015261338f81613353565b9050919050565b7f6c656e677468206d69736d617463680000000000000000000000000000000000600082015250565b60006133cc600f836122f3565b91506133d782613396565b602082019050919050565b600060208201905081810360008301526133fb816133bf565b9050919050565b7f4e487b7100000000000000000000000000000000000000000000000000000000600052603260045260246000fd5b600061343c82612820565b915060ff820361344f5761344e6123e6565b5b600182019050919050565b600081519050919050565b600082825260208201905092915050565b6000819050602082019050919050565b61348f816123dc565b82525050565b60006134a18383613486565b60208301905092915050565b6000602082019050919050565b60006134c58261345a565b6134cf8185613465565b93506134da83613476565b8060005b8381101561350b5781516134f28882613495565b97506134fd836134ad565b9250506001810190506134de565b5085935050505092915050565b600060c08201905061352d600083018961246b565b61353a6020830188612550565b818103604083015261354c8187612999565b905061355b6060830186612a3a565b613568608083018561246b565b81810360a083015261357a81846134ba565b9050979650505050505050565b7f5f6f776e6572732e6c656e6774682077726f6e67000000000000000000000000600082015250565b60006135bd6014836122f3565b91506135c882613587565b602082019050919050565b600060208201905081810360008301526135ec816135b0565b9050919050565b7f696e76616c696420636f6e6669726d6174696f6e206e756d6265720000000000600082015250565b6000613629601b836122f3565b9150613634826135f3565b602082019050919050565b600060208201905081810360008301526136588161361c565b9050919050565b7f6f776e6572206973206164647265737328302900000000000000000000000000600082015250565b60006136956013836122f3565b91506136a08261365f565b602082019050919050565b600060208201905081810360008301526136c481613688565b9050919050565b7f6f776e657220697320616c7265616479206c6973746564000000000000000000600082015250565b60006137016017836122f3565b915061370c826136cb565b602082019050919050565b60006020820190508181036000830152613730816136f4565b9050919050565b6000613742826123dc565b91507fffffffffffffffffffffffffffffffffffffffffffffffffffffffffffffffff8203613774576137736123e6565b5b600182019050919050565b600081519050919050565b600082825260208201905092915050565b6000819050602082019050919050565b6137b48161253e565b82525050565b60006137c683836137ab565b60208301905092915050565b6000602082019050919050565b60006137ea8261377f565b6137f4818561378a565b93506137ff8361379b565b8060005b8381101561383057815161381788826137ba565b9750613822836137d2565b925050600181019050613803565b5085935050505092915050565b6000819050919050565b600061386261385d61385884612820565b61383d565b6123dc565b9050919050565b61387281613847565b82525050565b6000604082019050818103600083015261389281856137df565b90506138a16020830184613869565b9392505050565b6000819050919050565b60006138cd6138c86138c3846138a8565b61383d565b612820565b9050919050565b6138dd816138b2565b82525050565b60006020820190506138f860008301846138d4565b92915050565b7f4f776e61626c653a206e6577206f776e657220697320746865207a65726f206160008201527f6464726573730000000000000000000000000000000000000000000000000000602082015250565b600061395a6026836122f3565b9150613965826138fe565b604082019050919050565b600060208201905081810360008301526139898161394d565b9050919050565b61399981612916565b81146139a457600080fd5b50565b6000815190506139b681613990565b92915050565b6000602082840312156139d2576139d16124bb565b5b60006139e0848285016139a7565b91505092915050565b7f45524331393637557067726164653a206e657720696d706c656d656e7461746960008201527f6f6e206973206e6f742055555053000000000000000000000000000000000000602082015250565b6000613a45602e836122f3565b9150613a50826139e9565b604082019050919050565b60006020820190508181036000830152613a7481613a38565b9050919050565b7f45524331393637557067726164653a20756e737570706f727465642070726f7860008201527f6961626c65555549440000000000000000000000000000000000000000000000602082015250565b6000613ad76029836122f3565b9150613ae282613a7b565b604082019050919050565b60006020820190508181036000830152613b0681613aca565b9050919050565b7f496e697469616c697a61626c653a20636f6e747261637420697320616c72656160008201527f647920696e697469616c697a6564000000000000000000000000000000000000602082015250565b6000613b69602e836122f3565b9150613b7482613b0d565b604082019050919050565b60006020820190508181036000830152613b9881613b5c565b9050919050565b7f496e697469616c697a61626c653a20636f6e7472616374206973206e6f74206960008201527f6e697469616c697a696e67000000000000000000000000000000000000000000602082015250565b6000613bfb602b836122f3565b9150613c0682613b9f565b604082019050919050565b60006020820190508181036000830152613c2a81613bee565b9050919050565b7f455243313936373a206e657720696d706c656d656e746174696f6e206973206e60008201527f6f74206120636f6e747261637400000000000000000000000000000000000000602082015250565b6000613c8d602d836122f3565b9150613c9882613c31565b604082019050919050565b60006020820190508181036000830152613cbc81613c80565b9050919050565b7f416464726573733a2064656c65676174652063616c6c20746f206e6f6e2d636f60008201527f6e74726163740000000000000000000000000000000000000000000000000000602082015250565b6000613d1f6026836122f3565b9150613d2a82613cc3565b604082019050919050565b60006020820190508181036000830152613d4e81613d12565b9050919050565b6000613d608261294a565b613d6a8185612ff6565b9350613d7a818560208601612966565b80840191505092915050565b6000613d928284613d55565b91508190509291505056fe416464726573733a206c6f772d6c6576656c2064656c65676174652063616c6c206661696c6564a26469706673582212202d9071785a6120f127e4b663e7fae6abcd27c0bf538bd7102f17ba55ef12c9b964736f6c634300080d0033",
  "linkReferences": {},
  "deployedLinkReferences": {}
}