{
  "_format": "hh-sol-artifact-1",
  "contractName": "CommownSWProxyFactory",
  "sourceName": "contracts/CommownSWProxyFactory.sol",
  "abi": [
    {
      "inputs": [],
      "stateMutability": "nonpayable",
      "type": "constructor"
    },
    {
      "anonymous": false,
      "inputs": [
        {
          "indexed": true,
          "internalType": "address",
          "name": "adrs",
          "type": "address"
        },
        {
          "indexed": false,
          "internalType": "address[]",
          "name": "owners",
          "type": "address[]"
        }
      ],
      "name": "ProxyCreated",
      "type": "event"
    },
    {
      "inputs": [
        {
          "internalType": "address",
          "name": "",
          "type": "address"
        },
        {
          "internalType": "uint256",
          "name": "",
          "type": "uint256"
        }
      ],
      "name": "commownProxiesPerUser",
      "outputs": [
        {
          "internalType": "address",
          "name": "",
          "type": "address"
        }
      ],
      "stateMutability": "view",
      "type": "function"
    },
    {
      "inputs": [
        {
          "internalType": "address[]",
          "name": "_owners",
          "type": "address[]"
        },
        {
          "internalType": "uint8",
          "name": "_confirmationNeeded",
          "type": "uint8"
        }
      ],
      "name": "createProxy",
      "outputs": [
        {
          "internalType": "address",
          "name": "",
          "type": "address"
        }
      ],
      "stateMutability": "nonpayable",
      "type": "function"
    },
    {
      "inputs": [],
      "name": "logic",
      "outputs": [
        {
          "internalType": "address",
          "name": "",
          "type": "address"
        }
      ],
      "stateMutability": "view",
      "type": "function"
    },
    {
      "inputs": [
        {
          "internalType": "address",
          "name": "",
          "type": "address"
        }
      ],
      "name": "nbProxiesPerUser",
      "outputs": [
        {
          "internalType": "uint256",
          "name": "",
          "type": "uint256"
        }
      ],
      "stateMutability": "view",
      "type": "function"
    },
    {
      "inputs": [
        {
          "internalType": "uint256",
          "name": "",
          "type": "uint256"
        }
      ],
      "name": "proxiesList",
      "outputs": [
        {
          "internalType": "address",
          "name": "",
          "type": "address"
        }
      ],
      "stateMutability": "view",
      "type": "function"
    }
  ],
  "bytecode": "0x60a060405234801561001057600080fd5b5060405161001d90610072565b604051809103906000f080158015610039573d6000803e3d6000fd5b5073ffffffffffffffffffffffffffffffffffffffff1660808173ffffffffffffffffffffffffffffffffffffffff168152505061007f565b61407e80611a5883390190565b6080516119b76100a16000396000818161020901526104f101526119b76000f3fe60806040523480156200001157600080fd5b50600436106200005e5760003560e01c8063404addee1462000063578063878dd62b1462000099578063adec742d14620000cf578063c55e8db11462000105578063d7dfa0dd146200013b575b600080fd5b6200008160048036038101906200007b9190620005d5565b6200015d565b6040516200009091906200062d565b60405180910390f35b620000b76004803603810190620000b191906200064a565b620001ac565b604051620000c691906200068d565b60405180910390f35b620000ed6004803603810190620000e79190620006aa565b620001c4565b604051620000fc91906200062d565b60405180910390f35b6200012360048036038101906200011d91906200088f565b62000204565b6040516200013291906200062d565b60405180910390f35b62000145620004ef565b6040516200015491906200062d565b60405180910390f35b600060205281600052604060002081815481106200017a57600080fd5b906000526020600020016000915091509054906101000a900473ffffffffffffffffffffffffffffffffffffffff1681565b60016020528060005260406000206000915090505481565b60028181548110620001d557600080fd5b906000526020600020016000915054906101000a900473ffffffffffffffffffffffffffffffffffffffff1681565b6000807f0000000000000000000000000000000000000000000000000000000000000000632bbdea4e60e01b858560405160240162000245929190620009d4565b604051602081830303815290604052907bffffffffffffffffffffffffffffffffffffffffffffffffffffffff19166020820180517bffffffffffffffffffffffffffffffffffffffffffffffffffffffff8381831617835250505050604051620002b09062000513565b620002bd92919062000a9b565b604051809103906000f080158015620002da573d6000803e3d6000fd5b5090506002819080600181540180825580915050600190039060005260206000200160009091909190916101000a81548173ffffffffffffffffffffffffffffffffffffffff021916908373ffffffffffffffffffffffffffffffffffffffff16021790555060005b8451811015620004945760008086838151811062000366576200036562000acf565b5b602002602001015173ffffffffffffffffffffffffffffffffffffffff1673ffffffffffffffffffffffffffffffffffffffff168152602001908152602001600020829080600181540180825580915050600190039060005260206000200160009091909190916101000a81548173ffffffffffffffffffffffffffffffffffffffff021916908373ffffffffffffffffffffffffffffffffffffffff160217905550600180600087848151811062000424576200042362000acf565b5b602002602001015173ffffffffffffffffffffffffffffffffffffffff1673ffffffffffffffffffffffffffffffffffffffff168152602001908152602001600020600082825462000477919062000b2d565b9250508190555080806200048b9062000b8a565b91505062000343565b508073ffffffffffffffffffffffffffffffffffffffff167ffde274332a06d15775f8305f98b1665142facc59b7aa826609980b4e2a0c9aff85604051620004dd919062000bd7565b60405180910390a28091505092915050565b7f000000000000000000000000000000000000000000000000000000000000000081565b610d868062000bfc83390190565b6000604051905090565b600080fd5b600080fd5b600073ffffffffffffffffffffffffffffffffffffffff82169050919050565b6000620005628262000535565b9050919050565b620005748162000555565b81146200058057600080fd5b50565b600081359050620005948162000569565b92915050565b6000819050919050565b620005af816200059a565b8114620005bb57600080fd5b50565b600081359050620005cf81620005a4565b92915050565b60008060408385031215620005ef57620005ee6200052b565b5b6000620005ff8582860162000583565b92505060206200061285828601620005be565b9150509250929050565b620006278162000555565b82525050565b60006020820190506200064460008301846200061c565b92915050565b6000602082840312156200066357620006626200052b565b5b6000620006738482850162000583565b91505092915050565b62000687816200059a565b82525050565b6000602082019050620006a460008301846200067c565b92915050565b600060208284031215620006c357620006c26200052b565b5b6000620006d384828501620005be565b91505092915050565b600080fd5b6000601f19601f8301169050919050565b7f4e487b7100000000000000000000000000000000000000000000000000000000600052604160045260246000fd5b6200072c82620006e1565b810181811067ffffffffffffffff821117156200074e576200074d620006f2565b5b80604052505050565b60006200076362000521565b905062000771828262000721565b919050565b600067ffffffffffffffff821115620007945762000793620006f2565b5b602082029050602081019050919050565b600080fd5b6000620007c1620007bb8462000776565b62000757565b90508083825260208201905060208402830185811115620007e757620007e6620007a5565b5b835b81811015620008145780620007ff888262000583565b845260208401935050602081019050620007e9565b5050509392505050565b600082601f830112620008365762000835620006dc565b5b813562000848848260208601620007aa565b91505092915050565b600060ff82169050919050565b620008698162000851565b81146200087557600080fd5b50565b60008135905062000889816200085e565b92915050565b60008060408385031215620008a957620008a86200052b565b5b600083013567ffffffffffffffff811115620008ca57620008c962000530565b5b620008d8858286016200081e565b9250506020620008eb8582860162000878565b9150509250929050565b600081519050919050565b600082825260208201905092915050565b6000819050602082019050919050565b6200092c8162000555565b82525050565b600062000940838362000921565b60208301905092915050565b6000602082019050919050565b60006200096682620008f5565b62000972818562000900565b93506200097f8362000911565b8060005b83811015620009b65781516200099a888262000932565b9750620009a7836200094c565b92505060018101905062000983565b5085935050505092915050565b620009ce8162000851565b82525050565b60006040820190508181036000830152620009f0818562000959565b905062000a016020830184620009c3565b9392505050565b600081519050919050565b600082825260208201905092915050565b60005b8381101562000a4457808201518184015260208101905062000a27565b8381111562000a54576000848401525b50505050565b600062000a678262000a08565b62000a73818562000a13565b935062000a8581856020860162000a24565b62000a9081620006e1565b840191505092915050565b600060408201905062000ab260008301856200061c565b818103602083015262000ac6818462000a5a565b90509392505050565b7f4e487b7100000000000000000000000000000000000000000000000000000000600052603260045260246000fd5b7f4e487b7100000000000000000000000000000000000000000000000000000000600052601160045260246000fd5b600062000b3a826200059a565b915062000b47836200059a565b9250827fffffffffffffffffffffffffffffffffffffffffffffffffffffffffffffffff0382111562000b7f5762000b7e62000afe565b5b828201905092915050565b600062000b97826200059a565b91507fffffffffffffffffffffffffffffffffffffffffffffffffffffffffffffffff820362000bcc5762000bcb62000afe565b5b600182019050919050565b6000602082019050818103600083015262000bf3818462000959565b90509291505056fe608060405260405162000d8638038062000d868339818101604052810190620000299190620005d4565b60017f360894a13ba1a3210667c828492db98dca3e2076cc3735a920a3ca505d382bbd60001c6200005b919062000673565b60001b7f360894a13ba1a3210667c828492db98dca3e2076cc3735a920a3ca505d382bbc60001b14620000935762000092620006ae565b5b620000a782826000620000af60201b60201c565b5050620008f4565b620000c083620000f260201b60201c565b600082511180620000ce5750805b15620000ed57620000eb83836200014960201b620000371760201c565b505b505050565b62000103816200017f60201b60201c565b8073ffffffffffffffffffffffffffffffffffffffff167fbc7cd75a20ee27fd9adebab32041f755214dbc6bffa90cc0225b39da2e5c2d3b60405160405180910390a250565b606062000177838360405180606001604052806027815260200162000d5f602791396200025560201b60201c565b905092915050565b62000195816200033960201b620000641760201c565b620001d7576040517f08c379a0000000000000000000000000000000000000000000000000000000008152600401620001ce9062000764565b60405180910390fd5b80620002117f360894a13ba1a3210667c828492db98dca3e2076cc3735a920a3ca505d382bbc60001b6200035c60201b620000871760201c565b60000160006101000a81548173ffffffffffffffffffffffffffffffffffffffff021916908373ffffffffffffffffffffffffffffffffffffffff16021790555050565b606062000268846200033960201b60201c565b620002aa576040517f08c379a0000000000000000000000000000000000000000000000000000000008152600401620002a190620007fc565b60405180910390fd5b6000808573ffffffffffffffffffffffffffffffffffffffff1685604051620002d491906200086b565b600060405180830381855af49150503d806000811462000311576040519150601f19603f3d011682016040523d82523d6000602084013e62000316565b606091505b50915091506200032e8282866200036660201b60201c565b925050509392505050565b6000808273ffffffffffffffffffffffffffffffffffffffff163b119050919050565b6000819050919050565b606083156200037857829050620003cb565b6000835111156200038c5782518084602001fd5b816040517f08c379a0000000000000000000000000000000000000000000000000000000008152600401620003c29190620008d0565b60405180910390fd5b9392505050565b6000604051905090565b600080fd5b600080fd5b600073ffffffffffffffffffffffffffffffffffffffff82169050919050565b60006200041382620003e6565b9050919050565b620004258162000406565b81146200043157600080fd5b50565b60008151905062000445816200041a565b92915050565b600080fd5b600080fd5b6000601f19601f8301169050919050565b7f4e487b7100000000000000000000000000000000000000000000000000000000600052604160045260246000fd5b620004a08262000455565b810181811067ffffffffffffffff82111715620004c257620004c162000466565b5b80604052505050565b6000620004d7620003d2565b9050620004e5828262000495565b919050565b600067ffffffffffffffff82111562000508576200050762000466565b5b620005138262000455565b9050602081019050919050565b60005b838110156200054057808201518184015260208101905062000523565b8381111562000550576000848401525b50505050565b60006200056d6200056784620004ea565b620004cb565b9050828152602081018484840111156200058c576200058b62000450565b5b6200059984828562000520565b509392505050565b600082601f830112620005b957620005b86200044b565b5b8151620005cb84826020860162000556565b91505092915050565b60008060408385031215620005ee57620005ed620003dc565b5b6000620005fe8582860162000434565b925050602083015167ffffffffffffffff811115620006225762000621620003e1565b5b6200063085828601620005a1565b9150509250929050565b6000819050919050565b7f4e487b7100000000000000000000000000000000000000000000000000000000600052601160045260246000fd5b600062000680826200063a565b91506200068d836200063a565b925082821015620006a357620006a262000644565b5b828203905092915050565b7f4e487b7100000000000000000000000000000000000000000000000000000000600052600160045260246000fd5b600082825260208201905092915050565b7f455243313936373a206e657720696d706c656d656e746174696f6e206973206e60008201527f6f74206120636f6e747261637400000000000000000000000000000000000000602082015250565b60006200074c602d83620006dd565b91506200075982620006ee565b604082019050919050565b600060208201905081810360008301526200077f816200073d565b9050919050565b7f416464726573733a2064656c65676174652063616c6c20746f206e6f6e2d636f60008201527f6e74726163740000000000000000000000000000000000000000000000000000602082015250565b6000620007e4602683620006dd565b9150620007f18262000786565b604082019050919050565b600060208201905081810360008301526200081781620007d5565b9050919050565b600081519050919050565b600081905092915050565b600062000841826200081e565b6200084d818562000829565b93506200085f81856020860162000520565b80840191505092915050565b600062000879828462000834565b915081905092915050565b600081519050919050565b60006200089c8262000884565b620008a88185620006dd565b9350620008ba81856020860162000520565b620008c58162000455565b840191505092915050565b60006020820190508181036000830152620008ec81846200088f565b905092915050565b61045b80620009046000396000f3fe6080604052366100135761001161001d565b005b61001b61001d565b005b610025610091565b610035610030610093565b6100a2565b565b606061005c83836040518060600160405280602781526020016103ff602791396100c8565b905092915050565b6000808273ffffffffffffffffffffffffffffffffffffffff163b119050919050565b6000819050919050565b565b600061009d610195565b905090565b3660008037600080366000845af43d6000803e80600081146100c3573d6000f35b3d6000fd5b60606100d384610064565b610112576040517f08c379a0000000000000000000000000000000000000000000000000000000008152600401610109906102d6565b60405180910390fd5b6000808573ffffffffffffffffffffffffffffffffffffffff168560405161013a9190610370565b600060405180830381855af49150503d8060008114610175576040519150601f19603f3d011682016040523d82523d6000602084013e61017a565b606091505b509150915061018a8282866101ec565b925050509392505050565b60006101c37f360894a13ba1a3210667c828492db98dca3e2076cc3735a920a3ca505d382bbc60001b610087565b60000160009054906101000a900473ffffffffffffffffffffffffffffffffffffffff16905090565b606083156101fc5782905061024c565b60008351111561020f5782518084602001fd5b816040517f08c379a000000000000000000000000000000000000000000000000000000000815260040161024391906103dc565b60405180910390fd5b9392505050565b600082825260208201905092915050565b7f416464726573733a2064656c65676174652063616c6c20746f206e6f6e2d636f60008201527f6e74726163740000000000000000000000000000000000000000000000000000602082015250565b60006102c0602683610253565b91506102cb82610264565b604082019050919050565b600060208201905081810360008301526102ef816102b3565b9050919050565b600081519050919050565b600081905092915050565b60005b8381101561032a57808201518184015260208101905061030f565b83811115610339576000848401525b50505050565b600061034a826102f6565b6103548185610301565b935061036481856020860161030c565b80840191505092915050565b600061037c828461033f565b915081905092915050565b600081519050919050565b6000601f19601f8301169050919050565b60006103ae82610387565b6103b88185610253565b93506103c881856020860161030c565b6103d181610392565b840191505092915050565b600060208201905081810360008301526103f681846103a3565b90509291505056fe416464726573733a206c6f772d6c6576656c2064656c65676174652063616c6c206661696c6564a2646970667358221220e7ad0133b9d7b8ba046931d6e493290054d3bb31bdb06986a7c5cff55b817b7c64736f6c634300080d0033416464726573733a206c6f772d6c6576656c2064656c65676174652063616c6c206661696c6564a2646970667358221220a76d2687d3d3f66352e054b9ddc9c2e166a30fe658a754b27f68fce1d30017ec64736f6c634300080d003360a06040523073ffffffffffffffffffffffffffffffffffffffff1660809073ffffffffffffffffffffffffffffffffffffffff168152503480156200004457600080fd5b506000620000596001620000e160201b60201c565b905080156200007e576001600060016101000a81548160ff0219169083151502179055505b8015620000da5760008060016101000a81548160ff0219169083151502179055507f7f26b83ff96e1f2b6a682f133852f6798a09c465da95921460cefb38474024986001604051620000d1919062000264565b60405180910390a15b506200032a565b60008060019054906101000a900460ff16156200016b5760018260ff161480156200011f57506200011d30620001e760201b62001a2e1760201c565b155b62000161576040517f08c379a0000000000000000000000000000000000000000000000000000000008152600401620001589062000308565b60405180910390fd5b60009050620001e2565b8160ff1660008054906101000a900460ff1660ff1610620001c3576040517f08c379a0000000000000000000000000000000000000000000000000000000008152600401620001ba9062000308565b60405180910390fd5b816000806101000a81548160ff021916908360ff160217905550600190505b919050565b6000808273ffffffffffffffffffffffffffffffffffffffff163b119050919050565b6000819050919050565b600060ff82169050919050565b6000819050919050565b60006200024c6200024662000240846200020a565b62000221565b62000214565b9050919050565b6200025e816200022b565b82525050565b60006020820190506200027b600083018462000253565b92915050565b600082825260208201905092915050565b7f496e697469616c697a61626c653a20636f6e747261637420697320616c72656160008201527f647920696e697469616c697a6564000000000000000000000000000000000000602082015250565b6000620002f0602e8362000281565b9150620002fd8262000292565b604082019050919050565b600060208201905081810360008301526200032381620002e1565b9050919050565b608051613d1c6200036260003960008181610eeb01528181610f79015281816110a80152818161113601526111e60152613d1c6000f3fe60806040526004361061012e5760003560e01c80634f1ef286116100ab5780639f6375d71161006f5780639f6375d7146105bc578063a404e031146105f9578063ea9ce58a14610622578063ee98fc721461065f578063f2fde38b1461069c578063ffa1ad74146106c5576102ec565b80634f1ef286146104f357806352d1902d1461050f578063715018a61461053a5780638da5cb5b146105515780638fe371d21461057c576102ec565b80632e1a7d4d116100f25780632e1a7d4d146103fc5780632f54bf6e146104255780633659cfe6146104625780633e6d21fa1461048b5780634cf0a479146104c8576102ec565b8063025e7c27146102f15780630be6aa5d1461032e578063150b7a021461036b5780632b9a9f50146103a85780632bbdea4e146103d3576102ec565b366102ec573360ca60008273ffffffffffffffffffffffffffffffffffffffff1673ffffffffffffffffffffffffffffffffffffffff16815260200190815260200160002060009054906101000a900460ff166101c0576040517f08c379a00000000000000000000000000000000000000000000000000000000081526004016101b7906122f1565b60405180910390fd5b60003411610203576040517f08c379a00000000000000000000000000000000000000000000000000000000081526004016101fa9061235d565b60405180910390fd5b3460cd60003373ffffffffffffffffffffffffffffffffffffffff1673ffffffffffffffffffffffffffffffffffffffff168152602001908152602001600020600082825461025291906123b6565b925050819055503373ffffffffffffffffffffffffffffffffffffffff167f36af321ec8d3c75236829c5317affd40ddb308863a1236d2d277a4025cccee1e3460cd60003373ffffffffffffffffffffffffffffffffffffffff1673ffffffffffffffffffffffffffffffffffffffff16815260200190815260200160002054476040516102e29392919061241b565b60405180910390a2005b600080fd5b3480156102fd57600080fd5b5061031860048036038101906103139190612492565b6106f0565b6040516103259190612500565b60405180910390f35b34801561033a57600080fd5b5061035560048036038101906103509190612547565b61072f565b6040516103629190612587565b60405180910390f35b34801561037757600080fd5b50610392600480360381019061038d91906126e8565b610754565b60405161039f91906127a6565b60405180910390f35b3480156103b457600080fd5b506103bd610768565b6040516103ca91906127dd565b60405180910390f35b3480156103df57600080fd5b506103fa60048036038101906103f591906128ec565b61077b565b005b34801561040857600080fd5b50610423600480360381019061041e9190612492565b610b5d565b005b34801561043157600080fd5b5061044c60048036038101906104479190612948565b610ec9565b6040516104599190612990565b60405180910390f35b34801561046e57600080fd5b5061048960048036038101906104849190612948565b610ee9565b005b34801561049757600080fd5b506104b260048036038101906104ad9190612547565b611071565b6040516104bf9190612990565b60405180910390f35b3480156104d457600080fd5b506104dd6110a0565b6040516104ea9190612587565b60405180910390f35b61050d600480360381019061050891906129ab565b6110a6565b005b34801561051b57600080fd5b506105246111e2565b6040516105319190612a20565b60405180910390f35b34801561054657600080fd5b5061054f61129b565b005b34801561055d57600080fd5b50610566611323565b6040516105739190612500565b60405180910390f35b34801561058857600080fd5b506105a3600480360381019061059e9190612492565b61134d565b6040516105b39493929190612b3a565b60405180910390f35b3480156105c857600080fd5b506105e360048036038101906105de9190612948565b611442565b6040516105f09190612587565b60405180910390f35b34801561060557600080fd5b50610620600480360381019061061b9190612c49565b61145a565b005b34801561062e57600080fd5b5061064960048036038101906106449190612d53565b6118b4565b6040516106569190612587565b60405180910390f35b34801561066b57600080fd5b5061068660048036038101906106819190612948565b6118e6565b6040516106939190612587565b60405180910390f35b3480156106a857600080fd5b506106c360048036038101906106be9190612948565b6118fe565b005b3480156106d157600080fd5b506106da6119f5565b6040516106e79190612dea565b60405180910390f35b60c9818154811061070057600080fd5b906000526020600020016000915054906101000a900473ffffffffffffffffffffffffffffffffffffffff1681565b60d1602052816000526040600020602052806000526040600020600091509150505481565b600063150b7a0260e01b9050949350505050565b60cb60009054906101000a900460ff1681565b60006107876001611a51565b905080156107ab576001600060016101000a81548160ff0219169083151502179055505b60008351116107ef576040517f08c379a00000000000000000000000000000000000000000000000000000000081526004016107e690612e58565b60405180910390fd5b60008260ff16118015610806575082518260ff1611155b610845576040517f08c379a000000000000000000000000000000000000000000000000000000000815260040161083c90612ec4565b60405180910390fd5b61084d611b41565b610855611b9a565b60005b8351811015610a9357600073ffffffffffffffffffffffffffffffffffffffff1684828151811061088c5761088b612ee4565b5b602002602001015173ffffffffffffffffffffffffffffffffffffffff16036108ea576040517f08c379a00000000000000000000000000000000000000000000000000000000081526004016108e190612f5f565b60405180910390fd5b60ca600085838151811061090157610900612ee4565b5b602002602001015173ffffffffffffffffffffffffffffffffffffffff1673ffffffffffffffffffffffffffffffffffffffff16815260200190815260200160002060009054906101000a900460ff1615610991576040517f08c379a000000000000000000000000000000000000000000000000000000000815260040161098890612fcb565b60405180910390fd5b60c98482815181106109a6576109a5612ee4565b5b60200260200101519080600181540180825580915050600190039060005260206000200160009091909190916101000a81548173ffffffffffffffffffffffffffffffffffffffff021916908373ffffffffffffffffffffffffffffffffffffffff160217905550600160ca6000868481518110610a2757610a26612ee4565b5b602002602001015173ffffffffffffffffffffffffffffffffffffffff1673ffffffffffffffffffffffffffffffffffffffff16815260200190815260200160002060006101000a81548160ff0219169083151502179055508080610a8b90612feb565b915050610858565b508160cb60006101000a81548160ff021916908360ff1602179055503373ffffffffffffffffffffffffffffffffffffffff167fe981d41cfcc707f2fa59586347099614ffa99754751f6000ade1fbd3514ebd4d8484604051610af792919061312c565b60405180910390a28015610b585760008060016101000a81548160ff0219169083151502179055507f7f26b83ff96e1f2b6a682f133852f6798a09c465da95921460cefb38474024986001604051610b4f9190613197565b60405180910390a15b505050565b3360ca60008273ffffffffffffffffffffffffffffffffffffffff1673ffffffffffffffffffffffffffffffffffffffff16815260200190815260200160002060009054906101000a900460ff16610bea576040517f08c379a0000000000000000000000000000000000000000000000000000000008152600401610be1906122f1565b60405180910390fd5b600060cd60003373ffffffffffffffffffffffffffffffffffffffff1673ffffffffffffffffffffffffffffffffffffffff1681526020019081526020016000205411610c6c576040517f08c379a0000000000000000000000000000000000000000000000000000000008152600401610c63906131fe565b60405180910390fd5b60008211610caf576040517f08c379a0000000000000000000000000000000000000000000000000000000008152600401610ca69061326a565b60405180910390fd5b60cd60003373ffffffffffffffffffffffffffffffffffffffff1673ffffffffffffffffffffffffffffffffffffffff16815260200190815260200160002054821115610d31576040517f08c379a0000000000000000000000000000000000000000000000000000000008152600401610d28906132d6565b60405180910390fd5b8160cd60003373ffffffffffffffffffffffffffffffffffffffff1673ffffffffffffffffffffffffffffffffffffffff1681526020019081526020016000206000828254610d8091906132f6565b9250508190555060003373ffffffffffffffffffffffffffffffffffffffff1683604051610dad9061335b565b60006040518083038185875af1925050503d8060008114610dea576040519150601f19603f3d011682016040523d82523d6000602084013e610def565b606091505b5050905080610e33576040517f08c379a0000000000000000000000000000000000000000000000000000000008152600401610e2a906133bc565b60405180910390fd5b3373ffffffffffffffffffffffffffffffffffffffff167f02f25270a4d87bea75db541cdfe559334a275b4a233520ed6c0a2429667cca948460cd60003373ffffffffffffffffffffffffffffffffffffffff1673ffffffffffffffffffffffffffffffffffffffff1681526020019081526020016000205447604051610ebc9392919061241b565b60405180910390a2505050565b60ca6020528060005260406000206000915054906101000a900460ff1681565b7f000000000000000000000000000000000000000000000000000000000000000073ffffffffffffffffffffffffffffffffffffffff163073ffffffffffffffffffffffffffffffffffffffff1603610f77576040517f08c379a0000000000000000000000000000000000000000000000000000000008152600401610f6e9061344e565b60405180910390fd5b7f000000000000000000000000000000000000000000000000000000000000000073ffffffffffffffffffffffffffffffffffffffff16610fb6611beb565b73ffffffffffffffffffffffffffffffffffffffff161461100c576040517f08c379a0000000000000000000000000000000000000000000000000000000008152600401611003906134e0565b60405180910390fd5b61101581611c42565b61106e81600067ffffffffffffffff811115611034576110336125bd565b5b6040519080825280601f01601f1916602001820160405280156110665781602001600182028036833780820191505090505b506000611cc1565b50565b60d06020528160005260406000206020528060005260406000206000915091509054906101000a900460ff1681565b60cc5481565b7f000000000000000000000000000000000000000000000000000000000000000073ffffffffffffffffffffffffffffffffffffffff163073ffffffffffffffffffffffffffffffffffffffff1603611134576040517f08c379a000000000000000000000000000000000000000000000000000000000815260040161112b9061344e565b60405180910390fd5b7f000000000000000000000000000000000000000000000000000000000000000073ffffffffffffffffffffffffffffffffffffffff16611173611beb565b73ffffffffffffffffffffffffffffffffffffffff16146111c9576040517f08c379a00000000000000000000000000000000000000000000000000000000081526004016111c0906134e0565b60405180910390fd5b6111d282611c42565b6111de82826001611cc1565b5050565b60007f000000000000000000000000000000000000000000000000000000000000000073ffffffffffffffffffffffffffffffffffffffff163073ffffffffffffffffffffffffffffffffffffffff1614611272576040517f08c379a000000000000000000000000000000000000000000000000000000000815260040161126990613572565b60405180910390fd5b7f360894a13ba1a3210667c828492db98dca3e2076cc3735a920a3ca505d382bbc60001b905090565b6112a3611e2f565b73ffffffffffffffffffffffffffffffffffffffff166112c1611323565b73ffffffffffffffffffffffffffffffffffffffff1614611317576040517f08c379a000000000000000000000000000000000000000000000000000000000815260040161130e906135de565b60405180910390fd5b6113216000611e37565b565b6000609760009054906101000a900473ffffffffffffffffffffffffffffffffffffffff16905090565b60cf818154811061135d57600080fd5b90600052602060002090600402016000915090508060000160009054906101000a900473ffffffffffffffffffffffffffffffffffffffff16908060010180546113a69061362d565b80601f01602080910402602001604051908101604052809291908181526020018280546113d29061362d565b801561141f5780601f106113f45761010080835404028352916020019161141f565b820191906000526020600020905b81548152906001019060200180831161140257829003601f168201915b5050505050908060020160009054906101000a900460ff16908060030154905084565b60ce6020528060005260406000206000915090505481565b3360ca60008273ffffffffffffffffffffffffffffffffffffffff1673ffffffffffffffffffffffffffffffffffffffff16815260200190815260200160002060009054906101000a900460ff166114e7576040517f08c379a00000000000000000000000000000000000000000000000000000000081526004016114de906122f1565b60405180910390fd5b600086511161152b576040517f08c379a000000000000000000000000000000000000000000000000000000000815260040161152290612e58565b60405180910390fd5b845186511461156f576040517f08c379a0000000000000000000000000000000000000000000000000000000008152600401611566906136aa565b60405180910390fd5b600060cf80549050905060cf60405180608001604052808c73ffffffffffffffffffffffffffffffffffffffff1681526020018b8152602001600060028111156115bc576115bb612ac3565b5b81526020018a815250908060018154018082558091505060019003906000526020600020906004020160009091909190915060008201518160000160006101000a81548173ffffffffffffffffffffffffffffffffffffffff021916908373ffffffffffffffffffffffffffffffffffffffff16021790555060208201518160010190805190602001906116519291906121f1565b5060408201518160020160006101000a81548160ff0219169083600281111561167d5761167c612ac3565b5b021790555060608201518160030155505060005b87518160ff1610156117e85760ca6000898360ff16815181106116b7576116b6612ee4565b5b602002602001015173ffffffffffffffffffffffffffffffffffffffff1673ffffffffffffffffffffffffffffffffffffffff16815260200190815260200160002060009054906101000a900460ff16611746576040517f08c379a000000000000000000000000000000000000000000000000000000000815260040161173d906122f1565b60405180910390fd5b868160ff168151811061175c5761175b612ee4565b5b602002602001015160d1600084815260200190815260200160002060008a8460ff168151811061178f5761178e612ee4565b5b602002602001015173ffffffffffffffffffffffffffffffffffffffff1673ffffffffffffffffffffffffffffffffffffffff1681526020019081526020016000208190555080806117e0906136ca565b915050611691565b508260d2600083815260200190815260200160002060008773ffffffffffffffffffffffffffffffffffffffff1673ffffffffffffffffffffffffffffffffffffffff1681526020019081526020016000206000868152602001908152602001600020819055503373ffffffffffffffffffffffffffffffffffffffff167f9c6294f7447d0868630b06cd1a02ec565f3789ee9d9a678adb336842bc4e4483828c8c60008d8c6040516118a0969594939291906137b1565b60405180910390a250505050505050505050565b60d260205282600052604060002060205281600052604060002060205280600052604060002060009250925050505481565b60cd6020528060005260406000206000915090505481565b611906611e2f565b73ffffffffffffffffffffffffffffffffffffffff16611924611323565b73ffffffffffffffffffffffffffffffffffffffff161461197a576040517f08c379a0000000000000000000000000000000000000000000000000000000008152600401611971906135de565b60405180910390fd5b600073ffffffffffffffffffffffffffffffffffffffff168173ffffffffffffffffffffffffffffffffffffffff16036119e9576040517f08c379a00000000000000000000000000000000000000000000000000000000081526004016119e090613892565b60405180910390fd5b6119f281611e37565b50565b6040518060400160405280600581526020017f302e302e3100000000000000000000000000000000000000000000000000000081525081565b6000808273ffffffffffffffffffffffffffffffffffffffff163b119050919050565b60008060019054906101000a900460ff1615611ac85760018260ff16148015611a805750611a7e30611a2e565b155b611abf576040517f08c379a0000000000000000000000000000000000000000000000000000000008152600401611ab690613924565b60405180910390fd5b60009050611b3c565b8160ff1660008054906101000a900460ff1660ff1610611b1d576040517f08c379a0000000000000000000000000000000000000000000000000000000008152600401611b1490613924565b60405180910390fd5b816000806101000a81548160ff021916908360ff160217905550600190505b919050565b600060019054906101000a900460ff16611b90576040517f08c379a0000000000000000000000000000000000000000000000000000000008152600401611b87906139b6565b60405180910390fd5b611b98611efd565b565b600060019054906101000a900460ff16611be9576040517f08c379a0000000000000000000000000000000000000000000000000000000008152600401611be0906139b6565b60405180910390fd5b565b6000611c197f360894a13ba1a3210667c828492db98dca3e2076cc3735a920a3ca505d382bbc60001b611f5e565b60000160009054906101000a900473ffffffffffffffffffffffffffffffffffffffff16905090565b611c4a611e2f565b73ffffffffffffffffffffffffffffffffffffffff16611c68611323565b73ffffffffffffffffffffffffffffffffffffffff1614611cbe576040517f08c379a0000000000000000000000000000000000000000000000000000000008152600401611cb5906135de565b60405180910390fd5b50565b611ced7f4910fdfa16fed3260ed0e7147f7cc6da11a60208b5b9406d12a635614ffd914360001b611f68565b60000160009054906101000a900460ff1615611d1157611d0c83611f72565b611e2a565b8273ffffffffffffffffffffffffffffffffffffffff166352d1902d6040518163ffffffff1660e01b8152600401602060405180830381865afa925050508015611d7957506040513d601f19601f82011682018060405250810190611d769190613a02565b60015b611db8576040517f08c379a0000000000000000000000000000000000000000000000000000000008152600401611daf90613aa1565b60405180910390fd5b7f360894a13ba1a3210667c828492db98dca3e2076cc3735a920a3ca505d382bbc60001b8114611e1d576040517f08c379a0000000000000000000000000000000000000000000000000000000008152600401611e1490613b33565b60405180910390fd5b50611e2983838361202b565b5b505050565b600033905090565b6000609760009054906101000a900473ffffffffffffffffffffffffffffffffffffffff16905081609760006101000a81548173ffffffffffffffffffffffffffffffffffffffff021916908373ffffffffffffffffffffffffffffffffffffffff1602179055508173ffffffffffffffffffffffffffffffffffffffff168173ffffffffffffffffffffffffffffffffffffffff167f8be0079c531659141344cd1fd0a4f28419497f9722a3daafe3b4186f6b6457e060405160405180910390a35050565b600060019054906101000a900460ff16611f4c576040517f08c379a0000000000000000000000000000000000000000000000000000000008152600401611f43906139b6565b60405180910390fd5b611f5c611f57611e2f565b611e37565b565b6000819050919050565b6000819050919050565b611f7b81611a2e565b611fba576040517f08c379a0000000000000000000000000000000000000000000000000000000008152600401611fb190613bc5565b60405180910390fd5b80611fe77f360894a13ba1a3210667c828492db98dca3e2076cc3735a920a3ca505d382bbc60001b611f5e565b60000160006101000a81548173ffffffffffffffffffffffffffffffffffffffff021916908373ffffffffffffffffffffffffffffffffffffffff16021790555050565b61203483612057565b6000825111806120415750805b156120525761205083836120a6565b505b505050565b61206081611f72565b8073ffffffffffffffffffffffffffffffffffffffff167fbc7cd75a20ee27fd9adebab32041f755214dbc6bffa90cc0225b39da2e5c2d3b60405160405180910390a250565b60606120b183611a2e565b6120f0576040517f08c379a00000000000000000000000000000000000000000000000000000000081526004016120e790613c57565b60405180910390fd5b6000808473ffffffffffffffffffffffffffffffffffffffff16846040516121189190613ca8565b600060405180830381855af49150503d8060008114612153576040519150601f19603f3d011682016040523d82523d6000602084013e612158565b606091505b50915091506121808282604051806060016040528060278152602001613cc06027913961218a565b9250505092915050565b6060831561219a578290506121ea565b6000835111156121ad5782518084602001fd5b816040517f08c379a00000000000000000000000000000000000000000000000000000000081526004016121e19190612dea565b60405180910390fd5b9392505050565b8280546121fd9061362d565b90600052602060002090601f01602090048101928261221f5760008555612266565b82601f1061223857805160ff1916838001178555612266565b82800160010185558215612266579182015b8281111561226557825182559160200191906001019061224a565b5b5090506122739190612277565b5090565b5b80821115612290576000816000905550600101612278565b5090565b600082825260208201905092915050565b7f6e6f7420616e206f776e65720000000000000000000000000000000000000000600082015250565b60006122db600c83612294565b91506122e6826122a5565b602082019050919050565b6000602082019050818103600083015261230a816122ce565b9050919050565b7f76616c7565206571203000000000000000000000000000000000000000000000600082015250565b6000612347600a83612294565b915061235282612311565b602082019050919050565b600060208201905081810360008301526123768161233a565b9050919050565b6000819050919050565b7f4e487b7100000000000000000000000000000000000000000000000000000000600052601160045260246000fd5b60006123c18261237d565b91506123cc8361237d565b9250827fffffffffffffffffffffffffffffffffffffffffffffffffffffffffffffffff0382111561240157612400612387565b5b828201905092915050565b6124158161237d565b82525050565b6000606082019050612430600083018661240c565b61243d602083018561240c565b61244a604083018461240c565b949350505050565b6000604051905090565b600080fd5b600080fd5b61246f8161237d565b811461247a57600080fd5b50565b60008135905061248c81612466565b92915050565b6000602082840312156124a8576124a761245c565b5b60006124b68482850161247d565b91505092915050565b600073ffffffffffffffffffffffffffffffffffffffff82169050919050565b60006124ea826124bf565b9050919050565b6124fa816124df565b82525050565b600060208201905061251560008301846124f1565b92915050565b612524816124df565b811461252f57600080fd5b50565b6000813590506125418161251b565b92915050565b6000806040838503121561255e5761255d61245c565b5b600061256c8582860161247d565b925050602061257d85828601612532565b9150509250929050565b600060208201905061259c600083018461240c565b92915050565b600080fd5b600080fd5b6000601f19601f8301169050919050565b7f4e487b7100000000000000000000000000000000000000000000000000000000600052604160045260246000fd5b6125f5826125ac565b810181811067ffffffffffffffff82111715612614576126136125bd565b5b80604052505050565b6000612627612452565b905061263382826125ec565b919050565b600067ffffffffffffffff821115612653576126526125bd565b5b61265c826125ac565b9050602081019050919050565b82818337600083830152505050565b600061268b61268684612638565b61261d565b9050828152602081018484840111156126a7576126a66125a7565b5b6126b2848285612669565b509392505050565b600082601f8301126126cf576126ce6125a2565b5b81356126df848260208601612678565b91505092915050565b600080600080608085870312156127025761270161245c565b5b600061271087828801612532565b945050602061272187828801612532565b93505060406127328782880161247d565b925050606085013567ffffffffffffffff81111561275357612752612461565b5b61275f878288016126ba565b91505092959194509250565b60007fffffffff0000000000000000000000000000000000000000000000000000000082169050919050565b6127a08161276b565b82525050565b60006020820190506127bb6000830184612797565b92915050565b600060ff82169050919050565b6127d7816127c1565b82525050565b60006020820190506127f260008301846127ce565b92915050565b600067ffffffffffffffff821115612813576128126125bd565b5b602082029050602081019050919050565b600080fd5b600061283c612837846127f8565b61261d565b9050808382526020820190506020840283018581111561285f5761285e612824565b5b835b8181101561288857806128748882612532565b845260208401935050602081019050612861565b5050509392505050565b600082601f8301126128a7576128a66125a2565b5b81356128b7848260208601612829565b91505092915050565b6128c9816127c1565b81146128d457600080fd5b50565b6000813590506128e6816128c0565b92915050565b600080604083850312156129035761290261245c565b5b600083013567ffffffffffffffff81111561292157612920612461565b5b61292d85828601612892565b925050602061293e858286016128d7565b9150509250929050565b60006020828403121561295e5761295d61245c565b5b600061296c84828501612532565b91505092915050565b60008115159050919050565b61298a81612975565b82525050565b60006020820190506129a56000830184612981565b92915050565b600080604083850312156129c2576129c161245c565b5b60006129d085828601612532565b925050602083013567ffffffffffffffff8111156129f1576129f0612461565b5b6129fd858286016126ba565b9150509250929050565b6000819050919050565b612a1a81612a07565b82525050565b6000602082019050612a356000830184612a11565b92915050565b600081519050919050565b600082825260208201905092915050565b60005b83811015612a75578082015181840152602081019050612a5a565b83811115612a84576000848401525b50505050565b6000612a9582612a3b565b612a9f8185612a46565b9350612aaf818560208601612a57565b612ab8816125ac565b840191505092915050565b7f4e487b7100000000000000000000000000000000000000000000000000000000600052602160045260246000fd5b60038110612b0357612b02612ac3565b5b50565b6000819050612b1482612af2565b919050565b6000612b2482612b06565b9050919050565b612b3481612b19565b82525050565b6000608082019050612b4f60008301876124f1565b8181036020830152612b618186612a8a565b9050612b706040830185612b2b565b612b7d606083018461240c565b95945050505050565b600067ffffffffffffffff821115612ba157612ba06125bd565b5b602082029050602081019050919050565b6000612bc5612bc084612b86565b61261d565b90508083825260208201905060208402830185811115612be857612be7612824565b5b835b81811015612c115780612bfd888261247d565b845260208401935050602081019050612bea565b5050509392505050565b600082601f830112612c3057612c2f6125a2565b5b8135612c40848260208601612bb2565b91505092915050565b600080600080600080600080610100898b031215612c6a57612c6961245c565b5b6000612c788b828c01612532565b985050602089013567ffffffffffffffff811115612c9957612c98612461565b5b612ca58b828c016126ba565b9750506040612cb68b828c0161247d565b965050606089013567ffffffffffffffff811115612cd757612cd6612461565b5b612ce38b828c01612892565b955050608089013567ffffffffffffffff811115612d0457612d03612461565b5b612d108b828c01612c1b565b94505060a0612d218b828c01612532565b93505060c0612d328b828c0161247d565b92505060e0612d438b828c0161247d565b9150509295985092959890939650565b600080600060608486031215612d6c57612d6b61245c565b5b6000612d7a8682870161247d565b9350506020612d8b86828701612532565b9250506040612d9c8682870161247d565b9150509250925092565b600081519050919050565b6000612dbc82612da6565b612dc68185612294565b9350612dd6818560208601612a57565b612ddf816125ac565b840191505092915050565b60006020820190508181036000830152612e048184612db1565b905092915050565b7f6f776e6572732072657175697265640000000000000000000000000000000000600082015250565b6000612e42600f83612294565b9150612e4d82612e0c565b602082019050919050565b60006020820190508181036000830152612e7181612e35565b9050919050565b7f696e76616c696420636f6e6669726d6174696f6e206e756d6265720000000000600082015250565b6000612eae601b83612294565b9150612eb982612e78565b602082019050919050565b60006020820190508181036000830152612edd81612ea1565b9050919050565b7f4e487b7100000000000000000000000000000000000000000000000000000000600052603260045260246000fd5b7f6f776e6572206973206164647265737328302900000000000000000000000000600082015250565b6000612f49601383612294565b9150612f5482612f13565b602082019050919050565b60006020820190508181036000830152612f7881612f3c565b9050919050565b7f6f776e657220697320616c7265616479206c6973746564000000000000000000600082015250565b6000612fb5601783612294565b9150612fc082612f7f565b602082019050919050565b60006020820190508181036000830152612fe481612fa8565b9050919050565b6000612ff68261237d565b91507fffffffffffffffffffffffffffffffffffffffffffffffffffffffffffffffff820361302857613027612387565b5b600182019050919050565b600081519050919050565b600082825260208201905092915050565b6000819050602082019050919050565b613068816124df565b82525050565b600061307a838361305f565b60208301905092915050565b6000602082019050919050565b600061309e82613033565b6130a8818561303e565b93506130b38361304f565b8060005b838110156130e45781516130cb888261306e565b97506130d683613086565b9250506001810190506130b7565b5085935050505092915050565b6000819050919050565b600061311661311161310c846127c1565b6130f1565b61237d565b9050919050565b613126816130fb565b82525050565b600060408201905081810360008301526131468185613093565b9050613155602083018461311d565b9392505050565b6000819050919050565b600061318161317c6131778461315c565b6130f1565b6127c1565b9050919050565b61319181613166565b82525050565b60006020820190506131ac6000830184613188565b92915050565b7f62616c616e636520657120300000000000000000000000000000000000000000600082015250565b60006131e8600c83612294565b91506131f3826131b2565b602082019050919050565b60006020820190508181036000830152613217816131db565b9050919050565b7f616d6f756e742065712030000000000000000000000000000000000000000000600082015250565b6000613254600b83612294565b915061325f8261321e565b602082019050919050565b6000602082019050818103600083015261328381613247565b9050919050565b7f746f6f2062696720616d6f756e74000000000000000000000000000000000000600082015250565b60006132c0600e83612294565b91506132cb8261328a565b602082019050919050565b600060208201905081810360008301526132ef816132b3565b9050919050565b60006133018261237d565b915061330c8361237d565b92508282101561331f5761331e612387565b5b828203905092915050565b600081905092915050565b50565b600061334560008361332a565b915061335082613335565b600082019050919050565b600061336682613338565b9150819050919050565b7f7472616e73616374696f6e206661696c65640000000000000000000000000000600082015250565b60006133a6601283612294565b91506133b182613370565b602082019050919050565b600060208201905081810360008301526133d581613399565b9050919050565b7f46756e6374696f6e206d7573742062652063616c6c6564207468726f7567682060008201527f64656c656761746563616c6c0000000000000000000000000000000000000000602082015250565b6000613438602c83612294565b9150613443826133dc565b604082019050919050565b600060208201905081810360008301526134678161342b565b9050919050565b7f46756e6374696f6e206d7573742062652063616c6c6564207468726f7567682060008201527f6163746976652070726f78790000000000000000000000000000000000000000602082015250565b60006134ca602c83612294565b91506134d58261346e565b604082019050919050565b600060208201905081810360008301526134f9816134bd565b9050919050565b7f555550535570677261646561626c653a206d757374206e6f742062652063616c60008201527f6c6564207468726f7567682064656c656761746563616c6c0000000000000000602082015250565b600061355c603883612294565b915061356782613500565b604082019050919050565b6000602082019050818103600083015261358b8161354f565b9050919050565b7f4f776e61626c653a2063616c6c6572206973206e6f7420746865206f776e6572600082015250565b60006135c8602083612294565b91506135d382613592565b602082019050919050565b600060208201905081810360008301526135f7816135bb565b9050919050565b7f4e487b7100000000000000000000000000000000000000000000000000000000600052602260045260246000fd5b6000600282049050600182168061364557607f821691505b602082108103613658576136576135fe565b5b50919050565b7f6c656e677468206d69736d617463680000000000000000000000000000000000600082015250565b6000613694600f83612294565b915061369f8261365e565b602082019050919050565b600060208201905081810360008301526136c381613687565b9050919050565b60006136d5826127c1565b915060ff82036136e8576136e7612387565b5b600182019050919050565b600081519050919050565b600082825260208201905092915050565b6000819050602082019050919050565b6137288161237d565b82525050565b600061373a838361371f565b60208301905092915050565b6000602082019050919050565b600061375e826136f3565b61376881856136fe565b93506137738361370f565b8060005b838110156137a457815161378b888261372e565b975061379683613746565b925050600181019050613777565b5085935050505092915050565b600060c0820190506137c6600083018961240c565b6137d360208301886124f1565b81810360408301526137e58187612a8a565b90506137f46060830186612b2b565b613801608083018561240c565b81810360a08301526138138184613753565b9050979650505050505050565b7f4f776e61626c653a206e6577206f776e657220697320746865207a65726f206160008201527f6464726573730000000000000000000000000000000000000000000000000000602082015250565b600061387c602683612294565b915061388782613820565b604082019050919050565b600060208201905081810360008301526138ab8161386f565b9050919050565b7f496e697469616c697a61626c653a20636f6e747261637420697320616c72656160008201527f647920696e697469616c697a6564000000000000000000000000000000000000602082015250565b600061390e602e83612294565b9150613919826138b2565b604082019050919050565b6000602082019050818103600083015261393d81613901565b9050919050565b7f496e697469616c697a61626c653a20636f6e7472616374206973206e6f74206960008201527f6e697469616c697a696e67000000000000000000000000000000000000000000602082015250565b60006139a0602b83612294565b91506139ab82613944565b604082019050919050565b600060208201905081810360008301526139cf81613993565b9050919050565b6139df81612a07565b81146139ea57600080fd5b50565b6000815190506139fc816139d6565b92915050565b600060208284031215613a1857613a1761245c565b5b6000613a26848285016139ed565b91505092915050565b7f45524331393637557067726164653a206e657720696d706c656d656e7461746960008201527f6f6e206973206e6f742055555053000000000000000000000000000000000000602082015250565b6000613a8b602e83612294565b9150613a9682613a2f565b604082019050919050565b60006020820190508181036000830152613aba81613a7e565b9050919050565b7f45524331393637557067726164653a20756e737570706f727465642070726f7860008201527f6961626c65555549440000000000000000000000000000000000000000000000602082015250565b6000613b1d602983612294565b9150613b2882613ac1565b604082019050919050565b60006020820190508181036000830152613b4c81613b10565b9050919050565b7f455243313936373a206e657720696d706c656d656e746174696f6e206973206e60008201527f6f74206120636f6e747261637400000000000000000000000000000000000000602082015250565b6000613baf602d83612294565b9150613bba82613b53565b604082019050919050565b60006020820190508181036000830152613bde81613ba2565b9050919050565b7f416464726573733a2064656c65676174652063616c6c20746f206e6f6e2d636f60008201527f6e74726163740000000000000000000000000000000000000000000000000000602082015250565b6000613c41602683612294565b9150613c4c82613be5565b604082019050919050565b60006020820190508181036000830152613c7081613c34565b9050919050565b6000613c8282612a3b565b613c8c818561332a565b9350613c9c818560208601612a57565b80840191505092915050565b6000613cb48284613c77565b91508190509291505056fe416464726573733a206c6f772d6c6576656c2064656c65676174652063616c6c206661696c6564a2646970667358221220caf6ec2761f048c0b382af186703c3e72dd37c35cd0477fc80f0ceb814dcb26c64736f6c634300080d0033",
  "linkReferences": {},
  "deployedLinkReferences": {}
}