{
  "_format": "hh-sol-artifact-1",
  "contractName": "CommownSWProxyFactory",
  "sourceName": "contracts/CommownSWProxyFactory.sol",
  "abi": [
    {
      "inputs": [],
      "stateMutability": "nonpayable",
      "type": "constructor"
    },
    {
      "anonymous": false,
      "inputs": [
        {
          "indexed": true,
          "internalType": "address",
          "name": "adrs",
          "type": "address"
        },
        {
          "indexed": false,
          "internalType": "address[]",
          "name": "owners",
          "type": "address[]"
        }
      ],
      "name": "ProxyCreated",
      "type": "event"
    },
    {
      "inputs": [
        {
          "internalType": "address",
          "name": "",
          "type": "address"
        },
        {
          "internalType": "uint256",
          "name": "",
          "type": "uint256"
        }
      ],
      "name": "commownProxiesPerUser",
      "outputs": [
        {
          "internalType": "address",
          "name": "",
          "type": "address"
        }
      ],
      "stateMutability": "view",
      "type": "function"
    },
    {
      "inputs": [
        {
          "internalType": "address[]",
          "name": "_owners",
          "type": "address[]"
        },
        {
          "internalType": "uint8",
          "name": "_confirmationNeeded",
          "type": "uint8"
        }
      ],
      "name": "createProxy",
      "outputs": [
        {
          "internalType": "address",
          "name": "",
          "type": "address"
        }
      ],
      "stateMutability": "nonpayable",
      "type": "function"
    },
    {
      "inputs": [],
      "name": "logic",
      "outputs": [
        {
          "internalType": "address",
          "name": "",
          "type": "address"
        }
      ],
      "stateMutability": "view",
      "type": "function"
    },
    {
      "inputs": [
        {
          "internalType": "address",
          "name": "",
          "type": "address"
        }
      ],
      "name": "nbProxiesPerUser",
      "outputs": [
        {
          "internalType": "uint256",
          "name": "",
          "type": "uint256"
        }
      ],
      "stateMutability": "view",
      "type": "function"
    },
    {
      "inputs": [
        {
          "internalType": "uint256",
          "name": "",
          "type": "uint256"
        }
      ],
      "name": "proxiesList",
      "outputs": [
        {
          "internalType": "address",
          "name": "",
          "type": "address"
        }
      ],
      "stateMutability": "view",
      "type": "function"
    }
  ],
  "bytecode": "0x60a060405234801561001057600080fd5b5060405161001d90610072565b604051809103906000f080158015610039573d6000803e3d6000fd5b5073ffffffffffffffffffffffffffffffffffffffff1660808173ffffffffffffffffffffffffffffffffffffffff168152505061007f565b6140c180611a5883390190565b6080516119b76100a16000396000818161020901526104f101526119b76000f3fe60806040523480156200001157600080fd5b50600436106200005e5760003560e01c8063404addee1462000063578063878dd62b1462000099578063adec742d14620000cf578063c55e8db11462000105578063d7dfa0dd146200013b575b600080fd5b6200008160048036038101906200007b9190620005d5565b6200015d565b6040516200009091906200062d565b60405180910390f35b620000b76004803603810190620000b191906200064a565b620001ac565b604051620000c691906200068d565b60405180910390f35b620000ed6004803603810190620000e79190620006aa565b620001c4565b604051620000fc91906200062d565b60405180910390f35b6200012360048036038101906200011d91906200088f565b62000204565b6040516200013291906200062d565b60405180910390f35b62000145620004ef565b6040516200015491906200062d565b60405180910390f35b600060205281600052604060002081815481106200017a57600080fd5b906000526020600020016000915091509054906101000a900473ffffffffffffffffffffffffffffffffffffffff1681565b60016020528060005260406000206000915090505481565b60028181548110620001d557600080fd5b906000526020600020016000915054906101000a900473ffffffffffffffffffffffffffffffffffffffff1681565b6000807f0000000000000000000000000000000000000000000000000000000000000000632bbdea4e60e01b858560405160240162000245929190620009d4565b604051602081830303815290604052907bffffffffffffffffffffffffffffffffffffffffffffffffffffffff19166020820180517bffffffffffffffffffffffffffffffffffffffffffffffffffffffff8381831617835250505050604051620002b09062000513565b620002bd92919062000a9b565b604051809103906000f080158015620002da573d6000803e3d6000fd5b5090506002819080600181540180825580915050600190039060005260206000200160009091909190916101000a81548173ffffffffffffffffffffffffffffffffffffffff021916908373ffffffffffffffffffffffffffffffffffffffff16021790555060005b8451811015620004945760008086838151811062000366576200036562000acf565b5b602002602001015173ffffffffffffffffffffffffffffffffffffffff1673ffffffffffffffffffffffffffffffffffffffff168152602001908152602001600020829080600181540180825580915050600190039060005260206000200160009091909190916101000a81548173ffffffffffffffffffffffffffffffffffffffff021916908373ffffffffffffffffffffffffffffffffffffffff160217905550600180600087848151811062000424576200042362000acf565b5b602002602001015173ffffffffffffffffffffffffffffffffffffffff1673ffffffffffffffffffffffffffffffffffffffff168152602001908152602001600020600082825462000477919062000b2d565b9250508190555080806200048b9062000b8a565b91505062000343565b508073ffffffffffffffffffffffffffffffffffffffff167ffde274332a06d15775f8305f98b1665142facc59b7aa826609980b4e2a0c9aff85604051620004dd919062000bd7565b60405180910390a28091505092915050565b7f000000000000000000000000000000000000000000000000000000000000000081565b610d868062000bfc83390190565b6000604051905090565b600080fd5b600080fd5b600073ffffffffffffffffffffffffffffffffffffffff82169050919050565b6000620005628262000535565b9050919050565b620005748162000555565b81146200058057600080fd5b50565b600081359050620005948162000569565b92915050565b6000819050919050565b620005af816200059a565b8114620005bb57600080fd5b50565b600081359050620005cf81620005a4565b92915050565b60008060408385031215620005ef57620005ee6200052b565b5b6000620005ff8582860162000583565b92505060206200061285828601620005be565b9150509250929050565b620006278162000555565b82525050565b60006020820190506200064460008301846200061c565b92915050565b6000602082840312156200066357620006626200052b565b5b6000620006738482850162000583565b91505092915050565b62000687816200059a565b82525050565b6000602082019050620006a460008301846200067c565b92915050565b600060208284031215620006c357620006c26200052b565b5b6000620006d384828501620005be565b91505092915050565b600080fd5b6000601f19601f8301169050919050565b7f4e487b7100000000000000000000000000000000000000000000000000000000600052604160045260246000fd5b6200072c82620006e1565b810181811067ffffffffffffffff821117156200074e576200074d620006f2565b5b80604052505050565b60006200076362000521565b905062000771828262000721565b919050565b600067ffffffffffffffff821115620007945762000793620006f2565b5b602082029050602081019050919050565b600080fd5b6000620007c1620007bb8462000776565b62000757565b90508083825260208201905060208402830185811115620007e757620007e6620007a5565b5b835b81811015620008145780620007ff888262000583565b845260208401935050602081019050620007e9565b5050509392505050565b600082601f830112620008365762000835620006dc565b5b813562000848848260208601620007aa565b91505092915050565b600060ff82169050919050565b620008698162000851565b81146200087557600080fd5b50565b60008135905062000889816200085e565b92915050565b60008060408385031215620008a957620008a86200052b565b5b600083013567ffffffffffffffff811115620008ca57620008c962000530565b5b620008d8858286016200081e565b9250506020620008eb8582860162000878565b9150509250929050565b600081519050919050565b600082825260208201905092915050565b6000819050602082019050919050565b6200092c8162000555565b82525050565b600062000940838362000921565b60208301905092915050565b6000602082019050919050565b60006200096682620008f5565b62000972818562000900565b93506200097f8362000911565b8060005b83811015620009b65781516200099a888262000932565b9750620009a7836200094c565b92505060018101905062000983565b5085935050505092915050565b620009ce8162000851565b82525050565b60006040820190508181036000830152620009f0818562000959565b905062000a016020830184620009c3565b9392505050565b600081519050919050565b600082825260208201905092915050565b60005b8381101562000a4457808201518184015260208101905062000a27565b8381111562000a54576000848401525b50505050565b600062000a678262000a08565b62000a73818562000a13565b935062000a8581856020860162000a24565b62000a9081620006e1565b840191505092915050565b600060408201905062000ab260008301856200061c565b818103602083015262000ac6818462000a5a565b90509392505050565b7f4e487b7100000000000000000000000000000000000000000000000000000000600052603260045260246000fd5b7f4e487b7100000000000000000000000000000000000000000000000000000000600052601160045260246000fd5b600062000b3a826200059a565b915062000b47836200059a565b9250827fffffffffffffffffffffffffffffffffffffffffffffffffffffffffffffffff0382111562000b7f5762000b7e62000afe565b5b828201905092915050565b600062000b97826200059a565b91507fffffffffffffffffffffffffffffffffffffffffffffffffffffffffffffffff820362000bcc5762000bcb62000afe565b5b600182019050919050565b6000602082019050818103600083015262000bf3818462000959565b90509291505056fe608060405260405162000d8638038062000d868339818101604052810190620000299190620005d4565b60017f360894a13ba1a3210667c828492db98dca3e2076cc3735a920a3ca505d382bbd60001c6200005b919062000673565b60001b7f360894a13ba1a3210667c828492db98dca3e2076cc3735a920a3ca505d382bbc60001b14620000935762000092620006ae565b5b620000a782826000620000af60201b60201c565b5050620008f4565b620000c083620000f260201b60201c565b600082511180620000ce5750805b15620000ed57620000eb83836200014960201b620000371760201c565b505b505050565b62000103816200017f60201b60201c565b8073ffffffffffffffffffffffffffffffffffffffff167fbc7cd75a20ee27fd9adebab32041f755214dbc6bffa90cc0225b39da2e5c2d3b60405160405180910390a250565b606062000177838360405180606001604052806027815260200162000d5f602791396200025560201b60201c565b905092915050565b62000195816200033960201b620000641760201c565b620001d7576040517f08c379a0000000000000000000000000000000000000000000000000000000008152600401620001ce9062000764565b60405180910390fd5b80620002117f360894a13ba1a3210667c828492db98dca3e2076cc3735a920a3ca505d382bbc60001b6200035c60201b620000871760201c565b60000160006101000a81548173ffffffffffffffffffffffffffffffffffffffff021916908373ffffffffffffffffffffffffffffffffffffffff16021790555050565b606062000268846200033960201b60201c565b620002aa576040517f08c379a0000000000000000000000000000000000000000000000000000000008152600401620002a190620007fc565b60405180910390fd5b6000808573ffffffffffffffffffffffffffffffffffffffff1685604051620002d491906200086b565b600060405180830381855af49150503d806000811462000311576040519150601f19603f3d011682016040523d82523d6000602084013e62000316565b606091505b50915091506200032e8282866200036660201b60201c565b925050509392505050565b6000808273ffffffffffffffffffffffffffffffffffffffff163b119050919050565b6000819050919050565b606083156200037857829050620003cb565b6000835111156200038c5782518084602001fd5b816040517f08c379a0000000000000000000000000000000000000000000000000000000008152600401620003c29190620008d0565b60405180910390fd5b9392505050565b6000604051905090565b600080fd5b600080fd5b600073ffffffffffffffffffffffffffffffffffffffff82169050919050565b60006200041382620003e6565b9050919050565b620004258162000406565b81146200043157600080fd5b50565b60008151905062000445816200041a565b92915050565b600080fd5b600080fd5b6000601f19601f8301169050919050565b7f4e487b7100000000000000000000000000000000000000000000000000000000600052604160045260246000fd5b620004a08262000455565b810181811067ffffffffffffffff82111715620004c257620004c162000466565b5b80604052505050565b6000620004d7620003d2565b9050620004e5828262000495565b919050565b600067ffffffffffffffff82111562000508576200050762000466565b5b620005138262000455565b9050602081019050919050565b60005b838110156200054057808201518184015260208101905062000523565b8381111562000550576000848401525b50505050565b60006200056d6200056784620004ea565b620004cb565b9050828152602081018484840111156200058c576200058b62000450565b5b6200059984828562000520565b509392505050565b600082601f830112620005b957620005b86200044b565b5b8151620005cb84826020860162000556565b91505092915050565b60008060408385031215620005ee57620005ed620003dc565b5b6000620005fe8582860162000434565b925050602083015167ffffffffffffffff811115620006225762000621620003e1565b5b6200063085828601620005a1565b9150509250929050565b6000819050919050565b7f4e487b7100000000000000000000000000000000000000000000000000000000600052601160045260246000fd5b600062000680826200063a565b91506200068d836200063a565b925082821015620006a357620006a262000644565b5b828203905092915050565b7f4e487b7100000000000000000000000000000000000000000000000000000000600052600160045260246000fd5b600082825260208201905092915050565b7f455243313936373a206e657720696d706c656d656e746174696f6e206973206e60008201527f6f74206120636f6e747261637400000000000000000000000000000000000000602082015250565b60006200074c602d83620006dd565b91506200075982620006ee565b604082019050919050565b600060208201905081810360008301526200077f816200073d565b9050919050565b7f416464726573733a2064656c65676174652063616c6c20746f206e6f6e2d636f60008201527f6e74726163740000000000000000000000000000000000000000000000000000602082015250565b6000620007e4602683620006dd565b9150620007f18262000786565b604082019050919050565b600060208201905081810360008301526200081781620007d5565b9050919050565b600081519050919050565b600081905092915050565b600062000841826200081e565b6200084d818562000829565b93506200085f81856020860162000520565b80840191505092915050565b600062000879828462000834565b915081905092915050565b600081519050919050565b60006200089c8262000884565b620008a88185620006dd565b9350620008ba81856020860162000520565b620008c58162000455565b840191505092915050565b60006020820190508181036000830152620008ec81846200088f565b905092915050565b61045b80620009046000396000f3fe6080604052366100135761001161001d565b005b61001b61001d565b005b610025610091565b610035610030610093565b6100a2565b565b606061005c83836040518060600160405280602781526020016103ff602791396100c8565b905092915050565b6000808273ffffffffffffffffffffffffffffffffffffffff163b119050919050565b6000819050919050565b565b600061009d610195565b905090565b3660008037600080366000845af43d6000803e80600081146100c3573d6000f35b3d6000fd5b60606100d384610064565b610112576040517f08c379a0000000000000000000000000000000000000000000000000000000008152600401610109906102d6565b60405180910390fd5b6000808573ffffffffffffffffffffffffffffffffffffffff168560405161013a9190610370565b600060405180830381855af49150503d8060008114610175576040519150601f19603f3d011682016040523d82523d6000602084013e61017a565b606091505b509150915061018a8282866101ec565b925050509392505050565b60006101c37f360894a13ba1a3210667c828492db98dca3e2076cc3735a920a3ca505d382bbc60001b610087565b60000160009054906101000a900473ffffffffffffffffffffffffffffffffffffffff16905090565b606083156101fc5782905061024c565b60008351111561020f5782518084602001fd5b816040517f08c379a000000000000000000000000000000000000000000000000000000000815260040161024391906103dc565b60405180910390fd5b9392505050565b600082825260208201905092915050565b7f416464726573733a2064656c65676174652063616c6c20746f206e6f6e2d636f60008201527f6e74726163740000000000000000000000000000000000000000000000000000602082015250565b60006102c0602683610253565b91506102cb82610264565b604082019050919050565b600060208201905081810360008301526102ef816102b3565b9050919050565b600081519050919050565b600081905092915050565b60005b8381101561032a57808201518184015260208101905061030f565b83811115610339576000848401525b50505050565b600061034a826102f6565b6103548185610301565b935061036481856020860161030c565b80840191505092915050565b600061037c828461033f565b915081905092915050565b600081519050919050565b6000601f19601f8301169050919050565b60006103ae82610387565b6103b88185610253565b93506103c881856020860161030c565b6103d181610392565b840191505092915050565b600060208201905081810360008301526103f681846103a3565b90509291505056fe416464726573733a206c6f772d6c6576656c2064656c65676174652063616c6c206661696c6564a2646970667358221220e7ad0133b9d7b8ba046931d6e493290054d3bb31bdb06986a7c5cff55b817b7c64736f6c634300080d0033416464726573733a206c6f772d6c6576656c2064656c65676174652063616c6c206661696c6564a2646970667358221220f32ffc73b78f64ca74aa1f4b78f325565a248be9274413f0d9c2d63eae119b2464736f6c634300080d003360a06040523073ffffffffffffffffffffffffffffffffffffffff1660809073ffffffffffffffffffffffffffffffffffffffff168152503480156200004457600080fd5b506000620000596001620000e160201b60201c565b905080156200007e576001600060016101000a81548160ff0219169083151502179055505b8015620000da5760008060016101000a81548160ff0219169083151502179055507f7f26b83ff96e1f2b6a682f133852f6798a09c465da95921460cefb38474024986001604051620000d1919062000264565b60405180910390a15b506200032a565b60008060019054906101000a900460ff16156200016b5760018260ff161480156200011f57506200011d30620001e760201b62001a711760201c565b155b62000161576040517f08c379a0000000000000000000000000000000000000000000000000000000008152600401620001589062000308565b60405180910390fd5b60009050620001e2565b8160ff1660008054906101000a900460ff1660ff1610620001c3576040517f08c379a0000000000000000000000000000000000000000000000000000000008152600401620001ba9062000308565b60405180910390fd5b816000806101000a81548160ff021916908360ff160217905550600190505b919050565b6000808273ffffffffffffffffffffffffffffffffffffffff163b119050919050565b6000819050919050565b600060ff82169050919050565b6000819050919050565b60006200024c6200024662000240846200020a565b62000221565b62000214565b9050919050565b6200025e816200022b565b82525050565b60006020820190506200027b600083018462000253565b92915050565b600082825260208201905092915050565b7f496e697469616c697a61626c653a20636f6e747261637420697320616c72656160008201527f647920696e697469616c697a6564000000000000000000000000000000000000602082015250565b6000620002f0602e8362000281565b9150620002fd8262000292565b604082019050919050565b600060208201905081810360008301526200032381620002e1565b9050919050565b608051613d5f6200036260003960008181610f2701528181610fb5015281816110e40152818161117201526112220152613d5f6000f3fe6080604052600436106101395760003560e01c80634f1ef286116100ab5780639f6375d71161006f5780639f6375d7146105f2578063a404e0311461062f578063ea9ce58a14610658578063ee98fc7214610695578063f2fde38b146106d2578063ffa1ad74146106fb576102f7565b80634f1ef2861461052957806352d1902d14610545578063715018a6146105705780638da5cb5b146105875780638fe371d2146105b2576102f7565b80632bbdea4e116100fd5780632bbdea4e146104095780632e1a7d4d146104325780632f54bf6e1461045b5780633659cfe6146104985780633e6d21fa146104c15780634cf0a479146104fe576102f7565b8063025e7c27146102fc5780630be6aa5d146103395780630d2e47c114610376578063150b7a02146103a15780632b9a9f50146103de576102f7565b366102f7573360ca60008273ffffffffffffffffffffffffffffffffffffffff1673ffffffffffffffffffffffffffffffffffffffff16815260200190815260200160002060009054906101000a900460ff166101cb576040517f08c379a00000000000000000000000000000000000000000000000000000000081526004016101c290612334565b60405180910390fd5b6000341161020e576040517f08c379a0000000000000000000000000000000000000000000000000000000008152600401610205906123a0565b60405180910390fd5b3460cd60003373ffffffffffffffffffffffffffffffffffffffff1673ffffffffffffffffffffffffffffffffffffffff168152602001908152602001600020600082825461025d91906123f9565b925050819055503373ffffffffffffffffffffffffffffffffffffffff167f36af321ec8d3c75236829c5317affd40ddb308863a1236d2d277a4025cccee1e3460cd60003373ffffffffffffffffffffffffffffffffffffffff1673ffffffffffffffffffffffffffffffffffffffff16815260200190815260200160002054476040516102ed9392919061245e565b60405180910390a2005b600080fd5b34801561030857600080fd5b50610323600480360381019061031e91906124d5565b610726565b6040516103309190612543565b60405180910390f35b34801561034557600080fd5b50610360600480360381019061035b919061258a565b610765565b60405161036d91906125ca565b60405180910390f35b34801561038257600080fd5b5061038b61078a565b60405161039891906125ca565b60405180910390f35b3480156103ad57600080fd5b506103c860048036038101906103c3919061272b565b610790565b6040516103d591906127e9565b60405180910390f35b3480156103ea57600080fd5b506103f36107a4565b6040516104009190612820565b60405180910390f35b34801561041557600080fd5b50610430600480360381019061042b919061292f565b6107b7565b005b34801561043e57600080fd5b50610459600480360381019061045491906124d5565b610b99565b005b34801561046757600080fd5b50610482600480360381019061047d919061298b565b610f05565b60405161048f91906129d3565b60405180910390f35b3480156104a457600080fd5b506104bf60048036038101906104ba919061298b565b610f25565b005b3480156104cd57600080fd5b506104e860048036038101906104e3919061258a565b6110ad565b6040516104f591906129d3565b60405180910390f35b34801561050a57600080fd5b506105136110dc565b60405161052091906125ca565b60405180910390f35b610543600480360381019061053e91906129ee565b6110e2565b005b34801561055157600080fd5b5061055a61121e565b6040516105679190612a63565b60405180910390f35b34801561057c57600080fd5b506105856112d7565b005b34801561059357600080fd5b5061059c61135f565b6040516105a99190612543565b60405180910390f35b3480156105be57600080fd5b506105d960048036038101906105d491906124d5565b611389565b6040516105e99493929190612b7d565b60405180910390f35b3480156105fe57600080fd5b506106196004803603810190610614919061298b565b61147e565b60405161062691906125ca565b60405180910390f35b34801561063b57600080fd5b5061065660048036038101906106519190612c8c565b611496565b005b34801561066457600080fd5b5061067f600480360381019061067a9190612d96565b6118f7565b60405161068c91906125ca565b60405180910390f35b3480156106a157600080fd5b506106bc60048036038101906106b7919061298b565b611929565b6040516106c991906125ca565b60405180910390f35b3480156106de57600080fd5b506106f960048036038101906106f4919061298b565b611941565b005b34801561070757600080fd5b50610710611a38565b60405161071d9190612e2d565b60405180910390f35b60c9818154811061073657600080fd5b906000526020600020016000915054906101000a900473ffffffffffffffffffffffffffffffffffffffff1681565b60d2602052816000526040600020602052806000526040600020600091509150505481565b60d05481565b600063150b7a0260e01b9050949350505050565b60cb60009054906101000a900460ff1681565b60006107c36001611a94565b905080156107e7576001600060016101000a81548160ff0219169083151502179055505b600083511161082b576040517f08c379a000000000000000000000000000000000000000000000000000000000815260040161082290612e9b565b60405180910390fd5b60008260ff16118015610842575082518260ff1611155b610881576040517f08c379a000000000000000000000000000000000000000000000000000000000815260040161087890612f07565b60405180910390fd5b610889611b84565b610891611bdd565b60005b8351811015610acf57600073ffffffffffffffffffffffffffffffffffffffff168482815181106108c8576108c7612f27565b5b602002602001015173ffffffffffffffffffffffffffffffffffffffff1603610926576040517f08c379a000000000000000000000000000000000000000000000000000000000815260040161091d90612fa2565b60405180910390fd5b60ca600085838151811061093d5761093c612f27565b5b602002602001015173ffffffffffffffffffffffffffffffffffffffff1673ffffffffffffffffffffffffffffffffffffffff16815260200190815260200160002060009054906101000a900460ff16156109cd576040517f08c379a00000000000000000000000000000000000000000000000000000000081526004016109c49061300e565b60405180910390fd5b60c98482815181106109e2576109e1612f27565b5b60200260200101519080600181540180825580915050600190039060005260206000200160009091909190916101000a81548173ffffffffffffffffffffffffffffffffffffffff021916908373ffffffffffffffffffffffffffffffffffffffff160217905550600160ca6000868481518110610a6357610a62612f27565b5b602002602001015173ffffffffffffffffffffffffffffffffffffffff1673ffffffffffffffffffffffffffffffffffffffff16815260200190815260200160002060006101000a81548160ff0219169083151502179055508080610ac79061302e565b915050610894565b508160cb60006101000a81548160ff021916908360ff1602179055503373ffffffffffffffffffffffffffffffffffffffff167fe981d41cfcc707f2fa59586347099614ffa99754751f6000ade1fbd3514ebd4d8484604051610b3392919061316f565b60405180910390a28015610b945760008060016101000a81548160ff0219169083151502179055507f7f26b83ff96e1f2b6a682f133852f6798a09c465da95921460cefb38474024986001604051610b8b91906131da565b60405180910390a15b505050565b3360ca60008273ffffffffffffffffffffffffffffffffffffffff1673ffffffffffffffffffffffffffffffffffffffff16815260200190815260200160002060009054906101000a900460ff16610c26576040517f08c379a0000000000000000000000000000000000000000000000000000000008152600401610c1d90612334565b60405180910390fd5b600060cd60003373ffffffffffffffffffffffffffffffffffffffff1673ffffffffffffffffffffffffffffffffffffffff1681526020019081526020016000205411610ca8576040517f08c379a0000000000000000000000000000000000000000000000000000000008152600401610c9f90613241565b60405180910390fd5b60008211610ceb576040517f08c379a0000000000000000000000000000000000000000000000000000000008152600401610ce2906132ad565b60405180910390fd5b60cd60003373ffffffffffffffffffffffffffffffffffffffff1673ffffffffffffffffffffffffffffffffffffffff16815260200190815260200160002054821115610d6d576040517f08c379a0000000000000000000000000000000000000000000000000000000008152600401610d6490613319565b60405180910390fd5b8160cd60003373ffffffffffffffffffffffffffffffffffffffff1673ffffffffffffffffffffffffffffffffffffffff1681526020019081526020016000206000828254610dbc9190613339565b9250508190555060003373ffffffffffffffffffffffffffffffffffffffff1683604051610de99061339e565b60006040518083038185875af1925050503d8060008114610e26576040519150601f19603f3d011682016040523d82523d6000602084013e610e2b565b606091505b5050905080610e6f576040517f08c379a0000000000000000000000000000000000000000000000000000000008152600401610e66906133ff565b60405180910390fd5b3373ffffffffffffffffffffffffffffffffffffffff167f02f25270a4d87bea75db541cdfe559334a275b4a233520ed6c0a2429667cca948460cd60003373ffffffffffffffffffffffffffffffffffffffff1673ffffffffffffffffffffffffffffffffffffffff1681526020019081526020016000205447604051610ef89392919061245e565b60405180910390a2505050565b60ca6020528060005260406000206000915054906101000a900460ff1681565b7f000000000000000000000000000000000000000000000000000000000000000073ffffffffffffffffffffffffffffffffffffffff163073ffffffffffffffffffffffffffffffffffffffff1603610fb3576040517f08c379a0000000000000000000000000000000000000000000000000000000008152600401610faa90613491565b60405180910390fd5b7f000000000000000000000000000000000000000000000000000000000000000073ffffffffffffffffffffffffffffffffffffffff16610ff2611c2e565b73ffffffffffffffffffffffffffffffffffffffff1614611048576040517f08c379a000000000000000000000000000000000000000000000000000000000815260040161103f90613523565b60405180910390fd5b61105181611c85565b6110aa81600067ffffffffffffffff8111156110705761106f612600565b5b6040519080825280601f01601f1916602001820160405280156110a25781602001600182028036833780820191505090505b506000611d04565b50565b60d16020528160005260406000206020528060005260406000206000915091509054906101000a900460ff1681565b60cc5481565b7f000000000000000000000000000000000000000000000000000000000000000073ffffffffffffffffffffffffffffffffffffffff163073ffffffffffffffffffffffffffffffffffffffff1603611170576040517f08c379a000000000000000000000000000000000000000000000000000000000815260040161116790613491565b60405180910390fd5b7f000000000000000000000000000000000000000000000000000000000000000073ffffffffffffffffffffffffffffffffffffffff166111af611c2e565b73ffffffffffffffffffffffffffffffffffffffff1614611205576040517f08c379a00000000000000000000000000000000000000000000000000000000081526004016111fc90613523565b60405180910390fd5b61120e82611c85565b61121a82826001611d04565b5050565b60007f000000000000000000000000000000000000000000000000000000000000000073ffffffffffffffffffffffffffffffffffffffff163073ffffffffffffffffffffffffffffffffffffffff16146112ae576040517f08c379a00000000000000000000000000000000000000000000000000000000081526004016112a5906135b5565b60405180910390fd5b7f360894a13ba1a3210667c828492db98dca3e2076cc3735a920a3ca505d382bbc60001b905090565b6112df611e72565b73ffffffffffffffffffffffffffffffffffffffff166112fd61135f565b73ffffffffffffffffffffffffffffffffffffffff1614611353576040517f08c379a000000000000000000000000000000000000000000000000000000000815260040161134a90613621565b60405180910390fd5b61135d6000611e7a565b565b6000609760009054906101000a900473ffffffffffffffffffffffffffffffffffffffff16905090565b60cf818154811061139957600080fd5b90600052602060002090600402016000915090508060000160009054906101000a900473ffffffffffffffffffffffffffffffffffffffff16908060010180546113e290613670565b80601f016020809104026020016040519081016040528092919081815260200182805461140e90613670565b801561145b5780601f106114305761010080835404028352916020019161145b565b820191906000526020600020905b81548152906001019060200180831161143e57829003601f168201915b5050505050908060020160009054906101000a900460ff16908060030154905084565b60ce6020528060005260406000206000915090505481565b3360ca60008273ffffffffffffffffffffffffffffffffffffffff1673ffffffffffffffffffffffffffffffffffffffff16815260200190815260200160002060009054906101000a900460ff16611523576040517f08c379a000000000000000000000000000000000000000000000000000000000815260040161151a90612334565b60405180910390fd5b6000865111611567576040517f08c379a000000000000000000000000000000000000000000000000000000000815260040161155e90612e9b565b60405180910390fd5b84518651146115ab576040517f08c379a00000000000000000000000000000000000000000000000000000000081526004016115a2906136ed565b60405180910390fd5b60cf8054905060d08190555060cf60405180608001604052808b73ffffffffffffffffffffffffffffffffffffffff1681526020018a8152602001600060028111156115fa576115f9612b06565b5b815260200189815250908060018154018082558091505060019003906000526020600020906004020160009091909190915060008201518160000160006101000a81548173ffffffffffffffffffffffffffffffffffffffff021916908373ffffffffffffffffffffffffffffffffffffffff160217905550602082015181600101908051906020019061168f929190612234565b5060408201518160020160006101000a81548160ff021916908360028111156116bb576116ba612b06565b5b021790555060608201518160030155505060005b86518160ff1610156118285760ca6000888360ff16815181106116f5576116f4612f27565b5b602002602001015173ffffffffffffffffffffffffffffffffffffffff1673ffffffffffffffffffffffffffffffffffffffff16815260200190815260200160002060009054906101000a900460ff16611784576040517f08c379a000000000000000000000000000000000000000000000000000000000815260040161177b90612334565b60405180910390fd5b858160ff168151811061179a57611799612f27565b5b602002602001015160d2600060d05481526020019081526020016000206000898460ff16815181106117cf576117ce612f27565b5b602002602001015173ffffffffffffffffffffffffffffffffffffffff1673ffffffffffffffffffffffffffffffffffffffff1681526020019081526020016000208190555080806118209061370d565b9150506116cf565b508160d3600060d054815260200190815260200160002060008673ffffffffffffffffffffffffffffffffffffffff1673ffffffffffffffffffffffffffffffffffffffff1681526020019081526020016000206000858152602001908152602001600020819055503373ffffffffffffffffffffffffffffffffffffffff167f9c6294f7447d0868630b06cd1a02ec565f3789ee9d9a678adb336842bc4e448360d0548b8b60008c8b6040516118e4969594939291906137f4565b60405180910390a2505050505050505050565b60d360205282600052604060002060205281600052604060002060205280600052604060002060009250925050505481565b60cd6020528060005260406000206000915090505481565b611949611e72565b73ffffffffffffffffffffffffffffffffffffffff1661196761135f565b73ffffffffffffffffffffffffffffffffffffffff16146119bd576040517f08c379a00000000000000000000000000000000000000000000000000000000081526004016119b490613621565b60405180910390fd5b600073ffffffffffffffffffffffffffffffffffffffff168173ffffffffffffffffffffffffffffffffffffffff1603611a2c576040517f08c379a0000000000000000000000000000000000000000000000000000000008152600401611a23906138d5565b60405180910390fd5b611a3581611e7a565b50565b6040518060400160405280600581526020017f302e302e3100000000000000000000000000000000000000000000000000000081525081565b6000808273ffffffffffffffffffffffffffffffffffffffff163b119050919050565b60008060019054906101000a900460ff1615611b0b5760018260ff16148015611ac35750611ac130611a71565b155b611b02576040517f08c379a0000000000000000000000000000000000000000000000000000000008152600401611af990613967565b60405180910390fd5b60009050611b7f565b8160ff1660008054906101000a900460ff1660ff1610611b60576040517f08c379a0000000000000000000000000000000000000000000000000000000008152600401611b5790613967565b60405180910390fd5b816000806101000a81548160ff021916908360ff160217905550600190505b919050565b600060019054906101000a900460ff16611bd3576040517f08c379a0000000000000000000000000000000000000000000000000000000008152600401611bca906139f9565b60405180910390fd5b611bdb611f40565b565b600060019054906101000a900460ff16611c2c576040517f08c379a0000000000000000000000000000000000000000000000000000000008152600401611c23906139f9565b60405180910390fd5b565b6000611c5c7f360894a13ba1a3210667c828492db98dca3e2076cc3735a920a3ca505d382bbc60001b611fa1565b60000160009054906101000a900473ffffffffffffffffffffffffffffffffffffffff16905090565b611c8d611e72565b73ffffffffffffffffffffffffffffffffffffffff16611cab61135f565b73ffffffffffffffffffffffffffffffffffffffff1614611d01576040517f08c379a0000000000000000000000000000000000000000000000000000000008152600401611cf890613621565b60405180910390fd5b50565b611d307f4910fdfa16fed3260ed0e7147f7cc6da11a60208b5b9406d12a635614ffd914360001b611fab565b60000160009054906101000a900460ff1615611d5457611d4f83611fb5565b611e6d565b8273ffffffffffffffffffffffffffffffffffffffff166352d1902d6040518163ffffffff1660e01b8152600401602060405180830381865afa925050508015611dbc57506040513d601f19601f82011682018060405250810190611db99190613a45565b60015b611dfb576040517f08c379a0000000000000000000000000000000000000000000000000000000008152600401611df290613ae4565b60405180910390fd5b7f360894a13ba1a3210667c828492db98dca3e2076cc3735a920a3ca505d382bbc60001b8114611e60576040517f08c379a0000000000000000000000000000000000000000000000000000000008152600401611e5790613b76565b60405180910390fd5b50611e6c83838361206e565b5b505050565b600033905090565b6000609760009054906101000a900473ffffffffffffffffffffffffffffffffffffffff16905081609760006101000a81548173ffffffffffffffffffffffffffffffffffffffff021916908373ffffffffffffffffffffffffffffffffffffffff1602179055508173ffffffffffffffffffffffffffffffffffffffff168173ffffffffffffffffffffffffffffffffffffffff167f8be0079c531659141344cd1fd0a4f28419497f9722a3daafe3b4186f6b6457e060405160405180910390a35050565b600060019054906101000a900460ff16611f8f576040517f08c379a0000000000000000000000000000000000000000000000000000000008152600401611f86906139f9565b60405180910390fd5b611f9f611f9a611e72565b611e7a565b565b6000819050919050565b6000819050919050565b611fbe81611a71565b611ffd576040517f08c379a0000000000000000000000000000000000000000000000000000000008152600401611ff490613c08565b60405180910390fd5b8061202a7f360894a13ba1a3210667c828492db98dca3e2076cc3735a920a3ca505d382bbc60001b611fa1565b60000160006101000a81548173ffffffffffffffffffffffffffffffffffffffff021916908373ffffffffffffffffffffffffffffffffffffffff16021790555050565b6120778361209a565b6000825111806120845750805b156120955761209383836120e9565b505b505050565b6120a381611fb5565b8073ffffffffffffffffffffffffffffffffffffffff167fbc7cd75a20ee27fd9adebab32041f755214dbc6bffa90cc0225b39da2e5c2d3b60405160405180910390a250565b60606120f483611a71565b612133576040517f08c379a000000000000000000000000000000000000000000000000000000000815260040161212a90613c9a565b60405180910390fd5b6000808473ffffffffffffffffffffffffffffffffffffffff168460405161215b9190613ceb565b600060405180830381855af49150503d8060008114612196576040519150601f19603f3d011682016040523d82523d6000602084013e61219b565b606091505b50915091506121c38282604051806060016040528060278152602001613d03602791396121cd565b9250505092915050565b606083156121dd5782905061222d565b6000835111156121f05782518084602001fd5b816040517f08c379a00000000000000000000000000000000000000000000000000000000081526004016122249190612e2d565b60405180910390fd5b9392505050565b82805461224090613670565b90600052602060002090601f01602090048101928261226257600085556122a9565b82601f1061227b57805160ff19168380011785556122a9565b828001600101855582156122a9579182015b828111156122a857825182559160200191906001019061228d565b5b5090506122b691906122ba565b5090565b5b808211156122d35760008160009055506001016122bb565b5090565b600082825260208201905092915050565b7f6e6f7420616e206f776e65720000000000000000000000000000000000000000600082015250565b600061231e600c836122d7565b9150612329826122e8565b602082019050919050565b6000602082019050818103600083015261234d81612311565b9050919050565b7f76616c7565206571203000000000000000000000000000000000000000000000600082015250565b600061238a600a836122d7565b915061239582612354565b602082019050919050565b600060208201905081810360008301526123b98161237d565b9050919050565b6000819050919050565b7f4e487b7100000000000000000000000000000000000000000000000000000000600052601160045260246000fd5b6000612404826123c0565b915061240f836123c0565b9250827fffffffffffffffffffffffffffffffffffffffffffffffffffffffffffffffff03821115612444576124436123ca565b5b828201905092915050565b612458816123c0565b82525050565b6000606082019050612473600083018661244f565b612480602083018561244f565b61248d604083018461244f565b949350505050565b6000604051905090565b600080fd5b600080fd5b6124b2816123c0565b81146124bd57600080fd5b50565b6000813590506124cf816124a9565b92915050565b6000602082840312156124eb576124ea61249f565b5b60006124f9848285016124c0565b91505092915050565b600073ffffffffffffffffffffffffffffffffffffffff82169050919050565b600061252d82612502565b9050919050565b61253d81612522565b82525050565b60006020820190506125586000830184612534565b92915050565b61256781612522565b811461257257600080fd5b50565b6000813590506125848161255e565b92915050565b600080604083850312156125a1576125a061249f565b5b60006125af858286016124c0565b92505060206125c085828601612575565b9150509250929050565b60006020820190506125df600083018461244f565b92915050565b600080fd5b600080fd5b6000601f19601f8301169050919050565b7f4e487b7100000000000000000000000000000000000000000000000000000000600052604160045260246000fd5b612638826125ef565b810181811067ffffffffffffffff8211171561265757612656612600565b5b80604052505050565b600061266a612495565b9050612676828261262f565b919050565b600067ffffffffffffffff82111561269657612695612600565b5b61269f826125ef565b9050602081019050919050565b82818337600083830152505050565b60006126ce6126c98461267b565b612660565b9050828152602081018484840111156126ea576126e96125ea565b5b6126f58482856126ac565b509392505050565b600082601f830112612712576127116125e5565b5b81356127228482602086016126bb565b91505092915050565b600080600080608085870312156127455761274461249f565b5b600061275387828801612575565b945050602061276487828801612575565b9350506040612775878288016124c0565b925050606085013567ffffffffffffffff811115612796576127956124a4565b5b6127a2878288016126fd565b91505092959194509250565b60007fffffffff0000000000000000000000000000000000000000000000000000000082169050919050565b6127e3816127ae565b82525050565b60006020820190506127fe60008301846127da565b92915050565b600060ff82169050919050565b61281a81612804565b82525050565b60006020820190506128356000830184612811565b92915050565b600067ffffffffffffffff82111561285657612855612600565b5b602082029050602081019050919050565b600080fd5b600061287f61287a8461283b565b612660565b905080838252602082019050602084028301858111156128a2576128a1612867565b5b835b818110156128cb57806128b78882612575565b8452602084019350506020810190506128a4565b5050509392505050565b600082601f8301126128ea576128e96125e5565b5b81356128fa84826020860161286c565b91505092915050565b61290c81612804565b811461291757600080fd5b50565b60008135905061292981612903565b92915050565b600080604083850312156129465761294561249f565b5b600083013567ffffffffffffffff811115612964576129636124a4565b5b612970858286016128d5565b92505060206129818582860161291a565b9150509250929050565b6000602082840312156129a1576129a061249f565b5b60006129af84828501612575565b91505092915050565b60008115159050919050565b6129cd816129b8565b82525050565b60006020820190506129e860008301846129c4565b92915050565b60008060408385031215612a0557612a0461249f565b5b6000612a1385828601612575565b925050602083013567ffffffffffffffff811115612a3457612a336124a4565b5b612a40858286016126fd565b9150509250929050565b6000819050919050565b612a5d81612a4a565b82525050565b6000602082019050612a786000830184612a54565b92915050565b600081519050919050565b600082825260208201905092915050565b60005b83811015612ab8578082015181840152602081019050612a9d565b83811115612ac7576000848401525b50505050565b6000612ad882612a7e565b612ae28185612a89565b9350612af2818560208601612a9a565b612afb816125ef565b840191505092915050565b7f4e487b7100000000000000000000000000000000000000000000000000000000600052602160045260246000fd5b60038110612b4657612b45612b06565b5b50565b6000819050612b5782612b35565b919050565b6000612b6782612b49565b9050919050565b612b7781612b5c565b82525050565b6000608082019050612b926000830187612534565b8181036020830152612ba48186612acd565b9050612bb36040830185612b6e565b612bc0606083018461244f565b95945050505050565b600067ffffffffffffffff821115612be457612be3612600565b5b602082029050602081019050919050565b6000612c08612c0384612bc9565b612660565b90508083825260208201905060208402830185811115612c2b57612c2a612867565b5b835b81811015612c545780612c4088826124c0565b845260208401935050602081019050612c2d565b5050509392505050565b600082601f830112612c7357612c726125e5565b5b8135612c83848260208601612bf5565b91505092915050565b600080600080600080600080610100898b031215612cad57612cac61249f565b5b6000612cbb8b828c01612575565b985050602089013567ffffffffffffffff811115612cdc57612cdb6124a4565b5b612ce88b828c016126fd565b9750506040612cf98b828c016124c0565b965050606089013567ffffffffffffffff811115612d1a57612d196124a4565b5b612d268b828c016128d5565b955050608089013567ffffffffffffffff811115612d4757612d466124a4565b5b612d538b828c01612c5e565b94505060a0612d648b828c01612575565b93505060c0612d758b828c016124c0565b92505060e0612d868b828c016124c0565b9150509295985092959890939650565b600080600060608486031215612daf57612dae61249f565b5b6000612dbd868287016124c0565b9350506020612dce86828701612575565b9250506040612ddf868287016124c0565b9150509250925092565b600081519050919050565b6000612dff82612de9565b612e0981856122d7565b9350612e19818560208601612a9a565b612e22816125ef565b840191505092915050565b60006020820190508181036000830152612e478184612df4565b905092915050565b7f6f776e6572732072657175697265640000000000000000000000000000000000600082015250565b6000612e85600f836122d7565b9150612e9082612e4f565b602082019050919050565b60006020820190508181036000830152612eb481612e78565b9050919050565b7f696e76616c696420636f6e6669726d6174696f6e206e756d6265720000000000600082015250565b6000612ef1601b836122d7565b9150612efc82612ebb565b602082019050919050565b60006020820190508181036000830152612f2081612ee4565b9050919050565b7f4e487b7100000000000000000000000000000000000000000000000000000000600052603260045260246000fd5b7f6f776e6572206973206164647265737328302900000000000000000000000000600082015250565b6000612f8c6013836122d7565b9150612f9782612f56565b602082019050919050565b60006020820190508181036000830152612fbb81612f7f565b9050919050565b7f6f776e657220697320616c7265616479206c6973746564000000000000000000600082015250565b6000612ff86017836122d7565b915061300382612fc2565b602082019050919050565b6000602082019050818103600083015261302781612feb565b9050919050565b6000613039826123c0565b91507fffffffffffffffffffffffffffffffffffffffffffffffffffffffffffffffff820361306b5761306a6123ca565b5b600182019050919050565b600081519050919050565b600082825260208201905092915050565b6000819050602082019050919050565b6130ab81612522565b82525050565b60006130bd83836130a2565b60208301905092915050565b6000602082019050919050565b60006130e182613076565b6130eb8185613081565b93506130f683613092565b8060005b8381101561312757815161310e88826130b1565b9750613119836130c9565b9250506001810190506130fa565b5085935050505092915050565b6000819050919050565b600061315961315461314f84612804565b613134565b6123c0565b9050919050565b6131698161313e565b82525050565b6000604082019050818103600083015261318981856130d6565b90506131986020830184613160565b9392505050565b6000819050919050565b60006131c46131bf6131ba8461319f565b613134565b612804565b9050919050565b6131d4816131a9565b82525050565b60006020820190506131ef60008301846131cb565b92915050565b7f62616c616e636520657120300000000000000000000000000000000000000000600082015250565b600061322b600c836122d7565b9150613236826131f5565b602082019050919050565b6000602082019050818103600083015261325a8161321e565b9050919050565b7f616d6f756e742065712030000000000000000000000000000000000000000000600082015250565b6000613297600b836122d7565b91506132a282613261565b602082019050919050565b600060208201905081810360008301526132c68161328a565b9050919050565b7f746f6f2062696720616d6f756e74000000000000000000000000000000000000600082015250565b6000613303600e836122d7565b915061330e826132cd565b602082019050919050565b60006020820190508181036000830152613332816132f6565b9050919050565b6000613344826123c0565b915061334f836123c0565b925082821015613362576133616123ca565b5b828203905092915050565b600081905092915050565b50565b600061338860008361336d565b915061339382613378565b600082019050919050565b60006133a98261337b565b9150819050919050565b7f7472616e73616374696f6e206661696c65640000000000000000000000000000600082015250565b60006133e96012836122d7565b91506133f4826133b3565b602082019050919050565b60006020820190508181036000830152613418816133dc565b9050919050565b7f46756e6374696f6e206d7573742062652063616c6c6564207468726f7567682060008201527f64656c656761746563616c6c0000000000000000000000000000000000000000602082015250565b600061347b602c836122d7565b91506134868261341f565b604082019050919050565b600060208201905081810360008301526134aa8161346e565b9050919050565b7f46756e6374696f6e206d7573742062652063616c6c6564207468726f7567682060008201527f6163746976652070726f78790000000000000000000000000000000000000000602082015250565b600061350d602c836122d7565b9150613518826134b1565b604082019050919050565b6000602082019050818103600083015261353c81613500565b9050919050565b7f555550535570677261646561626c653a206d757374206e6f742062652063616c60008201527f6c6564207468726f7567682064656c656761746563616c6c0000000000000000602082015250565b600061359f6038836122d7565b91506135aa82613543565b604082019050919050565b600060208201905081810360008301526135ce81613592565b9050919050565b7f4f776e61626c653a2063616c6c6572206973206e6f7420746865206f776e6572600082015250565b600061360b6020836122d7565b9150613616826135d5565b602082019050919050565b6000602082019050818103600083015261363a816135fe565b9050919050565b7f4e487b7100000000000000000000000000000000000000000000000000000000600052602260045260246000fd5b6000600282049050600182168061368857607f821691505b60208210810361369b5761369a613641565b5b50919050565b7f6c656e677468206d69736d617463680000000000000000000000000000000000600082015250565b60006136d7600f836122d7565b91506136e2826136a1565b602082019050919050565b60006020820190508181036000830152613706816136ca565b9050919050565b600061371882612804565b915060ff820361372b5761372a6123ca565b5b600182019050919050565b600081519050919050565b600082825260208201905092915050565b6000819050602082019050919050565b61376b816123c0565b82525050565b600061377d8383613762565b60208301905092915050565b6000602082019050919050565b60006137a182613736565b6137ab8185613741565b93506137b683613752565b8060005b838110156137e75781516137ce8882613771565b97506137d983613789565b9250506001810190506137ba565b5085935050505092915050565b600060c082019050613809600083018961244f565b6138166020830188612534565b81810360408301526138288187612acd565b90506138376060830186612b6e565b613844608083018561244f565b81810360a08301526138568184613796565b9050979650505050505050565b7f4f776e61626c653a206e6577206f776e657220697320746865207a65726f206160008201527f6464726573730000000000000000000000000000000000000000000000000000602082015250565b60006138bf6026836122d7565b91506138ca82613863565b604082019050919050565b600060208201905081810360008301526138ee816138b2565b9050919050565b7f496e697469616c697a61626c653a20636f6e747261637420697320616c72656160008201527f647920696e697469616c697a6564000000000000000000000000000000000000602082015250565b6000613951602e836122d7565b915061395c826138f5565b604082019050919050565b6000602082019050818103600083015261398081613944565b9050919050565b7f496e697469616c697a61626c653a20636f6e7472616374206973206e6f74206960008201527f6e697469616c697a696e67000000000000000000000000000000000000000000602082015250565b60006139e3602b836122d7565b91506139ee82613987565b604082019050919050565b60006020820190508181036000830152613a12816139d6565b9050919050565b613a2281612a4a565b8114613a2d57600080fd5b50565b600081519050613a3f81613a19565b92915050565b600060208284031215613a5b57613a5a61249f565b5b6000613a6984828501613a30565b91505092915050565b7f45524331393637557067726164653a206e657720696d706c656d656e7461746960008201527f6f6e206973206e6f742055555053000000000000000000000000000000000000602082015250565b6000613ace602e836122d7565b9150613ad982613a72565b604082019050919050565b60006020820190508181036000830152613afd81613ac1565b9050919050565b7f45524331393637557067726164653a20756e737570706f727465642070726f7860008201527f6961626c65555549440000000000000000000000000000000000000000000000602082015250565b6000613b606029836122d7565b9150613b6b82613b04565b604082019050919050565b60006020820190508181036000830152613b8f81613b53565b9050919050565b7f455243313936373a206e657720696d706c656d656e746174696f6e206973206e60008201527f6f74206120636f6e747261637400000000000000000000000000000000000000602082015250565b6000613bf2602d836122d7565b9150613bfd82613b96565b604082019050919050565b60006020820190508181036000830152613c2181613be5565b9050919050565b7f416464726573733a2064656c65676174652063616c6c20746f206e6f6e2d636f60008201527f6e74726163740000000000000000000000000000000000000000000000000000602082015250565b6000613c846026836122d7565b9150613c8f82613c28565b604082019050919050565b60006020820190508181036000830152613cb381613c77565b9050919050565b6000613cc582612a7e565b613ccf818561336d565b9350613cdf818560208601612a9a565b80840191505092915050565b6000613cf78284613cba565b91508190509291505056fe416464726573733a206c6f772d6c6576656c2064656c65676174652063616c6c206661696c6564a26469706673582212207d0fec87cffd9d32cd4587ac3fb45c5a76dc777bb30fab52b0beb4b061c40c2a64736f6c634300080d0033",
  "linkReferences": {},
  "deployedLinkReferences": {}
}