{
  "_format": "hh-sol-artifact-1",
  "contractName": "CommownSWProxyFactory",
  "sourceName": "contracts/CommownSWProxyFactory.sol",
  "abi": [
    {
      "inputs": [],
      "stateMutability": "nonpayable",
      "type": "constructor"
    },
    {
      "anonymous": false,
      "inputs": [
        {
          "indexed": true,
          "internalType": "address",
          "name": "previousOwner",
          "type": "address"
        },
        {
          "indexed": true,
          "internalType": "address",
          "name": "newOwner",
          "type": "address"
        }
      ],
      "name": "OwnershipTransferred",
      "type": "event"
    },
    {
      "anonymous": false,
      "inputs": [
        {
          "indexed": true,
          "internalType": "address",
          "name": "adrs",
          "type": "address"
        },
        {
          "indexed": false,
          "internalType": "address[]",
          "name": "owners",
          "type": "address[]"
        }
      ],
      "name": "ProxyCreated",
      "type": "event"
    },
    {
      "inputs": [
        {
          "internalType": "address",
          "name": "",
          "type": "address"
        },
        {
          "internalType": "uint256",
          "name": "",
          "type": "uint256"
        }
      ],
      "name": "commownProxiesPerUser",
      "outputs": [
        {
          "internalType": "address",
          "name": "",
          "type": "address"
        }
      ],
      "stateMutability": "view",
      "type": "function"
    },
    {
      "inputs": [
        {
          "internalType": "bytes",
          "name": "_data",
          "type": "bytes"
        }
      ],
      "name": "createProxy",
      "outputs": [
        {
          "internalType": "address",
          "name": "",
          "type": "address"
        }
      ],
      "stateMutability": "nonpayable",
      "type": "function"
    },
    {
      "inputs": [
        {
          "internalType": "address",
          "name": "_contract",
          "type": "address"
        }
      ],
      "name": "defineNewLogic",
      "outputs": [],
      "stateMutability": "nonpayable",
      "type": "function"
    },
    {
      "inputs": [],
      "name": "logic",
      "outputs": [
        {
          "internalType": "address",
          "name": "",
          "type": "address"
        }
      ],
      "stateMutability": "view",
      "type": "function"
    },
    {
      "inputs": [
        {
          "internalType": "address",
          "name": "",
          "type": "address"
        }
      ],
      "name": "nbProxiesPerUser",
      "outputs": [
        {
          "internalType": "uint256",
          "name": "",
          "type": "uint256"
        }
      ],
      "stateMutability": "view",
      "type": "function"
    },
    {
      "inputs": [],
      "name": "owner",
      "outputs": [
        {
          "internalType": "address",
          "name": "",
          "type": "address"
        }
      ],
      "stateMutability": "view",
      "type": "function"
    },
    {
      "inputs": [
        {
          "internalType": "uint256",
          "name": "",
          "type": "uint256"
        }
      ],
      "name": "proxiesList",
      "outputs": [
        {
          "internalType": "address",
          "name": "",
          "type": "address"
        }
      ],
      "stateMutability": "view",
      "type": "function"
    },
    {
      "inputs": [],
      "name": "renounceOwnership",
      "outputs": [],
      "stateMutability": "nonpayable",
      "type": "function"
    },
    {
      "inputs": [
        {
          "internalType": "address",
          "name": "newOwner",
          "type": "address"
        }
      ],
      "name": "transferOwnership",
      "outputs": [],
      "stateMutability": "nonpayable",
      "type": "function"
    }
  ],
  "bytecode": "0x608060405234801561001057600080fd5b5061002d61002261009b60201b60201c565b6100a360201b60201c565b60405161003990610167565b604051809103906000f080158015610055573d6000803e3d6000fd5b50600160006101000a81548173ffffffffffffffffffffffffffffffffffffffff021916908373ffffffffffffffffffffffffffffffffffffffff160217905550610175565b600033905090565b60008060009054906101000a900473ffffffffffffffffffffffffffffffffffffffff169050816000806101000a81548173ffffffffffffffffffffffffffffffffffffffff021916908373ffffffffffffffffffffffffffffffffffffffff1602179055508173ffffffffffffffffffffffffffffffffffffffff168173ffffffffffffffffffffffffffffffffffffffff167f8be0079c531659141344cd1fd0a4f28419497f9722a3daafe3b4186f6b6457e060405160405180910390a35050565b61627b806200242083390190565b61229b80620001856000396000f3fe60806040523480156200001157600080fd5b5060043610620000a05760003560e01c80638da5cb5b116200006f5780638da5cb5b146200013d5780638f295d59146200015f578063adec742d1462000195578063d7dfa0dd14620001cb578063f2fde38b14620001ed57620000a0565b80631f48a07b14620000a5578063404addee14620000c5578063715018a614620000fb578063878dd62b1462000107575b600080fd5b620000c36004803603810190620000bd919062000cc9565b6200020d565b005b620000e36004803603810190620000dd919062000d36565b620002d4565b604051620000f2919062000d8e565b60405180910390f35b6200010562000323565b005b6200012560048036038101906200011f919062000cc9565b620003b4565b60405162000134919062000dbc565b60405180910390f35b62000147620003cc565b60405162000156919062000d8e565b60405180910390f35b6200017d600480360381019062000177919062000e47565b620003f5565b6040516200018c919062000d8e565b60405180910390f35b620001b36004803603810190620001ad919062000e9c565b62000862565b604051620001c2919062000d8e565b60405180910390f35b620001d5620008a2565b604051620001e4919062000d8e565b60405180910390f35b6200020b600480360381019062000205919062000cc9565b620008c8565b005b62000217620009cb565b73ffffffffffffffffffffffffffffffffffffffff1662000237620003cc565b73ffffffffffffffffffffffffffffffffffffffff161462000290576040517f08c379a0000000000000000000000000000000000000000000000000000000008152600401620002879062000f2f565b60405180910390fd5b80600160006101000a81548173ffffffffffffffffffffffffffffffffffffffff021916908373ffffffffffffffffffffffffffffffffffffffff16021790555050565b60026020528160005260406000208181548110620002f157600080fd5b906000526020600020016000915091509054906101000a900473ffffffffffffffffffffffffffffffffffffffff1681565b6200032d620009cb565b73ffffffffffffffffffffffffffffffffffffffff166200034d620003cc565b73ffffffffffffffffffffffffffffffffffffffff1614620003a6576040517f08c379a00000000000000000000000000000000000000000000000000000000081526004016200039d9062000f2f565b60405180910390fd5b620003b26000620009d3565b565b60036020528060005260406000206000915090505481565b60008060009054906101000a900473ffffffffffffffffffffffffffffffffffffffff16905090565b6000806200045a84848080601f016020809104026020016040519081016040528093929190818152602001838380828437600081840152601f19601f820116905080830192505050505050506004808787905062000454919062000f80565b62000a97565b905060006200047762000471836000602062000a97565b62000bc3565b90506000620004936200048d8484602062000a97565b62000bc3565b905060ff8160ff1611158015620004ad575060008160ff16115b620004ef576040517f08c379a0000000000000000000000000000000000000000000000000000000008152600401620004e6906200100b565b60405180910390fd5b6000600160009054906101000a900473ffffffffffffffffffffffffffffffffffffffff168787604051620005249062000c4c565b620005329392919062001091565b604051809103906000f0801580156200054f573d6000803e3d6000fd5b5090506004819080600181540180825580915050600190039060005260206000200160009091909190916101000a81548173ffffffffffffffffffffffffffffffffffffffff021916908373ffffffffffffffffffffffffffffffffffffffff16021790555060008260ff1667ffffffffffffffff811115620005d757620005d6620010c7565b5b604051908082528060200260200182016040528015620006065781602001602082028036833780820191505090505b50905060005b8360ff168160ff161015620008035762000661620006598760208462000633919062001103565b60ff1660208962000645919062001145565b62000651919062001145565b602062000a97565b600c62000bd1565b828260ff16815181106200067a5762000679620011a2565b5b602002602001019073ffffffffffffffffffffffffffffffffffffffff16908173ffffffffffffffffffffffffffffffffffffffff168152505060026000838360ff1681518110620006d157620006d0620011a2565b5b602002602001015173ffffffffffffffffffffffffffffffffffffffff1673ffffffffffffffffffffffffffffffffffffffff168152602001908152602001600020839080600181540180825580915050600190039060005260206000200160009091909190916101000a81548173ffffffffffffffffffffffffffffffffffffffff021916908373ffffffffffffffffffffffffffffffffffffffff160217905550600160036000848460ff1681518110620007935762000792620011a2565b5b602002602001015173ffffffffffffffffffffffffffffffffffffffff1673ffffffffffffffffffffffffffffffffffffffff1681526020019081526020016000206000828254620007e6919062001145565b925050819055508080620007fa90620011d1565b9150506200060c565b508173ffffffffffffffffffffffffffffffffffffffff167ffde274332a06d15775f8305f98b1665142facc59b7aa826609980b4e2a0c9aff826040516200084c9190620012cd565b60405180910390a2819550505050505092915050565b600481815481106200087357600080fd5b906000526020600020016000915054906101000a900473ffffffffffffffffffffffffffffffffffffffff1681565b600160009054906101000a900473ffffffffffffffffffffffffffffffffffffffff1681565b620008d2620009cb565b73ffffffffffffffffffffffffffffffffffffffff16620008f2620003cc565b73ffffffffffffffffffffffffffffffffffffffff16146200094b576040517f08c379a0000000000000000000000000000000000000000000000000000000008152600401620009429062000f2f565b60405180910390fd5b600073ffffffffffffffffffffffffffffffffffffffff168173ffffffffffffffffffffffffffffffffffffffff1603620009bd576040517f08c379a0000000000000000000000000000000000000000000000000000000008152600401620009b49062001367565b60405180910390fd5b620009c881620009d3565b50565b600033905090565b60008060009054906101000a900473ffffffffffffffffffffffffffffffffffffffff169050816000806101000a81548173ffffffffffffffffffffffffffffffffffffffff021916908373ffffffffffffffffffffffffffffffffffffffff1602179055508173ffffffffffffffffffffffffffffffffffffffff168173ffffffffffffffffffffffffffffffffffffffff167f8be0079c531659141344cd1fd0a4f28419497f9722a3daafe3b4186f6b6457e060405160405180910390a35050565b606081601f8362000aa9919062001145565b101562000aed576040517f08c379a000000000000000000000000000000000000000000000000000000000815260040162000ae490620013d9565b60405180910390fd5b818362000afb919062001145565b8451101562000b41576040517f08c379a000000000000000000000000000000000000000000000000000000000815260040162000b38906200144b565b60405180910390fd5b606082156000811462000b64576040519150600082526020820160405262000bb7565b6040519150601f8416801560200281840101858101878315602002848b0101015b8183101562000ba4578051835260208301925060208101905062000b85565b50868552601f19601f8301166040525050505b50809150509392505050565b600060208201519050919050565b600060148262000be2919062001145565b8351101562000c28576040517f08c379a000000000000000000000000000000000000000000000000000000000815260040162000c1f90620014bd565b60405180910390fd5b60006c01000000000000000000000000836020860101510490508091505092915050565b610d8680620014e083390190565b600080fd5b600080fd5b600073ffffffffffffffffffffffffffffffffffffffff82169050919050565b600062000c918262000c64565b9050919050565b62000ca38162000c84565b811462000caf57600080fd5b50565b60008135905062000cc38162000c98565b92915050565b60006020828403121562000ce25762000ce162000c5a565b5b600062000cf28482850162000cb2565b91505092915050565b6000819050919050565b62000d108162000cfb565b811462000d1c57600080fd5b50565b60008135905062000d308162000d05565b92915050565b6000806040838503121562000d505762000d4f62000c5a565b5b600062000d608582860162000cb2565b925050602062000d738582860162000d1f565b9150509250929050565b62000d888162000c84565b82525050565b600060208201905062000da5600083018462000d7d565b92915050565b62000db68162000cfb565b82525050565b600060208201905062000dd3600083018462000dab565b92915050565b600080fd5b600080fd5b600080fd5b60008083601f84011262000e015762000e0062000dd9565b5b8235905067ffffffffffffffff81111562000e215762000e2062000dde565b5b60208301915083600182028301111562000e405762000e3f62000de3565b5b9250929050565b6000806020838503121562000e615762000e6062000c5a565b5b600083013567ffffffffffffffff81111562000e825762000e8162000c5f565b5b62000e908582860162000de8565b92509250509250929050565b60006020828403121562000eb55762000eb462000c5a565b5b600062000ec58482850162000d1f565b91505092915050565b600082825260208201905092915050565b7f4f776e61626c653a2063616c6c6572206973206e6f7420746865206f776e6572600082015250565b600062000f1760208362000ece565b915062000f248262000edf565b602082019050919050565b6000602082019050818103600083015262000f4a8162000f08565b9050919050565b7f4e487b7100000000000000000000000000000000000000000000000000000000600052601160045260246000fd5b600062000f8d8262000cfb565b915062000f9a8362000cfb565b92508282101562000fb05762000faf62000f51565b5b828203905092915050565b7f5f6f776e6572732e6c656e6774682077726f6e67000000000000000000000000600082015250565b600062000ff360148362000ece565b9150620010008262000fbb565b602082019050919050565b60006020820190508181036000830152620010268162000fe4565b9050919050565b600082825260208201905092915050565b82818337600083830152505050565b6000601f19601f8301169050919050565b60006200106c83856200102d565b93506200107b8385846200103e565b62001086836200104d565b840190509392505050565b6000604082019050620010a8600083018662000d7d565b8181036020830152620010bd8184866200105e565b9050949350505050565b7f4e487b7100000000000000000000000000000000000000000000000000000000600052604160045260246000fd5b600060ff82169050919050565b60006200111082620010f6565b91506200111d83620010f6565b92508160ff04831182151516156200113a576200113962000f51565b5b828202905092915050565b6000620011528262000cfb565b91506200115f8362000cfb565b9250827fffffffffffffffffffffffffffffffffffffffffffffffffffffffffffffffff0382111562001197576200119662000f51565b5b828201905092915050565b7f4e487b7100000000000000000000000000000000000000000000000000000000600052603260045260246000fd5b6000620011de82620010f6565b915060ff8203620011f457620011f362000f51565b5b600182019050919050565b600081519050919050565b600082825260208201905092915050565b6000819050602082019050919050565b620012368162000c84565b82525050565b60006200124a83836200122b565b60208301905092915050565b6000602082019050919050565b60006200127082620011ff565b6200127c81856200120a565b935062001289836200121b565b8060005b83811015620012c0578151620012a488826200123c565b9750620012b18362001256565b9250506001810190506200128d565b5085935050505092915050565b60006020820190508181036000830152620012e9818462001263565b905092915050565b7f4f776e61626c653a206e6577206f776e657220697320746865207a65726f206160008201527f6464726573730000000000000000000000000000000000000000000000000000602082015250565b60006200134f60268362000ece565b91506200135c82620012f1565b604082019050919050565b60006020820190508181036000830152620013828162001340565b9050919050565b7f736c6963655f6f766572666c6f77000000000000000000000000000000000000600082015250565b6000620013c1600e8362000ece565b9150620013ce8262001389565b602082019050919050565b60006020820190508181036000830152620013f481620013b2565b9050919050565b7f736c6963655f6f75744f66426f756e6473000000000000000000000000000000600082015250565b60006200143360118362000ece565b91506200144082620013fb565b602082019050919050565b60006020820190508181036000830152620014668162001424565b9050919050565b7f746f416464726573735f6f75744f66426f756e64730000000000000000000000600082015250565b6000620014a560158362000ece565b9150620014b2826200146d565b602082019050919050565b60006020820190508181036000830152620014d88162001496565b905091905056fe608060405260405162000d8638038062000d868339818101604052810190620000299190620005d4565b60017f360894a13ba1a3210667c828492db98dca3e2076cc3735a920a3ca505d382bbd60001c6200005b919062000673565b60001b7f360894a13ba1a3210667c828492db98dca3e2076cc3735a920a3ca505d382bbc60001b14620000935762000092620006ae565b5b620000a782826000620000af60201b60201c565b5050620008f4565b620000c083620000f260201b60201c565b600082511180620000ce5750805b15620000ed57620000eb83836200014960201b620000371760201c565b505b505050565b62000103816200017f60201b60201c565b8073ffffffffffffffffffffffffffffffffffffffff167fbc7cd75a20ee27fd9adebab32041f755214dbc6bffa90cc0225b39da2e5c2d3b60405160405180910390a250565b606062000177838360405180606001604052806027815260200162000d5f602791396200025560201b60201c565b905092915050565b62000195816200033960201b620000641760201c565b620001d7576040517f08c379a0000000000000000000000000000000000000000000000000000000008152600401620001ce9062000764565b60405180910390fd5b80620002117f360894a13ba1a3210667c828492db98dca3e2076cc3735a920a3ca505d382bbc60001b6200035c60201b620000871760201c565b60000160006101000a81548173ffffffffffffffffffffffffffffffffffffffff021916908373ffffffffffffffffffffffffffffffffffffffff16021790555050565b606062000268846200033960201b60201c565b620002aa576040517f08c379a0000000000000000000000000000000000000000000000000000000008152600401620002a190620007fc565b60405180910390fd5b6000808573ffffffffffffffffffffffffffffffffffffffff1685604051620002d491906200086b565b600060405180830381855af49150503d806000811462000311576040519150601f19603f3d011682016040523d82523d6000602084013e62000316565b606091505b50915091506200032e8282866200036660201b60201c565b925050509392505050565b6000808273ffffffffffffffffffffffffffffffffffffffff163b119050919050565b6000819050919050565b606083156200037857829050620003cb565b6000835111156200038c5782518084602001fd5b816040517f08c379a0000000000000000000000000000000000000000000000000000000008152600401620003c29190620008d0565b60405180910390fd5b9392505050565b6000604051905090565b600080fd5b600080fd5b600073ffffffffffffffffffffffffffffffffffffffff82169050919050565b60006200041382620003e6565b9050919050565b620004258162000406565b81146200043157600080fd5b50565b60008151905062000445816200041a565b92915050565b600080fd5b600080fd5b6000601f19601f8301169050919050565b7f4e487b7100000000000000000000000000000000000000000000000000000000600052604160045260246000fd5b620004a08262000455565b810181811067ffffffffffffffff82111715620004c257620004c162000466565b5b80604052505050565b6000620004d7620003d2565b9050620004e5828262000495565b919050565b600067ffffffffffffffff82111562000508576200050762000466565b5b620005138262000455565b9050602081019050919050565b60005b838110156200054057808201518184015260208101905062000523565b8381111562000550576000848401525b50505050565b60006200056d6200056784620004ea565b620004cb565b9050828152602081018484840111156200058c576200058b62000450565b5b6200059984828562000520565b509392505050565b600082601f830112620005b957620005b86200044b565b5b8151620005cb84826020860162000556565b91505092915050565b60008060408385031215620005ee57620005ed620003dc565b5b6000620005fe8582860162000434565b925050602083015167ffffffffffffffff811115620006225762000621620003e1565b5b6200063085828601620005a1565b9150509250929050565b6000819050919050565b7f4e487b7100000000000000000000000000000000000000000000000000000000600052601160045260246000fd5b600062000680826200063a565b91506200068d836200063a565b925082821015620006a357620006a262000644565b5b828203905092915050565b7f4e487b7100000000000000000000000000000000000000000000000000000000600052600160045260246000fd5b600082825260208201905092915050565b7f455243313936373a206e657720696d706c656d656e746174696f6e206973206e60008201527f6f74206120636f6e747261637400000000000000000000000000000000000000602082015250565b60006200074c602d83620006dd565b91506200075982620006ee565b604082019050919050565b600060208201905081810360008301526200077f816200073d565b9050919050565b7f416464726573733a2064656c65676174652063616c6c20746f206e6f6e2d636f60008201527f6e74726163740000000000000000000000000000000000000000000000000000602082015250565b6000620007e4602683620006dd565b9150620007f18262000786565b604082019050919050565b600060208201905081810360008301526200081781620007d5565b9050919050565b600081519050919050565b600081905092915050565b600062000841826200081e565b6200084d818562000829565b93506200085f81856020860162000520565b80840191505092915050565b600062000879828462000834565b915081905092915050565b600081519050919050565b60006200089c8262000884565b620008a88185620006dd565b9350620008ba81856020860162000520565b620008c58162000455565b840191505092915050565b60006020820190508181036000830152620008ec81846200088f565b905092915050565b61045b80620009046000396000f3fe6080604052366100135761001161001d565b005b61001b61001d565b005b610025610091565b610035610030610093565b6100a2565b565b606061005c83836040518060600160405280602781526020016103ff602791396100c8565b905092915050565b6000808273ffffffffffffffffffffffffffffffffffffffff163b119050919050565b6000819050919050565b565b600061009d610195565b905090565b3660008037600080366000845af43d6000803e80600081146100c3573d6000f35b3d6000fd5b60606100d384610064565b610112576040517f08c379a0000000000000000000000000000000000000000000000000000000008152600401610109906102d6565b60405180910390fd5b6000808573ffffffffffffffffffffffffffffffffffffffff168560405161013a9190610370565b600060405180830381855af49150503d8060008114610175576040519150601f19603f3d011682016040523d82523d6000602084013e61017a565b606091505b509150915061018a8282866101ec565b925050509392505050565b60006101c37f360894a13ba1a3210667c828492db98dca3e2076cc3735a920a3ca505d382bbc60001b610087565b60000160009054906101000a900473ffffffffffffffffffffffffffffffffffffffff16905090565b606083156101fc5782905061024c565b60008351111561020f5782518084602001fd5b816040517f08c379a000000000000000000000000000000000000000000000000000000000815260040161024391906103dc565b60405180910390fd5b9392505050565b600082825260208201905092915050565b7f416464726573733a2064656c65676174652063616c6c20746f206e6f6e2d636f60008201527f6e74726163740000000000000000000000000000000000000000000000000000602082015250565b60006102c0602683610253565b91506102cb82610264565b604082019050919050565b600060208201905081810360008301526102ef816102b3565b9050919050565b600081519050919050565b600081905092915050565b60005b8381101561032a57808201518184015260208101905061030f565b83811115610339576000848401525b50505050565b600061034a826102f6565b6103548185610301565b935061036481856020860161030c565b80840191505092915050565b600061037c828461033f565b915081905092915050565b600081519050919050565b6000601f19601f8301169050919050565b60006103ae82610387565b6103b88185610253565b93506103c881856020860161030c565b6103d181610392565b840191505092915050565b600060208201905081810360008301526103f681846103a3565b90509291505056fe416464726573733a206c6f772d6c6576656c2064656c65676174652063616c6c206661696c6564a2646970667358221220e7ad0133b9d7b8ba046931d6e493290054d3bb31bdb06986a7c5cff55b817b7c64736f6c634300080d0033416464726573733a206c6f772d6c6576656c2064656c65676174652063616c6c206661696c6564a2646970667358221220aab731e74e38bfc67b02dc1bafe4a9f7a4dae20ad9f19724aad56bcfc983940864736f6c634300080d003360a06040523073ffffffffffffffffffffffffffffffffffffffff1660809073ffffffffffffffffffffffffffffffffffffffff168152503480156200004457600080fd5b506000620000596001620000e160201b60201c565b905080156200007e576001600060016101000a81548160ff0219169083151502179055505b8015620000da5760008060016101000a81548160ff0219169083151502179055507f7f26b83ff96e1f2b6a682f133852f6798a09c465da95921460cefb38474024986001604051620000d1919062000264565b60405180910390a15b506200032a565b60008060019054906101000a900460ff16156200016b5760018260ff161480156200011f57506200011d30620001e760201b620027f91760201c565b155b62000161576040517f08c379a0000000000000000000000000000000000000000000000000000000008152600401620001589062000308565b60405180910390fd5b60009050620001e2565b8160ff1660008054906101000a900460ff1660ff1610620001c3576040517f08c379a0000000000000000000000000000000000000000000000000000000008152600401620001ba9062000308565b60405180910390fd5b816000806101000a81548160ff021916908360ff160217905550600190505b919050565b6000808273ffffffffffffffffffffffffffffffffffffffff163b119050919050565b6000819050919050565b600060ff82169050919050565b6000819050919050565b60006200024c6200024662000240846200020a565b62000221565b62000214565b9050919050565b6200025e816200022b565b82525050565b60006020820190506200027b600083018462000253565b92915050565b600082825260208201905092915050565b7f496e697469616c697a61626c653a20636f6e747261637420697320616c72656160008201527f647920696e697469616c697a6564000000000000000000000000000000000000602082015250565b6000620002f0602e8362000281565b9150620002fd8262000292565b604082019050919050565b600060208201905081810360008301526200032381620002e1565b9050919050565b608051615f196200036260003960008181610fc3015281816110540152818161118a0152818161121b01526117b50152615f196000f3fe608060405260043610620001635760003560e01c806350223d5911620000c75780639e2ae93e11620000795780639e2ae93e14620006e1578063c518cd93146200070f578063eb53a0571462000753578063ee98fc721462000781578063f2fde38b14620007c5578063ffa1ad7414620007f3576200032c565b806350223d5914620005aa57806352d1902d14620005f5578063715018a614620006255780638da5cb5b146200063f5780638fe371d2146200066f5780638ff9626b14620006b3576200032c565b80632b9a9f5011620001215780632b9a9f5014620004765780632e1a7d4d14620004a65780632f54bf6e14620004d45780633659cfe614620005185780633e6d21fa14620005465780634f1ef286146200058a576200032c565b8063025e7c271462000331578063032676ee14620003755780630be6aa5d14620003be5780630d2e47c11462000402578063150b7a021462000432576200032c565b366200032c573360cb60008273ffffffffffffffffffffffffffffffffffffffff1673ffffffffffffffffffffffffffffffffffffffff16815260200190815260200160002060009054906101000a900460ff16620001f9576040517f08c379a0000000000000000000000000000000000000000000000000000000008152600401620001f0906200307f565b60405180910390fd5b600034116200023f576040517f08c379a00000000000000000000000000000000000000000000000000000000081526004016200023690620030f1565b60405180910390fd5b3460cc60003373ffffffffffffffffffffffffffffffffffffffff1673ffffffffffffffffffffffffffffffffffffffff16815260200190815260200160002060008282546200029091906200314c565b925050819055503373ffffffffffffffffffffffffffffffffffffffff167f36af321ec8d3c75236829c5317affd40ddb308863a1236d2d277a4025cccee1e3460cc60003373ffffffffffffffffffffffffffffffffffffffff1673ffffffffffffffffffffffffffffffffffffffff16815260200190815260200160002054476040516200032293929190620031ba565b60405180910390a2005b600080fd5b3480156200033e57600080fd5b506200035d60048036038101906200035791906200323c565b62000823565b6040516200036c9190620032b3565b60405180910390f35b3480156200038257600080fd5b50620003a160048036038101906200039b91906200323c565b62000863565b604051620003b596959493929190620033a1565b60405180910390f35b348015620003cb57600080fd5b50620003ea6004803603810190620003e491906200343f565b62000c51565b604051620003f9919062003486565b60405180910390f35b3480156200040f57600080fd5b506200041a62000c76565b60405162000429919062003486565b60405180910390f35b3480156200043f57600080fd5b506200045e600480360381019062000458919062003605565b62000c7c565b6040516200046d9190620036d3565b60405180910390f35b3480156200048357600080fd5b506200048e62000c90565b6040516200049d91906200370e565b60405180910390f35b348015620004b357600080fd5b50620004d26004803603810190620004cc91906200323c565b62000ca3565b005b348015620004e157600080fd5b50620005006004803603810190620004fa91906200372b565b62000fa1565b6040516200050f91906200377a565b60405180910390f35b3480156200052557600080fd5b506200054460048036038101906200053e91906200372b565b62000fc1565b005b3480156200055357600080fd5b506200057260048036038101906200056c91906200343f565b62001159565b6040516200058191906200377a565b60405180910390f35b620005a86004803603810190620005a2919062003797565b62001188565b005b348015620005b757600080fd5b50620005d66004803603810190620005d091906200323c565b620012d0565b604051620005ec98979695949392919062003890565b60405180910390f35b3480156200060257600080fd5b506200060d620017b1565b6040516200061c919062003940565b60405180910390f35b3480156200063257600080fd5b506200063d6200186d565b005b3480156200064c57600080fd5b5062000657620018fe565b604051620006669190620032b3565b60405180910390f35b3480156200067c57600080fd5b506200069b60048036038101906200069591906200323c565b62001928565b604051620006aa9190620039c8565b60405180910390f35b348015620006c057600080fd5b50620006df6004803603810190620006d991906200323c565b62001968565b005b348015620006ee57600080fd5b506200070d600480360381019062000707919062003a76565b62001ea1565b005b3480156200071c57600080fd5b506200073b60048036038101906200073591906200323c565b6200224d565b6040516200074a91906200370e565b60405180910390f35b3480156200076057600080fd5b506200077f600480360381019062000779919062003c88565b6200226d565b005b3480156200078e57600080fd5b50620007ad6004803603810190620007a791906200372b565b620026a5565b604051620007bc919062003486565b60405180910390f35b348015620007d257600080fd5b50620007f16004803603810190620007eb91906200372b565b620026bd565b005b3480156200080057600080fd5b506200080b620027c0565b6040516200081a919062003d4f565b60405180910390f35b60c981815481106200083457600080fd5b906000526020600020016000915054906101000a900473ffffffffffffffffffffffffffffffffffffffff1681565b6000806000806000803360cb60008273ffffffffffffffffffffffffffffffffffffffff1673ffffffffffffffffffffffffffffffffffffffff16815260200190815260200160002060009054906101000a900460ff16620008fc576040517f08c379a0000000000000000000000000000000000000000000000000000000008152600401620008f3906200307f565b60405180910390fd5b8760ca80549050811062000947576040517f08c379a00000000000000000000000000000000000000000000000000000000081526004016200093e9062003dc3565b60405180910390fd5b600060ca8a8154811062000960576200095f62003de5565b5b9060005260206000200160009054906101000a900473ffffffffffffffffffffffffffffffffffffffff1690508073ffffffffffffffffffffffffffffffffffffffff1663f2a4a82e6040518163ffffffff1660e01b8152600401602060405180830381865afa158015620009d9573d6000803e3d6000fd5b505050506040513d601f19601f82011682018060405250810190620009ff919062003e2b565b8173ffffffffffffffffffffffffffffffffffffffff16637ee535266040518163ffffffff1660e01b8152600401602060405180830381865afa15801562000a4b573d6000803e3d6000fd5b505050506040513d601f19601f8201168201806040525081019062000a71919062003e85565b8273ffffffffffffffffffffffffffffffffffffffff1663216b91166040518163ffffffff1660e01b8152600401602060405180830381865afa15801562000abd573d6000803e3d6000fd5b505050506040513d601f19601f8201168201806040525081019062000ae3919062003ece565b8373ffffffffffffffffffffffffffffffffffffffff16631a39d8ef6040518163ffffffff1660e01b8152600401602060405180830381865afa15801562000b2f573d6000803e3d6000fd5b505050506040513d601f19601f8201168201806040525081019062000b55919062003f17565b8473ffffffffffffffffffffffffffffffffffffffff1663af640d0f6040518163ffffffff1660e01b8152600401602060405180830381865afa15801562000ba1573d6000803e3d6000fd5b505050506040513d601f19601f8201168201806040525081019062000bc7919062003f17565b8573ffffffffffffffffffffffffffffffffffffffff16638285a3026040518163ffffffff1660e01b8152600401602060405180830381865afa15801562000c13573d6000803e3d6000fd5b505050506040513d601f19601f8201168201806040525081019062000c39919062003f17565b98509850985098509850985050505091939550919395565b60d0602052816000526040600020602052806000526040600020600091509150505481565b60ce5481565b600063150b7a0260e01b9050949350505050565b60cd60009054906101000a900460ff1681565b3360cb60008273ffffffffffffffffffffffffffffffffffffffff1673ffffffffffffffffffffffffffffffffffffffff16815260200190815260200160002060009054906101000a900460ff1662000d33576040517f08c379a000000000000000000000000000000000000000000000000000000000815260040162000d2a906200307f565b60405180910390fd5b6000821162000d79576040517f08c379a000000000000000000000000000000000000000000000000000000000815260040162000d709062003f99565b60405180910390fd5b60cc60003373ffffffffffffffffffffffffffffffffffffffff1673ffffffffffffffffffffffffffffffffffffffff1681526020019081526020016000205482111562000dfe576040517f08c379a000000000000000000000000000000000000000000000000000000000815260040162000df5906200400b565b60405180910390fd5b8160cc60003373ffffffffffffffffffffffffffffffffffffffff1673ffffffffffffffffffffffffffffffffffffffff168152602001908152602001600020600082825462000e4f91906200402d565b9250508190555060003373ffffffffffffffffffffffffffffffffffffffff168360405162000e7e906200409d565b60006040518083038185875af1925050503d806000811462000ebd576040519150601f19603f3d011682016040523d82523d6000602084013e62000ec2565b606091505b505090508062000f09576040517f08c379a000000000000000000000000000000000000000000000000000000000815260040162000f009062004104565b60405180910390fd5b3373ffffffffffffffffffffffffffffffffffffffff167f02f25270a4d87bea75db541cdfe559334a275b4a233520ed6c0a2429667cca948460cc60003373ffffffffffffffffffffffffffffffffffffffff1673ffffffffffffffffffffffffffffffffffffffff168152602001908152602001600020544760405162000f9493929190620031ba565b60405180910390a2505050565b60cb6020528060005260406000206000915054906101000a900460ff1681565b7f000000000000000000000000000000000000000000000000000000000000000073ffffffffffffffffffffffffffffffffffffffff163073ffffffffffffffffffffffffffffffffffffffff160362001052576040517f08c379a000000000000000000000000000000000000000000000000000000000815260040162001049906200419c565b60405180910390fd5b7f000000000000000000000000000000000000000000000000000000000000000073ffffffffffffffffffffffffffffffffffffffff16620010936200281c565b73ffffffffffffffffffffffffffffffffffffffff1614620010ec576040517f08c379a0000000000000000000000000000000000000000000000000000000008152600401620010e39062004234565b60405180910390fd5b620010f78162002875565b6200115681600067ffffffffffffffff8111156200111a5762001119620034be565b5b6040519080825280601f01601f1916602001820160405280156200114d5781602001600182028036833780820191505090505b506000620028fb565b50565b60cf6020528160005260406000206020528060005260406000206000915091509054906101000a900460ff1681565b7f000000000000000000000000000000000000000000000000000000000000000073ffffffffffffffffffffffffffffffffffffffff163073ffffffffffffffffffffffffffffffffffffffff160362001219576040517f08c379a000000000000000000000000000000000000000000000000000000000815260040162001210906200419c565b60405180910390fd5b7f000000000000000000000000000000000000000000000000000000000000000073ffffffffffffffffffffffffffffffffffffffff166200125a6200281c565b73ffffffffffffffffffffffffffffffffffffffff1614620012b3576040517f08c379a0000000000000000000000000000000000000000000000000000000008152600401620012aa9062004234565b60405180910390fd5b620012be8262002875565b620012cc82826001620028fb565b5050565b600080606060008060008060003360cb60008273ffffffffffffffffffffffffffffffffffffffff1673ffffffffffffffffffffffffffffffffffffffff16815260200190815260200160002060009054906101000a900460ff166200136d576040517f08c379a000000000000000000000000000000000000000000000000000000000815260040162001364906200307f565b60405180910390fd5b8960ca805490508110620013b8576040517f08c379a0000000000000000000000000000000000000000000000000000000008152600401620013af9062003dc3565b60405180910390fd5b600060ca8c81548110620013d157620013d062003de5565b5b9060005260206000200160009054906101000a900473ffffffffffffffffffffffffffffffffffffffff1690508073ffffffffffffffffffffffffffffffffffffffff1663131519816040518163ffffffff1660e01b8152600401602060405180830381865afa1580156200144a573d6000803e3d6000fd5b505050506040513d601f19601f8201168201806040525081019062001470919062003e2b565b8173ffffffffffffffffffffffffffffffffffffffff1663f2a4a82e6040518163ffffffff1660e01b8152600401602060405180830381865afa158015620014bc573d6000803e3d6000fd5b505050506040513d601f19601f82011682018060405250810190620014e2919062003e2b565b8273ffffffffffffffffffffffffffffffffffffffff166373d4a13a6040518163ffffffff1660e01b8152600401600060405180830381865afa1580156200152e573d6000803e3d6000fd5b505050506040513d6000823e3d601f19601f82011682018060405250810190620015599190620042d4565b8373ffffffffffffffffffffffffffffffffffffffff16637ee535266040518163ffffffff1660e01b8152600401602060405180830381865afa158015620015a5573d6000803e3d6000fd5b505050506040513d601f19601f82011682018060405250810190620015cb919062003e85565b8473ffffffffffffffffffffffffffffffffffffffff1663216b91166040518163ffffffff1660e01b8152600401602060405180830381865afa15801562001617573d6000803e3d6000fd5b505050506040513d601f19601f820116820180604052508101906200163d919062003ece565b8573ffffffffffffffffffffffffffffffffffffffff16631a39d8ef6040518163ffffffff1660e01b8152600401602060405180830381865afa15801562001689573d6000803e3d6000fd5b505050506040513d601f19601f82011682018060405250810190620016af919062003f17565b8673ffffffffffffffffffffffffffffffffffffffff1663af640d0f6040518163ffffffff1660e01b8152600401602060405180830381865afa158015620016fb573d6000803e3d6000fd5b505050506040513d601f19601f8201168201806040525081019062001721919062003f17565b8773ffffffffffffffffffffffffffffffffffffffff16638285a3026040518163ffffffff1660e01b8152600401602060405180830381865afa1580156200176d573d6000803e3d6000fd5b505050506040513d601f19601f8201168201806040525081019062001793919062003f17565b9a509a509a509a509a509a509a509a50505050919395975091939597565b60007f000000000000000000000000000000000000000000000000000000000000000073ffffffffffffffffffffffffffffffffffffffff163073ffffffffffffffffffffffffffffffffffffffff161462001844576040517f08c379a00000000000000000000000000000000000000000000000000000000081526004016200183b906200439b565b60405180910390fd5b7f360894a13ba1a3210667c828492db98dca3e2076cc3735a920a3ca505d382bbc60001b905090565b6200187762002a7a565b73ffffffffffffffffffffffffffffffffffffffff1662001897620018fe565b73ffffffffffffffffffffffffffffffffffffffff1614620018f0576040517f08c379a0000000000000000000000000000000000000000000000000000000008152600401620018e7906200440d565b60405180910390fd5b620018fc600062002a82565b565b6000609760009054906101000a900473ffffffffffffffffffffffffffffffffffffffff16905090565b60ca81815481106200193957600080fd5b906000526020600020016000915054906101000a900473ffffffffffffffffffffffffffffffffffffffff1681565b3360cb60008273ffffffffffffffffffffffffffffffffffffffff1673ffffffffffffffffffffffffffffffffffffffff16815260200190815260200160002060009054906101000a900460ff16620019f8576040517f08c379a0000000000000000000000000000000000000000000000000000000008152600401620019ef906200307f565b60405180910390fd5b8160ca80549050811062001a43576040517f08c379a000000000000000000000000000000000000000000000000000000000815260040162001a3a9062003dc3565b60405180910390fd5b823360cf600083815260200190815260200160002060008273ffffffffffffffffffffffffffffffffffffffff1673ffffffffffffffffffffffffffffffffffffffff16815260200190815260200160002060009054906101000a900460ff161562001ae6576040517f08c379a000000000000000000000000000000000000000000000000000000000815260040162001add906200447f565b60405180910390fd5b84600080600281111562001aff5762001afe620032d0565b5b60ca838154811062001b165762001b1562003de5565b5b9060005260206000200160009054906101000a900473ffffffffffffffffffffffffffffffffffffffff1673ffffffffffffffffffffffffffffffffffffffff16637ee535266040518163ffffffff1660e01b8152600401602060405180830381865afa15801562001b8c573d6000803e3d6000fd5b505050506040513d601f19601f8201168201806040525081019062001bb2919062003e85565b600281111562001bc75762001bc6620032d0565b5b1462001c0a576040517f08c379a000000000000000000000000000000000000000000000000000000000815260040162001c0190620044f1565b60405180910390fd5b60cd60009054906101000a900460ff1660ff1660d1600089815260200190815260200160002060009054906101000a900460ff1660ff161062001c84576040517f08c379a000000000000000000000000000000000000000000000000000000000815260040162001c7b9062004563565b60405180910390fd5b600160d1600089815260200190815260200160002060008282829054906101000a900460ff1662001cb6919062004585565b92506101000a81548160ff021916908360ff160217905550600160cf600089815260200190815260200160002060003373ffffffffffffffffffffffffffffffffffffffff1673ffffffffffffffffffffffffffffffffffffffff16815260200190815260200160002060006101000a81548160ff02191690831515021790555060cd60009054906101000a900460ff1660ff1660d1600089815260200190815260200160002060009054906101000a900460ff1660ff160362001e265760ca878154811062001d8b5762001d8a62003de5565b5b9060005260206000200160009054906101000a900473ffffffffffffffffffffffffffffffffffffffff1673ffffffffffffffffffffffffffffffffffffffff16632e49d78b60016040518263ffffffff1660e01b815260040162001df19190620045c3565b600060405180830381600087803b15801562001e0c57600080fd5b505af115801562001e21573d6000803e3d6000fd5b505050505b3373ffffffffffffffffffffffffffffffffffffffff167fb1d6e43cce28a7016da6d45448f724583846839ddc5bc750eee03c265623ec9a8860d160008b815260200190815260200160002060009054906101000a900460ff1660405162001e90929190620045e0565b60405180910390a250505050505050565b3360cb60008273ffffffffffffffffffffffffffffffffffffffff1673ffffffffffffffffffffffffffffffffffffffff16815260200190815260200160002060009054906101000a900460ff1662001f31576040517f08c379a000000000000000000000000000000000000000000000000000000000815260040162001f28906200307f565b60405180910390fd5b600087879050905060008111801562001f4b575060ff8111155b62001f8d576040517f08c379a000000000000000000000000000000000000000000000000000000000815260040162001f84906200465d565b60405180910390fd5b60ca8054905060ce8190555060005b818160ff1610156200212a5760cb60008a8a8460ff1681811062001fc55762001fc462003de5565b5b905060400201600001602081019062001fdf91906200372b565b73ffffffffffffffffffffffffffffffffffffffff1673ffffffffffffffffffffffffffffffffffffffff16815260200190815260200160002060009054906101000a900460ff1662002069576040517f08c379a000000000000000000000000000000000000000000000000000000000815260040162002060906200307f565b60405180910390fd5b88888260ff1681811062002082576200208162003de5565b5b9050604002016020013560d0600060ce54815260200190815260200160002060008b8b8560ff16818110620020bc57620020bb62003de5565b5b9050604002016000016020810190620020d691906200372b565b73ffffffffffffffffffffffffffffffffffffffff1673ffffffffffffffffffffffffffffffffffffffff16815260200190815260200160002081905550808062002121906200467f565b91505062001f9c565b5060ca8b878c8c898989604051620021429062003010565b620021549796959493929190620046ad565b604051809103906000f08015801562002171573d6000803e3d6000fd5b509080600181540180825580915050600190039060005260206000200160009091909190916101000a81548173ffffffffffffffffffffffffffffffffffffffff021916908373ffffffffffffffffffffffffffffffffffffffff1602179055503373ffffffffffffffffffffffffffffffffffffffff167f70637f0a6f4a7de8a41791091781fe4114d28855fdffc39e7637f344a55fa30860ce548d8d6000888f8f8f6040516200222b98979695949392919062004882565b60405180910390a26200224060ce5462001968565b5050505050505050505050565b60d16020528060005260406000206000915054906101000a900460ff1681565b60006200227b600162002b48565b90508015620022a0576001600060016101000a81548160ff0219169083151502179055505b60008451905060ff8111158015620022b85750600081115b620022fa576040517f08c379a0000000000000000000000000000000000000000000000000000000008152600401620022f1906200495f565b60405180910390fd5b60008460ff16118015620023115750808460ff1611155b62002353576040517f08c379a00000000000000000000000000000000000000000000000000000000081526004016200234a90620049d1565b60405180910390fd5b6200235d62002c43565b6200236762002ca1565b6200237283620026bd565b60005b818160ff161015620025d457600073ffffffffffffffffffffffffffffffffffffffff16868260ff1681518110620023b257620023b162003de5565b5b602002602001015173ffffffffffffffffffffffffffffffffffffffff160362002413576040517f08c379a00000000000000000000000000000000000000000000000000000000081526004016200240a9062004a43565b60405180910390fd5b60cb6000878360ff168151811062002430576200242f62003de5565b5b602002602001015173ffffffffffffffffffffffffffffffffffffffff1673ffffffffffffffffffffffffffffffffffffffff16815260200190815260200160002060009054906101000a900460ff1615620024c3576040517f08c379a0000000000000000000000000000000000000000000000000000000008152600401620024ba9062004ab5565b60405180910390fd5b60c9868260ff1681518110620024de57620024dd62003de5565b5b60200260200101519080600181540180825580915050600190039060005260206000200160009091909190916101000a81548173ffffffffffffffffffffffffffffffffffffffff021916908373ffffffffffffffffffffffffffffffffffffffff160217905550600160cb6000888460ff168151811062002565576200256462003de5565b5b602002602001015173ffffffffffffffffffffffffffffffffffffffff1673ffffffffffffffffffffffffffffffffffffffff16815260200190815260200160002060006101000a81548160ff0219169083151502179055508080620025cb906200467f565b91505062002375565b508360cd60006101000a81548160ff021916908360ff1602179055503373ffffffffffffffffffffffffffffffffffffffff167fe981d41cfcc707f2fa59586347099614ffa99754751f6000ade1fbd3514ebd4d86866040516200263a92919062004bcd565b60405180910390a25080156200269f5760008060016101000a81548160ff0219169083151502179055507f7f26b83ff96e1f2b6a682f133852f6798a09c465da95921460cefb3847402498600160405162002696919062004c44565b60405180910390a15b50505050565b60cc6020528060005260406000206000915090505481565b620026c762002a7a565b73ffffffffffffffffffffffffffffffffffffffff16620026e7620018fe565b73ffffffffffffffffffffffffffffffffffffffff161462002740576040517f08c379a000000000000000000000000000000000000000000000000000000000815260040162002737906200440d565b60405180910390fd5b600073ffffffffffffffffffffffffffffffffffffffff168173ffffffffffffffffffffffffffffffffffffffff1603620027b2576040517f08c379a0000000000000000000000000000000000000000000000000000000008152600401620027a99062004cd7565b60405180910390fd5b620027bd8162002a82565b50565b6040518060400160405280600581526020017f302e302e3100000000000000000000000000000000000000000000000000000081525081565b6000808273ffffffffffffffffffffffffffffffffffffffff163b119050919050565b60006200284c7f360894a13ba1a3210667c828492db98dca3e2076cc3735a920a3ca505d382bbc60001b62002cf5565b60000160009054906101000a900473ffffffffffffffffffffffffffffffffffffffff16905090565b6200287f62002a7a565b73ffffffffffffffffffffffffffffffffffffffff166200289f620018fe565b73ffffffffffffffffffffffffffffffffffffffff1614620028f8576040517f08c379a0000000000000000000000000000000000000000000000000000000008152600401620028ef906200440d565b60405180910390fd5b50565b620029297f4910fdfa16fed3260ed0e7147f7cc6da11a60208b5b9406d12a635614ffd914360001b62002cff565b60000160009054906101000a900460ff161562002951576200294b8362002d09565b62002a75565b8273ffffffffffffffffffffffffffffffffffffffff166352d1902d6040518163ffffffff1660e01b8152600401602060405180830381865afa925050508015620029bc57506040513d601f19601f82011682018060405250810190620029b9919062004d2a565b60015b620029fe576040517f08c379a0000000000000000000000000000000000000000000000000000000008152600401620029f59062004dd2565b60405180910390fd5b7f360894a13ba1a3210667c828492db98dca3e2076cc3735a920a3ca505d382bbc60001b811462002a66576040517f08c379a000000000000000000000000000000000000000000000000000000000815260040162002a5d9062004e6a565b60405180910390fd5b5062002a7483838362002dc9565b5b505050565b600033905090565b6000609760009054906101000a900473ffffffffffffffffffffffffffffffffffffffff16905081609760006101000a81548173ffffffffffffffffffffffffffffffffffffffff021916908373ffffffffffffffffffffffffffffffffffffffff1602179055508173ffffffffffffffffffffffffffffffffffffffff168173ffffffffffffffffffffffffffffffffffffffff167f8be0079c531659141344cd1fd0a4f28419497f9722a3daafe3b4186f6b6457e060405160405180910390a35050565b60008060019054906101000a900460ff161562002bc75760018260ff1614801562002b7b575062002b7930620027f9565b155b62002bbd576040517f08c379a000000000000000000000000000000000000000000000000000000000815260040162002bb49062004f02565b60405180910390fd5b6000905062002c3e565b8160ff1660008054906101000a900460ff1660ff161062002c1f576040517f08c379a000000000000000000000000000000000000000000000000000000000815260040162002c169062004f02565b60405180910390fd5b816000806101000a81548160ff021916908360ff160217905550600190505b919050565b600060019054906101000a900460ff1662002c95576040517f08c379a000000000000000000000000000000000000000000000000000000000815260040162002c8c9062004f9a565b60405180910390fd5b62002c9f62002dfb565b565b600060019054906101000a900460ff1662002cf3576040517f08c379a000000000000000000000000000000000000000000000000000000000815260040162002cea9062004f9a565b60405180910390fd5b565b6000819050919050565b6000819050919050565b62002d1481620027f9565b62002d56576040517f08c379a000000000000000000000000000000000000000000000000000000000815260040162002d4d9062005032565b60405180910390fd5b8062002d857f360894a13ba1a3210667c828492db98dca3e2076cc3735a920a3ca505d382bbc60001b62002cf5565b60000160006101000a81548173ffffffffffffffffffffffffffffffffffffffff021916908373ffffffffffffffffffffffffffffffffffffffff16021790555050565b62002dd48362002e63565b60008251118062002de25750805b1562002df65762002df4838362002eb4565b505b505050565b600060019054906101000a900460ff1662002e4d576040517f08c379a000000000000000000000000000000000000000000000000000000000815260040162002e449062004f9a565b60405180910390fd5b62002e6162002e5b62002a7a565b62002a82565b565b62002e6e8162002d09565b8073ffffffffffffffffffffffffffffffffffffffff167fbc7cd75a20ee27fd9adebab32041f755214dbc6bffa90cc0225b39da2e5c2d3b60405160405180910390a250565b606062002ec183620027f9565b62002f03576040517f08c379a000000000000000000000000000000000000000000000000000000000815260040162002efa90620050ca565b60405180910390fd5b6000808473ffffffffffffffffffffffffffffffffffffffff168460405162002f2d919062005123565b600060405180830381855af49150503d806000811462002f6a576040519150601f19603f3d011682016040523d82523d6000602084013e62002f6f565b606091505b509150915062002f9a828260405180606001604052806027815260200162005ebd6027913962002fa4565b9250505092915050565b6060831562002fb65782905062003009565b60008351111562002fca5782518084602001fd5b816040517f08c379a000000000000000000000000000000000000000000000000000000000815260040162003000919062003d4f565b60405180910390fd5b9392505050565b610d80806200513d83390190565b600082825260208201905092915050565b7f6e6f7420616e206f776e65720000000000000000000000000000000000000000600082015250565b600062003067600c836200301e565b915062003074826200302f565b602082019050919050565b600060208201905081810360008301526200309a8162003058565b9050919050565b7f76616c7565206571203000000000000000000000000000000000000000000000600082015250565b6000620030d9600a836200301e565b9150620030e682620030a1565b602082019050919050565b600060208201905081810360008301526200310c81620030ca565b9050919050565b6000819050919050565b7f4e487b7100000000000000000000000000000000000000000000000000000000600052601160045260246000fd5b6000620031598262003113565b9150620031668362003113565b9250827fffffffffffffffffffffffffffffffffffffffffffffffffffffffffffffffff038211156200319e576200319d6200311d565b5b828201905092915050565b620031b48162003113565b82525050565b6000606082019050620031d16000830186620031a9565b620031e06020830185620031a9565b620031ef6040830184620031a9565b949350505050565b6000604051905090565b600080fd5b600080fd5b620032168162003113565b81146200322257600080fd5b50565b60008135905062003236816200320b565b92915050565b60006020828403121562003255576200325462003201565b5b6000620032658482850162003225565b91505092915050565b600073ffffffffffffffffffffffffffffffffffffffff82169050919050565b60006200329b826200326e565b9050919050565b620032ad816200328e565b82525050565b6000602082019050620032ca6000830184620032a2565b92915050565b7f4e487b7100000000000000000000000000000000000000000000000000000000600052602160045260246000fd5b60038110620033135762003312620032d0565b5b50565b60008190506200332682620032ff565b919050565b6000620033388262003316565b9050919050565b6200334a816200332b565b82525050565b60038110620033645762003363620032d0565b5b50565b6000819050620033778262003350565b919050565b6000620033898262003367565b9050919050565b6200339b816200337c565b82525050565b600060c082019050620033b86000830189620032a2565b620033c760208301886200333f565b620033d6604083018762003390565b620033e56060830186620031a9565b620033f46080830185620031a9565b6200340360a0830184620031a9565b979650505050505050565b62003419816200328e565b81146200342557600080fd5b50565b60008135905062003439816200340e565b92915050565b6000806040838503121562003459576200345862003201565b5b6000620034698582860162003225565b92505060206200347c8582860162003428565b9150509250929050565b60006020820190506200349d6000830184620031a9565b92915050565b600080fd5b600080fd5b6000601f19601f8301169050919050565b7f4e487b7100000000000000000000000000000000000000000000000000000000600052604160045260246000fd5b620034f882620034ad565b810181811067ffffffffffffffff821117156200351a5762003519620034be565b5b80604052505050565b60006200352f620031f7565b90506200353d8282620034ed565b919050565b600067ffffffffffffffff82111562003560576200355f620034be565b5b6200356b82620034ad565b9050602081019050919050565b82818337600083830152505050565b60006200359e620035988462003542565b62003523565b905082815260208101848484011115620035bd57620035bc620034a8565b5b620035ca84828562003578565b509392505050565b600082601f830112620035ea57620035e9620034a3565b5b8135620035fc84826020860162003587565b91505092915050565b6000806000806080858703121562003622576200362162003201565b5b6000620036328782880162003428565b9450506020620036458782880162003428565b9350506040620036588782880162003225565b925050606085013567ffffffffffffffff8111156200367c576200367b62003206565b5b6200368a87828801620035d2565b91505092959194509250565b60007fffffffff0000000000000000000000000000000000000000000000000000000082169050919050565b620036cd8162003696565b82525050565b6000602082019050620036ea6000830184620036c2565b92915050565b600060ff82169050919050565b6200370881620036f0565b82525050565b6000602082019050620037256000830184620036fd565b92915050565b60006020828403121562003744576200374362003201565b5b6000620037548482850162003428565b91505092915050565b60008115159050919050565b62003774816200375d565b82525050565b600060208201905062003791600083018462003769565b92915050565b60008060408385031215620037b157620037b062003201565b5b6000620037c18582860162003428565b925050602083013567ffffffffffffffff811115620037e557620037e462003206565b5b620037f385828601620035d2565b9150509250929050565b600081519050919050565b600082825260208201905092915050565b60005b83811015620038395780820151818401526020810190506200381c565b8381111562003849576000848401525b50505050565b60006200385c82620037fd565b62003868818562003808565b93506200387a81856020860162003819565b6200388581620034ad565b840191505092915050565b600061010082019050620038a8600083018b620032a2565b620038b7602083018a620032a2565b8181036040830152620038cb81896200384f565b9050620038dc60608301886200333f565b620038eb608083018762003390565b620038fa60a0830186620031a9565b6200390960c0830185620031a9565b6200391860e0830184620031a9565b9998505050505050505050565b6000819050919050565b6200393a8162003925565b82525050565b60006020820190506200395760008301846200392f565b92915050565b6000819050919050565b600062003988620039826200397c846200326e565b6200395d565b6200326e565b9050919050565b60006200399c8262003967565b9050919050565b6000620039b0826200398f565b9050919050565b620039c281620039a3565b82525050565b6000602082019050620039df6000830184620039b7565b92915050565b600080fd5b600080fd5b60008083601f84011262003a085762003a07620034a3565b5b8235905067ffffffffffffffff81111562003a285762003a27620039e5565b5b60208301915083604082028301111562003a475762003a46620039ea565b5b9250929050565b6003811062003a5c57600080fd5b50565b60008135905062003a708162003a4e565b92915050565b60008060008060008060008060006101008a8c03121562003a9c5762003a9b62003201565b5b600062003aac8c828d0162003428565b99505060208a013567ffffffffffffffff81111562003ad05762003acf62003206565b5b62003ade8c828d01620035d2565b985050604062003af18c828d0162003225565b97505060608a013567ffffffffffffffff81111562003b155762003b1462003206565b5b62003b238c828d01620039ef565b9650965050608062003b388c828d0162003428565b94505060a062003b4b8c828d0162003225565b93505060c062003b5e8c828d0162003225565b92505060e062003b718c828d0162003a5f565b9150509295985092959850929598565b600067ffffffffffffffff82111562003b9f5762003b9e620034be565b5b602082029050602081019050919050565b600062003bc762003bc18462003b81565b62003523565b9050808382526020820190506020840283018581111562003bed5762003bec620039ea565b5b835b8181101562003c1a578062003c05888262003428565b84526020840193505060208101905062003bef565b5050509392505050565b600082601f83011262003c3c5762003c3b620034a3565b5b813562003c4e84826020860162003bb0565b91505092915050565b62003c6281620036f0565b811462003c6e57600080fd5b50565b60008135905062003c828162003c57565b92915050565b60008060006060848603121562003ca45762003ca362003201565b5b600084013567ffffffffffffffff81111562003cc55762003cc462003206565b5b62003cd38682870162003c24565b935050602062003ce68682870162003c71565b925050604062003cf98682870162003428565b9150509250925092565b600081519050919050565b600062003d1b8262003d03565b62003d2781856200301e565b935062003d3981856020860162003819565b62003d4481620034ad565b840191505092915050565b6000602082019050818103600083015262003d6b818462003d0e565b905092915050565b7f4e6f207375636820706f636b6574206578697374730000000000000000000000600082015250565b600062003dab6015836200301e565b915062003db88262003d73565b602082019050919050565b6000602082019050818103600083015262003dde8162003d9c565b9050919050565b7f4e487b7100000000000000000000000000000000000000000000000000000000600052603260045260246000fd5b60008151905062003e25816200340e565b92915050565b60006020828403121562003e445762003e4362003201565b5b600062003e548482850162003e14565b91505092915050565b6003811062003e6b57600080fd5b50565b60008151905062003e7f8162003e5d565b92915050565b60006020828403121562003e9e5762003e9d62003201565b5b600062003eae8482850162003e6e565b91505092915050565b60008151905062003ec88162003a4e565b92915050565b60006020828403121562003ee75762003ee662003201565b5b600062003ef78482850162003eb7565b91505092915050565b60008151905062003f11816200320b565b92915050565b60006020828403121562003f305762003f2f62003201565b5b600062003f408482850162003f00565b91505092915050565b7f616d6f756e742065712030000000000000000000000000000000000000000000600082015250565b600062003f81600b836200301e565b915062003f8e8262003f49565b602082019050919050565b6000602082019050818103600083015262003fb48162003f72565b9050919050565b7f746f6f2062696720616d6f756e74000000000000000000000000000000000000600082015250565b600062003ff3600e836200301e565b9150620040008262003fbb565b602082019050919050565b60006020820190508181036000830152620040268162003fe4565b9050919050565b60006200403a8262003113565b9150620040478362003113565b9250828210156200405d576200405c6200311d565b5b828203905092915050565b600081905092915050565b50565b60006200408560008362004068565b9150620040928262004073565b600082019050919050565b6000620040aa8262004076565b9150819050919050565b7f7472616e73616374696f6e206661696c65640000000000000000000000000000600082015250565b6000620040ec6012836200301e565b9150620040f982620040b4565b602082019050919050565b600060208201905081810360008301526200411f81620040dd565b9050919050565b7f46756e6374696f6e206d7573742062652063616c6c6564207468726f7567682060008201527f64656c656761746563616c6c0000000000000000000000000000000000000000602082015250565b600062004184602c836200301e565b9150620041918262004126565b604082019050919050565b60006020820190508181036000830152620041b78162004175565b9050919050565b7f46756e6374696f6e206d7573742062652063616c6c6564207468726f7567682060008201527f6163746976652070726f78790000000000000000000000000000000000000000602082015250565b60006200421c602c836200301e565b91506200422982620041be565b604082019050919050565b600060208201905081810360008301526200424f816200420d565b9050919050565b60006200426d620042678462003542565b62003523565b9050828152602081018484840111156200428c576200428b620034a8565b5b6200429984828562003819565b509392505050565b600082601f830112620042b957620042b8620034a3565b5b8151620042cb84826020860162004256565b91505092915050565b600060208284031215620042ed57620042ec62003201565b5b600082015167ffffffffffffffff8111156200430e576200430d62003206565b5b6200431c84828501620042a1565b91505092915050565b7f555550535570677261646561626c653a206d757374206e6f742062652063616c60008201527f6c6564207468726f7567682064656c656761746563616c6c0000000000000000602082015250565b6000620043836038836200301e565b9150620043908262004325565b604082019050919050565b60006020820190508181036000830152620043b68162004374565b9050919050565b7f4f776e61626c653a2063616c6c6572206973206e6f7420746865206f776e6572600082015250565b6000620043f56020836200301e565b91506200440282620043bd565b602082019050919050565b600060208201905081810360008301526200442881620043e6565b9050919050565b7f616c7265616479207369676e6564000000000000000000000000000000000000600082015250565b600062004467600e836200301e565b915062004474826200442f565b602082019050919050565b600060208201905081810360008301526200449a8162004458565b9050919050565b7f77726f6e67207374616765000000000000000000000000000000000000000000600082015250565b6000620044d9600b836200301e565b9150620044e682620044a1565b602082019050919050565b600060208201905081810360008301526200450c81620044ca565b9050919050565b7f616c726561647920636f6e6669726d6564000000000000000000000000000000600082015250565b60006200454b6011836200301e565b9150620045588262004513565b602082019050919050565b600060208201905081810360008301526200457e816200453c565b9050919050565b60006200459282620036f0565b91506200459f83620036f0565b92508260ff03821115620045b857620045b76200311d565b5b828201905092915050565b6000602082019050620045da60008301846200333f565b92915050565b6000604082019050620045f76000830185620031a9565b620046066020830184620036fd565b9392505050565b7f302d323535207368617265732072657175697265640000000000000000000000600082015250565b6000620046456015836200301e565b915062004652826200460d565b602082019050919050565b60006020820190508181036000830152620046788162004636565b9050919050565b60006200468c82620036f0565b915060ff8203620046a257620046a16200311d565b5b600182019050919050565b600060e082019050620046c4600083018a620032a2565b620046d36020830189620032a2565b8181036040830152620046e781886200384f565b9050620046f86060830187620031a9565b620047076080830186620031a9565b6200471660a0830185620031a9565b6200472560c083018462003390565b98975050505050505050565b600082825260208201905092915050565b6000819050919050565b60006200475d602084018462003428565b905092915050565b62004770816200328e565b82525050565b600062004787602084018462003225565b905092915050565b6200479a8162003113565b82525050565b60408201620047b360008301836200474c565b620047c2600085018262004765565b50620047d2602083018362004776565b620047e160208501826200478f565b50505050565b6000620047f58383620047a0565b60408301905092915050565b600082905092915050565b6000604082019050919050565b600062004827838562004731565b9350620048348262004742565b8060005b8581101562004875576200484d828462004801565b620048598882620047e7565b975062004866836200480c565b92505060018101905062004838565b5085925050509392505050565b600060e08201905062004899600083018b620031a9565b620048a8602083018a620032a2565b8181036040830152620048bc81896200384f565b9050620048cd60608301886200333f565b620048dc608083018762003390565b620048eb60a0830186620031a9565b81810360c08301526200490081848662004819565b90509998505050505050505050565b7f5f6f776e6572732e6c656e6774682077726f6e67000000000000000000000000600082015250565b6000620049476014836200301e565b915062004954826200490f565b602082019050919050565b600060208201905081810360008301526200497a8162004938565b9050919050565b7f696e76616c696420636f6e6669726d6174696f6e206e756d6265720000000000600082015250565b6000620049b9601b836200301e565b9150620049c68262004981565b602082019050919050565b60006020820190508181036000830152620049ec81620049aa565b9050919050565b7f6f776e6572206973206164647265737328302900000000000000000000000000600082015250565b600062004a2b6013836200301e565b915062004a3882620049f3565b602082019050919050565b6000602082019050818103600083015262004a5e8162004a1c565b9050919050565b7f6f776e657220697320616c7265616479206c6973746564000000000000000000600082015250565b600062004a9d6017836200301e565b915062004aaa8262004a65565b602082019050919050565b6000602082019050818103600083015262004ad08162004a8e565b9050919050565b600081519050919050565b600082825260208201905092915050565b6000819050602082019050919050565b600062004b11838362004765565b60208301905092915050565b6000602082019050919050565b600062004b378262004ad7565b62004b43818562004ae2565b935062004b508362004af3565b8060005b8381101562004b8757815162004b6b888262004b03565b975062004b788362004b1d565b92505060018101905062004b54565b5085935050505092915050565b600062004bb562004baf62004ba984620036f0565b6200395d565b62003113565b9050919050565b62004bc78162004b94565b82525050565b6000604082019050818103600083015262004be9818562004b2a565b905062004bfa602083018462004bbc565b9392505050565b6000819050919050565b600062004c2c62004c2662004c208462004c01565b6200395d565b620036f0565b9050919050565b62004c3e8162004c0b565b82525050565b600060208201905062004c5b600083018462004c33565b92915050565b7f4f776e61626c653a206e6577206f776e657220697320746865207a65726f206160008201527f6464726573730000000000000000000000000000000000000000000000000000602082015250565b600062004cbf6026836200301e565b915062004ccc8262004c61565b604082019050919050565b6000602082019050818103600083015262004cf28162004cb0565b9050919050565b62004d048162003925565b811462004d1057600080fd5b50565b60008151905062004d248162004cf9565b92915050565b60006020828403121562004d435762004d4262003201565b5b600062004d538482850162004d13565b91505092915050565b7f45524331393637557067726164653a206e657720696d706c656d656e7461746960008201527f6f6e206973206e6f742055555053000000000000000000000000000000000000602082015250565b600062004dba602e836200301e565b915062004dc78262004d5c565b604082019050919050565b6000602082019050818103600083015262004ded8162004dab565b9050919050565b7f45524331393637557067726164653a20756e737570706f727465642070726f7860008201527f6961626c65555549440000000000000000000000000000000000000000000000602082015250565b600062004e526029836200301e565b915062004e5f8262004df4565b604082019050919050565b6000602082019050818103600083015262004e858162004e43565b9050919050565b7f496e697469616c697a61626c653a20636f6e747261637420697320616c72656160008201527f647920696e697469616c697a6564000000000000000000000000000000000000602082015250565b600062004eea602e836200301e565b915062004ef78262004e8c565b604082019050919050565b6000602082019050818103600083015262004f1d8162004edb565b9050919050565b7f496e697469616c697a61626c653a20636f6e7472616374206973206e6f74206960008201527f6e697469616c697a696e67000000000000000000000000000000000000000000602082015250565b600062004f82602b836200301e565b915062004f8f8262004f24565b604082019050919050565b6000602082019050818103600083015262004fb58162004f73565b9050919050565b7f455243313936373a206e657720696d706c656d656e746174696f6e206973206e60008201527f6f74206120636f6e747261637400000000000000000000000000000000000000602082015250565b60006200501a602d836200301e565b9150620050278262004fbc565b604082019050919050565b600060208201905081810360008301526200504d816200500b565b9050919050565b7f416464726573733a2064656c65676174652063616c6c20746f206e6f6e2d636f60008201527f6e74726163740000000000000000000000000000000000000000000000000000602082015250565b6000620050b26026836200301e565b9150620050bf8262005054565b604082019050919050565b60006020820190508181036000830152620050e581620050a3565b9050919050565b6000620050f982620037fd565b62005105818562004068565b93506200511781856020860162003819565b80840191505092915050565b6000620051318284620050ec565b91508190509291505056fe60806040523480156200001157600080fd5b5060405162000d8038038062000d808339818101604052810190620000379190620004a3565b336000806101000a81548173ffffffffffffffffffffffffffffffffffffffff021916908373ffffffffffffffffffffffffffffffffffffffff16021790555086600160006101000a81548173ffffffffffffffffffffffffffffffffffffffff021916908373ffffffffffffffffffffffffffffffffffffffff16021790555085600260006101000a81548173ffffffffffffffffffffffffffffffffffffffff021916908373ffffffffffffffffffffffffffffffffffffffff1602179055508460039080519060200190620001119291906200018e565b5083600581905550826006819055508160078190555080600460016101000a81548160ff021916908360028111156200014f576200014e62000575565b5b021790555080600460016101000a81548160ff021916908360028111156200017c576200017b62000575565b5b02179055505050505050505062000608565b8280546200019c90620005d3565b90600052602060002090601f016020900481019282620001c057600085556200020c565b82601f10620001db57805160ff19168380011785556200020c565b828001600101855582156200020c579182015b828111156200020b578251825591602001919060010190620001ee565b5b5090506200021b91906200021f565b5090565b5b808211156200023a57600081600090555060010162000220565b5090565b6000604051905090565b600080fd5b600080fd5b600073ffffffffffffffffffffffffffffffffffffffff82169050919050565b60006200027f8262000252565b9050919050565b620002918162000272565b81146200029d57600080fd5b50565b600081519050620002b18162000286565b92915050565b600080fd5b600080fd5b6000601f19601f8301169050919050565b7f4e487b7100000000000000000000000000000000000000000000000000000000600052604160045260246000fd5b6200030c82620002c1565b810181811067ffffffffffffffff821117156200032e576200032d620002d2565b5b80604052505050565b6000620003436200023e565b905062000351828262000301565b919050565b600067ffffffffffffffff821115620003745762000373620002d2565b5b6200037f82620002c1565b9050602081019050919050565b60005b83811015620003ac5780820151818401526020810190506200038f565b83811115620003bc576000848401525b50505050565b6000620003d9620003d38462000356565b62000337565b905082815260208101848484011115620003f857620003f7620002bc565b5b620004058482856200038c565b509392505050565b600082601f830112620004255762000424620002b7565b5b815162000437848260208601620003c2565b91505092915050565b6000819050919050565b620004558162000440565b81146200046157600080fd5b50565b60008151905062000475816200044a565b92915050565b600381106200048957600080fd5b50565b6000815190506200049d816200047b565b92915050565b600080600080600080600060e0888a031215620004c557620004c462000248565b5b6000620004d58a828b01620002a0565b9750506020620004e88a828b01620002a0565b965050604088015167ffffffffffffffff8111156200050c576200050b6200024d565b5b6200051a8a828b016200040d565b95505060606200052d8a828b0162000464565b9450506080620005408a828b0162000464565b93505060a0620005538a828b0162000464565b92505060c0620005668a828b016200048c565b91505092959891949750929550565b7f4e487b7100000000000000000000000000000000000000000000000000000000600052602160045260246000fd5b7f4e487b7100000000000000000000000000000000000000000000000000000000600052602260045260246000fd5b60006002820490506001821680620005ec57607f821691505b602082108103620006025762000601620005a4565b5b50919050565b61076880620006186000396000f3fe608060405234801561001057600080fd5b506004361061009e5760003560e01c80637ee53526116100665780637ee53526146101375780638285a302146101555780638da5cb5b14610173578063af640d0f14610191578063f2a4a82e146101af5761009e565b806313151981146100a35780631a39d8ef146100c1578063216b9116146100df5780632e49d78b146100fd57806373d4a13a14610119575b600080fd5b6100ab6101cd565b6040516100b891906103ff565b60405180910390f35b6100c96101f3565b6040516100d69190610433565b60405180910390f35b6100e76101f9565b6040516100f491906104c5565b60405180910390f35b6101176004803603810190610112919061050a565b61020c565b005b6101216102c7565b60405161012e91906105d0565b60405180910390f35b61013f610355565b60405161014c919061063a565b60405180910390f35b61015d610368565b60405161016a9190610433565b60405180910390f35b61017b61036e565b60405161018891906103ff565b60405180910390f35b610199610392565b6040516101a69190610433565b60405180910390f35b6101b7610398565b6040516101c491906103ff565b60405180910390f35b600160009054906101000a900473ffffffffffffffffffffffffffffffffffffffff1681565b60055481565b600460019054906101000a900460ff1681565b60008054906101000a900473ffffffffffffffffffffffffffffffffffffffff1673ffffffffffffffffffffffffffffffffffffffff163373ffffffffffffffffffffffffffffffffffffffff161461029a576040517f08c379a0000000000000000000000000000000000000000000000000000000008152600401610291906106b2565b60405180910390fd5b80600460006101000a81548160ff021916908360028111156102bf576102be61044e565b5b021790555050565b600380546102d490610701565b80601f016020809104026020016040519081016040528092919081815260200182805461030090610701565b801561034d5780601f106103225761010080835404028352916020019161034d565b820191906000526020600020905b81548152906001019060200180831161033057829003601f168201915b505050505081565b600460009054906101000a900460ff1681565b60075481565b60008054906101000a900473ffffffffffffffffffffffffffffffffffffffff1681565b60065481565b600260009054906101000a900473ffffffffffffffffffffffffffffffffffffffff1681565b600073ffffffffffffffffffffffffffffffffffffffff82169050919050565b60006103e9826103be565b9050919050565b6103f9816103de565b82525050565b600060208201905061041460008301846103f0565b92915050565b6000819050919050565b61042d8161041a565b82525050565b60006020820190506104486000830184610424565b92915050565b7f4e487b7100000000000000000000000000000000000000000000000000000000600052602160045260246000fd5b6003811061048e5761048d61044e565b5b50565b600081905061049f8261047d565b919050565b60006104af82610491565b9050919050565b6104bf816104a4565b82525050565b60006020820190506104da60008301846104b6565b92915050565b600080fd5b600381106104f257600080fd5b50565b600081359050610504816104e5565b92915050565b6000602082840312156105205761051f6104e0565b5b600061052e848285016104f5565b91505092915050565b600081519050919050565b600082825260208201905092915050565b60005b83811015610571578082015181840152602081019050610556565b83811115610580576000848401525b50505050565b6000601f19601f8301169050919050565b60006105a282610537565b6105ac8185610542565b93506105bc818560208601610553565b6105c581610586565b840191505092915050565b600060208201905081810360008301526105ea8184610597565b905092915050565b600381106106035761060261044e565b5b50565b6000819050610614826105f2565b919050565b600061062482610606565b9050919050565b61063481610619565b82525050565b600060208201905061064f600083018461062b565b92915050565b600082825260208201905092915050565b7f6e6f742061626c6520746f2063616c6c00000000000000000000000000000000600082015250565b600061069c601083610655565b91506106a782610666565b602082019050919050565b600060208201905081810360008301526106cb8161068f565b9050919050565b7f4e487b7100000000000000000000000000000000000000000000000000000000600052602260045260246000fd5b6000600282049050600182168061071957607f821691505b60208210810361072c5761072b6106d2565b5b5091905056fea264697066735822122061e3d454b56ea8f04a573f90947edf2711fd4792e1b657cdc02c8bb48d713e3d64736f6c634300080d0033416464726573733a206c6f772d6c6576656c2064656c65676174652063616c6c206661696c6564a2646970667358221220163d44fc15629e2c4db2f2ef0a3ff39d9d565b84a92ff05ff04d1ca563285bf564736f6c634300080d0033",
  "linkReferences": {},
  "deployedLinkReferences": {}
}